{
  "address": "0x40E455515bf712144C1A5D859F19d64b537754f7",
  "abi": [
    {
      "inputs": [
        {
          "internalType": "string",
          "name": "tokenName",
          "type": "string"
        },
        {
          "internalType": "string",
          "name": "tokenSymbol",
          "type": "string"
        },
        {
          "internalType": "address",
          "name": "_accessControl",
          "type": "address"
        }
      ],
      "stateMutability": "nonpayable",
      "type": "constructor"
    },
    {
      "inputs": [
        {
          "internalType": "uint256",
          "name": "numerator",
          "type": "uint256"
        },
        {
          "internalType": "uint256",
          "name": "denominator",
          "type": "uint256"
        }
      ],
      "name": "ERC2981InvalidDefaultRoyalty",
      "type": "error"
    },
    {
      "inputs": [
        {
          "internalType": "address",
          "name": "receiver",
          "type": "address"
        }
      ],
      "name": "ERC2981InvalidDefaultRoyaltyReceiver",
      "type": "error"
    },
    {
      "inputs": [
        {
          "internalType": "uint256",
          "name": "tokenId",
          "type": "uint256"
        },
        {
          "internalType": "uint256",
          "name": "numerator",
          "type": "uint256"
        },
        {
          "internalType": "uint256",
          "name": "denominator",
          "type": "uint256"
        }
      ],
      "name": "ERC2981InvalidTokenRoyalty",
      "type": "error"
    },
    {
      "inputs": [
        {
          "internalType": "uint256",
          "name": "tokenId",
          "type": "uint256"
        },
        {
          "internalType": "address",
          "name": "receiver",
          "type": "address"
        }
      ],
      "name": "ERC2981InvalidTokenRoyaltyReceiver",
      "type": "error"
    },
    {
      "inputs": [
        {
          "internalType": "address",
          "name": "sender",
          "type": "address"
        },
        {
          "internalType": "uint256",
          "name": "tokenId",
          "type": "uint256"
        },
        {
          "internalType": "address",
          "name": "owner",
          "type": "address"
        }
      ],
      "name": "ERC721IncorrectOwner",
      "type": "error"
    },
    {
      "inputs": [
        {
          "internalType": "address",
          "name": "operator",
          "type": "address"
        },
        {
          "internalType": "uint256",
          "name": "tokenId",
          "type": "uint256"
        }
      ],
      "name": "ERC721InsufficientApproval",
      "type": "error"
    },
    {
      "inputs": [
        {
          "internalType": "address",
          "name": "approver",
          "type": "address"
        }
      ],
      "name": "ERC721InvalidApprover",
      "type": "error"
    },
    {
      "inputs": [
        {
          "internalType": "address",
          "name": "operator",
          "type": "address"
        }
      ],
      "name": "ERC721InvalidOperator",
      "type": "error"
    },
    {
      "inputs": [
        {
          "internalType": "address",
          "name": "owner",
          "type": "address"
        }
      ],
      "name": "ERC721InvalidOwner",
      "type": "error"
    },
    {
      "inputs": [
        {
          "internalType": "address",
          "name": "receiver",
          "type": "address"
        }
      ],
      "name": "ERC721InvalidReceiver",
      "type": "error"
    },
    {
      "inputs": [
        {
          "internalType": "address",
          "name": "sender",
          "type": "address"
        }
      ],
      "name": "ERC721InvalidSender",
      "type": "error"
    },
    {
      "inputs": [
        {
          "internalType": "uint256",
          "name": "tokenId",
          "type": "uint256"
        }
      ],
      "name": "ERC721NonexistentToken",
      "type": "error"
    },
    {
      "inputs": [],
      "name": "EnforcedPause",
      "type": "error"
    },
    {
      "inputs": [],
      "name": "ExpectedPause",
      "type": "error"
    },
    {
      "inputs": [],
      "name": "ReentrancyGuardReentrantCall",
      "type": "error"
    },
    {
      "anonymous": false,
      "inputs": [
        {
          "indexed": true,
          "internalType": "address",
          "name": "owner",
          "type": "address"
        },
        {
          "indexed": true,
          "internalType": "address",
          "name": "approved",
          "type": "address"
        },
        {
          "indexed": true,
          "internalType": "uint256",
          "name": "tokenId",
          "type": "uint256"
        }
      ],
      "name": "Approval",
      "type": "event"
    },
    {
      "anonymous": false,
      "inputs": [
        {
          "indexed": true,
          "internalType": "address",
          "name": "owner",
          "type": "address"
        },
        {
          "indexed": true,
          "internalType": "address",
          "name": "operator",
          "type": "address"
        },
        {
          "indexed": false,
          "internalType": "bool",
          "name": "approved",
          "type": "bool"
        }
      ],
      "name": "ApprovalForAll",
      "type": "event"
    },
    {
      "anonymous": false,
      "inputs": [
        {
          "indexed": false,
          "internalType": "uint256",
          "name": "_fromTokenId",
          "type": "uint256"
        },
        {
          "indexed": false,
          "internalType": "uint256",
          "name": "_toTokenId",
          "type": "uint256"
        }
      ],
      "name": "BatchMetadataUpdate",
      "type": "event"
    },
    {
      "anonymous": false,
      "inputs": [
        {
          "indexed": true,
          "internalType": "uint256",
          "name": "tokenId",
          "type": "uint256"
        },
        {
          "components": [
            {
              "internalType": "bool",
              "name": "allowColorChange",
              "type": "bool"
            },
            {
              "internalType": "bool",
              "name": "allowTextChange",
              "type": "bool"
            },
            {
              "internalType": "bool",
              "name": "allowSizeChange",
              "type": "bool"
            },
            {
              "internalType": "bool",
              "name": "allowEffectsChange",
              "type": "bool"
            },
            {
              "internalType": "string[]",
              "name": "availableColors",
              "type": "string[]"
            },
            {
              "internalType": "uint256",
              "name": "maxTextLength",
              "type": "uint256"
            }
          ],
          "indexed": false,
          "internalType": "struct MooveNFT.CustomizationOptions",
          "name": "newOptions",
          "type": "tuple"
        }
      ],
      "name": "CustomizationOptionsUpdated",
      "type": "event"
    },
    {
      "anonymous": false,
      "inputs": [
        {
          "indexed": false,
          "internalType": "uint256",
          "name": "_tokenId",
          "type": "uint256"
        }
      ],
      "name": "MetadataUpdate",
      "type": "event"
    },
    {
      "anonymous": false,
      "inputs": [
        {
          "indexed": true,
          "internalType": "uint256",
          "name": "tokenId",
          "type": "uint256"
        },
        {
          "indexed": true,
          "internalType": "address",
          "name": "creator",
          "type": "address"
        },
        {
          "indexed": true,
          "internalType": "address",
          "name": "owner",
          "type": "address"
        }
      ],
      "name": "NFTMinted",
      "type": "event"
    },
    {
      "anonymous": false,
      "inputs": [
        {
          "indexed": false,
          "internalType": "address",
          "name": "account",
          "type": "address"
        }
      ],
      "name": "Paused",
      "type": "event"
    },
    {
      "anonymous": false,
      "inputs": [
        {
          "indexed": true,
          "internalType": "uint256",
          "name": "tokenId",
          "type": "uint256"
        },
        {
          "indexed": true,
          "internalType": "address",
          "name": "recipient",
          "type": "address"
        },
        {
          "indexed": false,
          "internalType": "uint96",
          "name": "feeNumerator",
          "type": "uint96"
        }
      ],
      "name": "RoyaltyUpdated",
      "type": "event"
    },
    {
      "anonymous": false,
      "inputs": [
        {
          "indexed": true,
          "internalType": "uint256",
          "name": "tokenId",
          "type": "uint256"
        },
        {
          "indexed": true,
          "internalType": "address",
          "name": "customizer",
          "type": "address"
        },
        {
          "indexed": false,
          "internalType": "string",
          "name": "changeDescription",
          "type": "string"
        },
        {
          "indexed": false,
          "internalType": "string",
          "name": "newState",
          "type": "string"
        }
      ],
      "name": "StickerCustomized",
      "type": "event"
    },
    {
      "anonymous": false,
      "inputs": [
        {
          "indexed": true,
          "internalType": "uint256",
          "name": "tokenId",
          "type": "uint256"
        },
        {
          "indexed": true,
          "internalType": "address",
          "name": "creator",
          "type": "address"
        },
        {
          "indexed": true,
          "internalType": "address",
          "name": "owner",
          "type": "address"
        },
        {
          "indexed": false,
          "internalType": "string",
          "name": "name",
          "type": "string"
        },
        {
          "indexed": false,
          "internalType": "enum MooveNFT.StickerCategory",
          "name": "category",
          "type": "uint8"
        },
        {
          "indexed": false,
          "internalType": "enum MooveNFT.StickerRarity",
          "name": "rarity",
          "type": "uint8"
        },
        {
          "indexed": false,
          "internalType": "bool",
          "name": "isLimitedEdition",
          "type": "bool"
        }
      ],
      "name": "StickerMinted",
      "type": "event"
    },
    {
      "anonymous": false,
      "inputs": [
        {
          "indexed": true,
          "internalType": "address",
          "name": "from",
          "type": "address"
        },
        {
          "indexed": true,
          "internalType": "address",
          "name": "to",
          "type": "address"
        },
        {
          "indexed": true,
          "internalType": "uint256",
          "name": "tokenId",
          "type": "uint256"
        }
      ],
      "name": "Transfer",
      "type": "event"
    },
    {
      "anonymous": false,
      "inputs": [
        {
          "indexed": false,
          "internalType": "address",
          "name": "account",
          "type": "address"
        }
      ],
      "name": "Unpaused",
      "type": "event"
    },
    {
      "inputs": [],
      "name": "accessControl",
      "outputs": [
        {
          "internalType": "contract MooveAccessControl",
          "name": "",
          "type": "address"
        }
      ],
      "stateMutability": "view",
      "type": "function"
    },
    {
      "inputs": [
        {
          "internalType": "address",
          "name": "to",
          "type": "address"
        },
        {
          "internalType": "uint256",
          "name": "tokenId",
          "type": "uint256"
        }
      ],
      "name": "approve",
      "outputs": [],
      "stateMutability": "nonpayable",
      "type": "function"
    },
    {
      "inputs": [
        {
          "internalType": "address",
          "name": "owner",
          "type": "address"
        }
      ],
      "name": "balanceOf",
      "outputs": [
        {
          "internalType": "uint256",
          "name": "",
          "type": "uint256"
        }
      ],
      "stateMutability": "view",
      "type": "function"
    },
    {
      "inputs": [
        {
          "internalType": "address[]",
          "name": "recipients",
          "type": "address[]"
        },
        {
          "internalType": "string",
          "name": "editionName",
          "type": "string"
        },
        {
          "internalType": "string",
          "name": "editionDescription",
          "type": "string"
        },
        {
          "internalType": "enum MooveNFT.StickerCategory",
          "name": "category",
          "type": "uint8"
        },
        {
          "internalType": "enum MooveNFT.StickerRarity",
          "name": "rarity",
          "type": "uint8"
        },
        {
          "internalType": "uint256",
          "name": "editionSize",
          "type": "uint256"
        },
        {
          "components": [
            {
              "internalType": "bool",
              "name": "allowColorChange",
              "type": "bool"
            },
            {
              "internalType": "bool",
              "name": "allowTextChange",
              "type": "bool"
            },
            {
              "internalType": "bool",
              "name": "allowSizeChange",
              "type": "bool"
            },
            {
              "internalType": "bool",
              "name": "allowEffectsChange",
              "type": "bool"
            },
            {
              "internalType": "string[]",
              "name": "availableColors",
              "type": "string[]"
            },
            {
              "internalType": "uint256",
              "name": "maxTextLength",
              "type": "uint256"
            }
          ],
          "internalType": "struct MooveNFT.CustomizationOptions",
          "name": "customizationOptions",
          "type": "tuple"
        },
        {
          "internalType": "string[]",
          "name": "tokenURIs",
          "type": "string[]"
        },
        {
          "internalType": "address",
          "name": "royaltyRecipient",
          "type": "address"
        },
        {
          "internalType": "uint96",
          "name": "royaltyPercentage",
          "type": "uint96"
        }
      ],
      "name": "batchMintLimitedEdition",
      "outputs": [],
      "stateMutability": "nonpayable",
      "type": "function"
    },
    {
      "inputs": [
        {
          "internalType": "uint256",
          "name": "tokenId",
          "type": "uint256"
        }
      ],
      "name": "burn",
      "outputs": [],
      "stateMutability": "nonpayable",
      "type": "function"
    },
    {
      "inputs": [
        {
          "internalType": "address",
          "name": "",
          "type": "address"
        },
        {
          "internalType": "uint256",
          "name": "",
          "type": "uint256"
        }
      ],
      "name": "creatorStickers",
      "outputs": [
        {
          "internalType": "uint256",
          "name": "",
          "type": "uint256"
        }
      ],
      "stateMutability": "view",
      "type": "function"
    },
    {
      "inputs": [
        {
          "internalType": "uint256",
          "name": "",
          "type": "uint256"
        },
        {
          "internalType": "uint256",
          "name": "",
          "type": "uint256"
        }
      ],
      "name": "customizationHistory",
      "outputs": [
        {
          "internalType": "address",
          "name": "customizer",
          "type": "address"
        },
        {
          "internalType": "uint32",
          "name": "timestamp",
          "type": "uint32"
        },
        {
          "internalType": "string",
          "name": "changeDescription",
          "type": "string"
        },
        {
          "internalType": "string",
          "name": "previousState",
          "type": "string"
        },
        {
          "internalType": "string",
          "name": "newState",
          "type": "string"
        }
      ],
      "stateMutability": "view",
      "type": "function"
    },
    {
      "inputs": [
        {
          "internalType": "uint256",
          "name": "tokenId",
          "type": "uint256"
        },
        {
          "internalType": "string",
          "name": "changeDescription",
          "type": "string"
        },
        {
          "internalType": "string",
          "name": "newState",
          "type": "string"
        },
        {
          "internalType": "string",
          "name": "newTokenURI",
          "type": "string"
        }
      ],
      "name": "customizeSticker",
      "outputs": [],
      "stateMutability": "nonpayable",
      "type": "function"
    },
    {
      "inputs": [
        {
          "internalType": "uint256",
          "name": "tokenId",
          "type": "uint256"
        }
      ],
      "name": "getApproved",
      "outputs": [
        {
          "internalType": "address",
          "name": "",
          "type": "address"
        }
      ],
      "stateMutability": "view",
      "type": "function"
    },
    {
      "inputs": [
        {
          "internalType": "address",
          "name": "creator",
          "type": "address"
        }
      ],
      "name": "getCreatorStickers",
      "outputs": [
        {
          "internalType": "uint256[]",
          "name": "",
          "type": "uint256[]"
        }
      ],
      "stateMutability": "view",
      "type": "function"
    },
    {
      "inputs": [
        {
          "internalType": "uint256",
          "name": "tokenId",
          "type": "uint256"
        }
      ],
      "name": "getCustomizationHistory",
      "outputs": [
        {
          "components": [
            {
              "internalType": "address",
              "name": "customizer",
              "type": "address"
            },
            {
              "internalType": "uint32",
              "name": "timestamp",
              "type": "uint32"
            },
            {
              "internalType": "string",
              "name": "changeDescription",
              "type": "string"
            },
            {
              "internalType": "string",
              "name": "previousState",
              "type": "string"
            },
            {
              "internalType": "string",
              "name": "newState",
              "type": "string"
            }
          ],
          "internalType": "struct MooveNFT.CustomizationHistory[]",
          "name": "",
          "type": "tuple[]"
        }
      ],
      "stateMutability": "view",
      "type": "function"
    },
    {
      "inputs": [
        {
          "internalType": "uint256",
          "name": "tokenId",
          "type": "uint256"
        }
      ],
      "name": "getSticker",
      "outputs": [
        {
          "components": [
            {
              "internalType": "string",
              "name": "name",
              "type": "string"
            },
            {
              "internalType": "string",
              "name": "description",
              "type": "string"
            },
            {
              "internalType": "enum MooveNFT.StickerCategory",
              "name": "category",
              "type": "uint8"
            },
            {
              "internalType": "enum MooveNFT.StickerRarity",
              "name": "rarity",
              "type": "uint8"
            },
            {
              "internalType": "address",
              "name": "creator",
              "type": "address"
            },
            {
              "internalType": "uint32",
              "name": "creationDate",
              "type": "uint32"
            },
            {
              "internalType": "bool",
              "name": "isLimitedEdition",
              "type": "bool"
            },
            {
              "internalType": "uint32",
              "name": "editionSize",
              "type": "uint32"
            },
            {
              "internalType": "uint32",
              "name": "editionNumber",
              "type": "uint32"
            },
            {
              "components": [
                {
                  "internalType": "bool",
                  "name": "allowColorChange",
                  "type": "bool"
                },
                {
                  "internalType": "bool",
                  "name": "allowTextChange",
                  "type": "bool"
                },
                {
                  "internalType": "bool",
                  "name": "allowSizeChange",
                  "type": "bool"
                },
                {
                  "internalType": "bool",
                  "name": "allowEffectsChange",
                  "type": "bool"
                },
                {
                  "internalType": "string[]",
                  "name": "availableColors",
                  "type": "string[]"
                },
                {
                  "internalType": "uint256",
                  "name": "maxTextLength",
                  "type": "uint256"
                }
              ],
              "internalType": "struct MooveNFT.CustomizationOptions",
              "name": "customization",
              "type": "tuple"
            }
          ],
          "internalType": "struct MooveNFT.StickerNFT",
          "name": "",
          "type": "tuple"
        }
      ],
      "stateMutability": "view",
      "type": "function"
    },
    {
      "inputs": [
        {
          "internalType": "address",
          "name": "owner",
          "type": "address"
        },
        {
          "internalType": "address",
          "name": "operator",
          "type": "address"
        }
      ],
      "name": "isApprovedForAll",
      "outputs": [
        {
          "internalType": "bool",
          "name": "",
          "type": "bool"
        }
      ],
      "stateMutability": "view",
      "type": "function"
    },
    {
      "inputs": [
        {
          "internalType": "uint256",
          "name": "",
          "type": "uint256"
        }
      ],
      "name": "isCustomizable",
      "outputs": [
        {
          "internalType": "bool",
          "name": "",
          "type": "bool"
        }
      ],
      "stateMutability": "view",
      "type": "function"
    },
    {
      "inputs": [
        {
          "internalType": "uint256",
          "name": "tokenId",
          "type": "uint256"
        }
      ],
      "name": "isStickerCustomizable",
      "outputs": [
        {
          "internalType": "bool",
          "name": "",
          "type": "bool"
        }
      ],
      "stateMutability": "view",
      "type": "function"
    },
    {
      "inputs": [
        {
          "internalType": "address",
          "name": "to",
          "type": "address"
        },
        {
          "internalType": "string",
          "name": "metadataURI",
          "type": "string"
        }
      ],
      "name": "mintNFT",
      "outputs": [
        {
          "internalType": "uint256",
          "name": "tokenId",
          "type": "uint256"
        }
      ],
      "stateMutability": "nonpayable",
      "type": "function"
    },
    {
      "inputs": [
        {
          "internalType": "address",
          "name": "to",
          "type": "address"
        },
        {
          "internalType": "string",
          "name": "stickerName",
          "type": "string"
        },
        {
          "internalType": "string",
          "name": "metadataURI",
          "type": "string"
        },
        {
          "internalType": "enum MooveNFT.StickerCategory",
          "name": "category",
          "type": "uint8"
        },
        {
          "internalType": "enum MooveNFT.StickerRarity",
          "name": "rarity",
          "type": "uint8"
        },
        {
          "internalType": "bool",
          "name": "isLimitedEdition",
          "type": "bool"
        },
        {
          "internalType": "uint256",
          "name": "editionSize",
          "type": "uint256"
        },
        {
          "components": [
            {
              "internalType": "bool",
              "name": "allowColorChange",
              "type": "bool"
            },
            {
              "internalType": "bool",
              "name": "allowTextChange",
              "type": "bool"
            },
            {
              "internalType": "bool",
              "name": "allowSizeChange",
              "type": "bool"
            },
            {
              "internalType": "bool",
              "name": "allowEffectsChange",
              "type": "bool"
            },
            {
              "internalType": "string[]",
              "name": "availableColors",
              "type": "string[]"
            },
            {
              "internalType": "uint256",
              "name": "maxTextLength",
              "type": "uint256"
            }
          ],
          "internalType": "struct MooveNFT.CustomizationOptions",
          "name": "customizationOptions",
          "type": "tuple"
        },
        {
          "internalType": "string",
          "name": "editionName",
          "type": "string"
        },
        {
          "internalType": "address",
          "name": "royaltyRecipient",
          "type": "address"
        },
        {
          "internalType": "uint96",
          "name": "royaltyPercentage",
          "type": "uint96"
        }
      ],
      "name": "mintStickerNFT",
      "outputs": [],
      "stateMutability": "nonpayable",
      "type": "function"
    },
    {
      "inputs": [],
      "name": "name",
      "outputs": [
        {
          "internalType": "string",
          "name": "",
          "type": "string"
        }
      ],
      "stateMutability": "view",
      "type": "function"
    },
    {
      "inputs": [
        {
          "internalType": "uint256",
          "name": "tokenId",
          "type": "uint256"
        }
      ],
      "name": "ownerOf",
      "outputs": [
        {
          "internalType": "address",
          "name": "",
          "type": "address"
        }
      ],
      "stateMutability": "view",
      "type": "function"
    },
    {
      "inputs": [],
      "name": "pause",
      "outputs": [],
      "stateMutability": "nonpayable",
      "type": "function"
    },
    {
      "inputs": [],
      "name": "paused",
      "outputs": [
        {
          "internalType": "bool",
          "name": "",
          "type": "bool"
        }
      ],
      "stateMutability": "view",
      "type": "function"
    },
    {
      "inputs": [
        {
          "internalType": "uint256",
          "name": "tokenId",
          "type": "uint256"
        },
        {
          "internalType": "uint256",
          "name": "salePrice",
          "type": "uint256"
        }
      ],
      "name": "royaltyInfo",
      "outputs": [
        {
          "internalType": "address",
          "name": "",
          "type": "address"
        },
        {
          "internalType": "uint256",
          "name": "",
          "type": "uint256"
        }
      ],
      "stateMutability": "view",
      "type": "function"
    },
    {
      "inputs": [
        {
          "internalType": "address",
          "name": "from",
          "type": "address"
        },
        {
          "internalType": "address",
          "name": "to",
          "type": "address"
        },
        {
          "internalType": "uint256",
          "name": "tokenId",
          "type": "uint256"
        }
      ],
      "name": "safeTransferFrom",
      "outputs": [],
      "stateMutability": "nonpayable",
      "type": "function"
    },
    {
      "inputs": [
        {
          "internalType": "address",
          "name": "from",
          "type": "address"
        },
        {
          "internalType": "address",
          "name": "to",
          "type": "address"
        },
        {
          "internalType": "uint256",
          "name": "tokenId",
          "type": "uint256"
        },
        {
          "internalType": "bytes",
          "name": "data",
          "type": "bytes"
        }
      ],
      "name": "safeTransferFrom",
      "outputs": [],
      "stateMutability": "nonpayable",
      "type": "function"
    },
    {
      "inputs": [
        {
          "internalType": "address",
          "name": "operator",
          "type": "address"
        },
        {
          "internalType": "bool",
          "name": "approved",
          "type": "bool"
        }
      ],
      "name": "setApprovalForAll",
      "outputs": [],
      "stateMutability": "nonpayable",
      "type": "function"
    },
    {
      "inputs": [
        {
          "internalType": "uint256",
          "name": "",
          "type": "uint256"
        }
      ],
      "name": "stickers",
      "outputs": [
        {
          "internalType": "string",
          "name": "name",
          "type": "string"
        },
        {
          "internalType": "string",
          "name": "description",
          "type": "string"
        },
        {
          "internalType": "enum MooveNFT.StickerCategory",
          "name": "category",
          "type": "uint8"
        },
        {
          "internalType": "enum MooveNFT.StickerRarity",
          "name": "rarity",
          "type": "uint8"
        },
        {
          "internalType": "address",
          "name": "creator",
          "type": "address"
        },
        {
          "internalType": "uint32",
          "name": "creationDate",
          "type": "uint32"
        },
        {
          "internalType": "bool",
          "name": "isLimitedEdition",
          "type": "bool"
        },
        {
          "internalType": "uint32",
          "name": "editionSize",
          "type": "uint32"
        },
        {
          "internalType": "uint32",
          "name": "editionNumber",
          "type": "uint32"
        },
        {
          "components": [
            {
              "internalType": "bool",
              "name": "allowColorChange",
              "type": "bool"
            },
            {
              "internalType": "bool",
              "name": "allowTextChange",
              "type": "bool"
            },
            {
              "internalType": "bool",
              "name": "allowSizeChange",
              "type": "bool"
            },
            {
              "internalType": "bool",
              "name": "allowEffectsChange",
              "type": "bool"
            },
            {
              "internalType": "string[]",
              "name": "availableColors",
              "type": "string[]"
            },
            {
              "internalType": "uint256",
              "name": "maxTextLength",
              "type": "uint256"
            }
          ],
          "internalType": "struct MooveNFT.CustomizationOptions",
          "name": "customization",
          "type": "tuple"
        }
      ],
      "stateMutability": "view",
      "type": "function"
    },
    {
      "inputs": [
        {
          "internalType": "bytes4",
          "name": "interfaceId",
          "type": "bytes4"
        }
      ],
      "name": "supportsInterface",
      "outputs": [
        {
          "internalType": "bool",
          "name": "",
          "type": "bool"
        }
      ],
      "stateMutability": "view",
      "type": "function"
    },
    {
      "inputs": [],
      "name": "symbol",
      "outputs": [
        {
          "internalType": "string",
          "name": "",
          "type": "string"
        }
      ],
      "stateMutability": "view",
      "type": "function"
    },
    {
      "inputs": [
        {
          "internalType": "uint256",
          "name": "tokenId",
          "type": "uint256"
        }
      ],
      "name": "tokenURI",
      "outputs": [
        {
          "internalType": "string",
          "name": "",
          "type": "string"
        }
      ],
      "stateMutability": "view",
      "type": "function"
    },
    {
      "inputs": [
        {
          "internalType": "address",
          "name": "from",
          "type": "address"
        },
        {
          "internalType": "address",
          "name": "to",
          "type": "address"
        },
        {
          "internalType": "uint256",
          "name": "tokenId",
          "type": "uint256"
        }
      ],
      "name": "transferFrom",
      "outputs": [],
      "stateMutability": "nonpayable",
      "type": "function"
    },
    {
      "inputs": [],
      "name": "unpause",
      "outputs": [],
      "stateMutability": "nonpayable",
      "type": "function"
    },
    {
      "inputs": [
        {
          "internalType": "uint256",
          "name": "tokenId",
          "type": "uint256"
        },
        {
          "components": [
            {
              "internalType": "bool",
              "name": "allowColorChange",
              "type": "bool"
            },
            {
              "internalType": "bool",
              "name": "allowTextChange",
              "type": "bool"
            },
            {
              "internalType": "bool",
              "name": "allowSizeChange",
              "type": "bool"
            },
            {
              "internalType": "bool",
              "name": "allowEffectsChange",
              "type": "bool"
            },
            {
              "internalType": "string[]",
              "name": "availableColors",
              "type": "string[]"
            },
            {
              "internalType": "uint256",
              "name": "maxTextLength",
              "type": "uint256"
            }
          ],
          "internalType": "struct MooveNFT.CustomizationOptions",
          "name": "newOptions",
          "type": "tuple"
        }
      ],
      "name": "updateCustomizationOptions",
      "outputs": [],
      "stateMutability": "nonpayable",
      "type": "function"
    },
    {
      "inputs": [
        {
          "internalType": "uint256",
          "name": "tokenId",
          "type": "uint256"
        },
        {
          "internalType": "address",
          "name": "recipient",
          "type": "address"
        },
        {
          "internalType": "uint96",
          "name": "feeNumerator",
          "type": "uint96"
        }
      ],
      "name": "updateTokenRoyalty",
      "outputs": [],
      "stateMutability": "nonpayable",
      "type": "function"
    }
  ],
  "transactionHash": "0xfa72879897d9c05e997bb0045e97aaa7c64b3e09a90bd80e810e560d678d86df",
  "args": [
    "Moove Stickers",
    "MOOVE",
    "0x005672EcC14b09A958742B960Ebb76eBE52Be44A"
  ],
  "numDeployments": 1,
  "solcInputHash": "cf9183c5756e95f1fc92655ea94dc824",
  "bytecode": "0x604060a0815234620003fb57620046eb803803806200001e8162000400565b9283398101606082820312620003fb5781516001600160401b039290838111620003fb57826200005091830162000426565b60209283830151858111620003fb5786916200006e91850162000426565b9201516001600160a01b0381169290839003620003fb57815190858211620001c557600254916001938484811c94168015620003f0575b8785101462000302578190601f9485811162000399575b5087908583116001146200032f5760009262000323575b5050600019600383901b1c191690841b176002555b805190868211620001c5576003928354918583811c9316801562000318575b8884101462000302578282859411620002aa575b5087918311600114620002435760009262000237575b505060001982841b1c191690831b1790555b6009558015620001f3576080523315620001db57825180840192831181841017620001c5576101f49284523381520152607d60a21b331760005551614252908162000499823960805181818161047a0152818161062901528181610dbe0152818161222a015281816122d10152818161255101528181612e340152612f580152f35b634e487b7160e01b600052604160045260246000fd5b8251635b6cc80560e11b815260006004820152602490fd5b835162461bcd60e51b815260048101839052601e60248201527f496e76616c69642061636365737320636f6e74726f6c206164647265737300006044820152606490fd5b01519050388062000131565b90859350601f1983169185600052886000209260005b8a8282106200029357505084116200027a575b505050811b01905562000143565b015160001983861b60f8161c191690553880806200026c565b838501518655899790950194938401930162000259565b9091925084600052876000208380860160051c8201928a8710620002f8575b91869589929594930160051c01915b828110620002e85750506200011b565b60008155869550889101620002d8565b92508192620002c9565b634e487b7160e01b600052602260045260246000fd5b92607f169262000107565b015190503880620000d3565b90869350601f198316916002600052896000209260005b8b82821062000382575050841162000368575b505050811b01600255620000e8565b015160001960f88460031b161c1916905538808062000359565b8385015186558a9790950194938401930162000346565b9091506002600052876000208580850160051c8201928a8610620003e6575b918891869594930160051c01915b828110620003d6575050620000bc565b60008155859450889101620003c6565b92508192620003b8565b93607f1693620000a5565b600080fd5b6040519190601f01601f191682016001600160401b03811183821017620001c557604052565b919080601f84011215620003fb5782516001600160401b038111620001c5576020906200045c601f8201601f1916830162000400565b92818452828287010111620003fb5760005b8181106200048457508260009394955001015290565b85810183015184820184015282016200046e56fe608080604052600436101561001357600080fd5b60003560e01c90816301ffc9a7146131395750806306fdde031461308c578063081812fc1461306e578063095ea7b314612f8757806313007d5514612f4257806323b872dd14612f2b5780632a55205a14612ef75780633db93fa014612ec65780633f4ba83a14612de257806342842e0e14612db457806342966c6814612c795780635c975abb14612c565780636352211e14612c26578063676c6d1d1461243557806370a08231146123dc57806373394de5146123845780638456cb591461227f57806386e228d5146121025780638f965d8014611ff457806390a7733514611a5757806391a048ce14611a0457806395d89b4114611922578063a22cb46514611874578063b513ed83146116bd578063b547ba3e14610c9d578063b88d4fde14610c30578063c87b56dd14610bcd578063cb4ecf6614610aff578063d9e5539314610a4b578063e70dbc6a146105a5578063e985e9c51461054f578063eacabe14146103f55763feb6ce691461018a57600080fd5b346103f05760203660031901126103f0576004356040516101aa816133cb565b6060815260606020820152600060408201526000606082015260006080820152600060a0820152600060c0820152600060e08201526000610100820152610120604051916101f7836133e7565b6000835260006020840152600060408401526000606084015260606080840152600060a0840152015261024761024282600052600460205260018060a01b0360406000205416151590565b614077565b600052600c6020526103ec604060002061031e600460405192610269846133cb565b6040516102818161027a818561331b565b038261341d565b84526040516102978161027a816001860161331b565b602085015263ffffffff60028201546102b260ff821661350a565b60ff8116604087015260ff8160081c166102cb8161350a565b6060870152601081901c6001600160a01b0316608087015260b081901c821660a087015260d081901c60ff16151560c087015260d81c1660e0850152600381015463ffffffff1661010085015201613455565b6101208201526040519182916020835261012061036261034c835161014060208801526101608701906131d8565b6020840151868203601f190160408801526131d8565b9160408101516103718161350a565b606086015260608101516103848161350a565b608086015260018060a01b0360808201511660a086015263ffffffff60a08201511660c086015260c0810151151560e086015263ffffffff60e08201511661010086015263ffffffff61010082015116828601520151601f198483030161014085015261352a565b0390f35b600080fd5b346103f05760403660031901126103f05761040e613218565b6024356001600160401b0381116103f05761042d90369060040161328f565b604051632474521560e21b81527f9f2df0fed2c77648de5860a4cc508cd0818c85b8b8a1ab4ceeef8d981c8956a660048201523360248201529192916001600160a01b03906020816044817f000000000000000000000000000000000000000000000000000000000000000086165afa8015610543576020956104bf6104e0926104e694600091610516575b506139b4565b600b54946104cc866139f0565b600b556104d986886139ff565b3691613611565b83613c84565b604051921633827f331d023184405eeb32d693804ea42e04df180882b4d7345e4e5f5e8cbaf4c5b3600080a48152f35b6105369150893d811161053c575b61052e818361341d565b81019061399c565b896104b9565b503d610524565b6040513d6000823e3d90fd5b346103f05760403660031901126103f057610568613218565b61057061322e565b9060018060a01b03809116600052600760205260406000209116600052602052602060ff604060002054166040519015158152f35b346103f0576003196040368201126103f0576001600160401b03602435116103f05760c06024353603918201126103f0576105fa610242600435600052600460205260018060a01b0360406000205416151590565b604051632474521560e21b81526000805160206141fd83398151915260048201523360248201526020816044817f00000000000000000000000000000000000000000000000000000000000000006001600160a01b03165afa80156105435761066a91600091610a2c57506139b4565b600435600052600c60205260406000209061071c600483016106a56106936024356004016140fe565b829060ff801983541691151516179055565b6106cb6106b560248035016140fe565b825461ff00191690151560081b61ff0016178255565b6106f46106dc6044602435016140fe565b825462ff0000191690151560101b62ff000016178255565b6107026064602435016140fe565b815463ff000000191690151560181b63ff00000016179055565b602219016024356084013512156103f0576024356084810135016001600160401b036004820135116103f057600481013560051b360360248201136103f05761076c600482013560058401613f0e565b6024810190600583016000526020600020916000905b600483013582106109245784600660a460243501359101556107d56107b46107af36602435600401613e08565b6141b8565b600435600052600e60205260406000209060ff801983541691151516179055565b6040516020815260e081016107ee6024356004016132bc565b1515602083015261080260248035016132bc565b151560408301526108176044602435016132bc565b1515606083015261082c6064602435016132bc565b15156080830152602435608460243501350191600483013560248401926001600160401b0382116103f0578160051b9081360385136103f05760c060a0850152829052610100808401959184010193919060009036819003604219015b8383106108c75760243560a4013560c08701526004357f27c61ecf1d8d5a93292a2d647ec3c86de6fb24b436daf18279cbb5c907bba3fe87890388a2005b909192939560ff198682030188528635828112156103f057830190604460248301359201916001600160401b0381116103f05780360383136103f0576109136020928392600195613f9e565b980198019301919096939296610889565b6109318160248501613db3565b906001600160401b038211610a16576109548261094e88546132e1565b88613c3d565b600090601f83116001146109a7579261098d8360019594602094879660009261099c575b50508160011b916000199060031b1c19161790565b87555b01940191019092610782565b013590508b80610978565b8660005260206000209160005b601f19851681106109fe57509260209260019592869583601f198116106109e4575b505050831b83018755610990565b0135600019600384901b60f8161c191690558980806109d6565b909260206001819286860135815501940191016109b4565b634e487b7160e01b600052604160045260246000fd5b610a45915060203d60201161053c5761052e818361341d565b836104b9565b346103f0576020806003193601126103f0576001600160a01b03610a6d613218565b16600052600f8152604060002060405190818382549182815201908192600052846000209060005b86828210610aeb578686610aab8288038361341d565b604051928392818401908285525180915260408401929160005b828110610ad457505050500390f35b835185528695509381019392810192600101610ac5565b835485529093019260019283019201610a95565b346103f057610b0d36613279565b90600052600d602052604060002080548210156103f05763ffffffff91610b3391613648565b506103ec6003610bbf835493610bb1604051610b568161027a816001870161331b565b610b8560405193610b7585610b6e816002850161331b565b038661341d565b610b6e604051809881930161331b565b604080516001600160a01b038916815260a098891c90991660208a0152880187905287968701906131d8565b9085820360608701526131d8565b9083820360808501526131d8565b346103f05760203660031901126103f057600435610bea8161382b565b5060005260086020526103ec61027a610c0d60406000206040519283809261331b565b6000604051610c1b81613402565b526040519182916020835260208301906131d8565b346103f05760803660031901126103f057610c49613218565b610c5161322e565b90604435606435926001600160401b0384116103f057366023850112156103f057610c89610c9b943690602481600401359101613611565b92610c95838383613689565b3361384e565b005b346103f057600319610140368201126103f0576004356001600160401b0381116103f057610ccf9036906004016135c6565b906024356001600160401b0381116103f057610cef90369060040161328f565b9190936044356001600160401b0381116103f057610d1190369060040161328f565b91600660643510156103f057600660843510156103f05760c435906001600160401b0382116103f05760c09082360301126103f05760e4356001600160401b0381116103f057610d659036906004016135c6565b610104356001600160a01b03811690036103f0576001600160601b03610124351661012435036103f057604051632474521560e21b81526000805160206141fd83398151915260048201523360248201526020816044817f00000000000000000000000000000000000000000000000000000000000000006001600160a01b03165afa801561054357610dff9160009161169e57506139b4565b610e07613de5565b8088036116615760a43588116116255760005b888110610e28576001600955005b600581901b8701356001600160a01b03811690036103f0578181101561160f57610e578160051b840184613db3565b9190600582901b8901356001600160a01b0316156115ca57891561159557821561155b57600b90815491610e8a836139f0565b9055610e97368c8f613611565b60009033600052600f6020526040600020906000918054925b8381106114c057505050506001810181116114aa5763ffffffff60018f92610eef8f948e610ee68f92604051986104d98a6133cb565b87523691613611565b6020850152610eff60643561350a565b6064356040850152610f1260843561350a565b608435606085015233608085015282421660a08501528160c08501528260a4351660e08501520116610100820152610f4d3689600401613e08565b61012082015282600052600c60205260406000209080518051906001600160401b038211610a1657610f8982610f8386546132e1565b86613c3d565b602090601f831160011461143e57610fb99291600091836113515750508160011b916000199060031b1c19161790565b82555b60208101518051906001600160401b038211610a1657610fec82610fe360018701546132e1565b60018701613c3d565b602090601f83116001146113cc5761101c9291600091836113515750508160011b916000199060031b1c19161790565b60018301555b6002820160408201516110348161350a565b61103d8161350a565b8154606084015161104d8161350a565b6110568161350a565b62010000600160b01b03608086015160101b1663ffffffff60b01b60a087015160b01b169161ff0060ff60d01b60c0890151151560d01b169460ff63ffffffff60d81b60e08b015160d81b1697169060ff60f81b16179160081b16171717171790556003820163ffffffff6101008301511663ffffffff1982541617905561114e61012060048401920151916110fb83511515829060ff801983541691151516179055565b6020830151815461ff00191690151560081b61ff00161781556040830151815462ff0000191690151560101b62ff0000161781556060830151815463ff000000191690151560181b63ff00000016179055565b60058201608082015160208151916111668385613f0e565b019160005260206000206000925b8284106112e9575050505060a060069101519101556111bb61119c6107af368a600401613e08565b83600052600e60205260406000209060ff801983541691151516179055565b33600052600f6020526040600020805491600160401b831015610a16576001956104d9858e611212826111f989611238998e61123e9c0181556132c9565b90919082549060031b91821b91600019901b1916179055565b6101043560a08b901b8b900316801515906112d4575b6112be575b8860051b01356139ff565b82613c84565b60405190608082526112558d8c6080850191613f9e565b9061126160643561350a565b606435602084015261127460843561350a565b60843560408401528460608401527f082c734a2e40d67c6b11dfd884b515a63e994959939a1de369876f22e296da03858060a01b038560051b8d013516938033940390a401610e1a565b6112cf610124356101043584613fbf565b61122d565b506001600160601b0361012435161515611228565b80518051906001600160401b038211610a165761130a82610f8386546132e1565b602090601f831160011461135c5792611342836001959460209487966000926113515750508160011b916000199060031b1c19161790565b85555b01920193019290611174565b015190503880610978565b908460005260206000209160005b601f19851681106113b4575083602093600196938796938794601f1981161061139b575b505050811b018555611345565b015160001960f88460031b161c1916905538808061138e565b9192602060018192868501518155019401920161136a565b9190600185016000526020600020906000935b601f1984168510611423576001945083601f1981161061140a575b505050811b016001830155611022565b015160001960f88460031b161c191690553880806113fa565b818101518355602094850194600190930192909101906113df565b9190846000526020600020906000935b601f198416851061148f576001945083601f19811610611476575b505050811b018255610fbc565b015160001960f88460031b161c19169055388080611469565b8181015183556020948501946001909301929091019061144e565b634e487b7160e01b600052601160045260246000fd5b6114ca81836132c9565b90549060031b1c600052600c6020526040600020600281015460ff8160d01c16918261152f575b508161151a575b50611506575b600101610eb0565b936115126001916139f0565b9490506114fe565b60d81c63ffffffff1660a435149050386114f8565b61027a919250611545906040519283809261331b565b60208151910120845160208601201490386114f1565b60405162461bcd60e51b8152602060048201526012602482015271151bdad95b88155492481c995c5d5a5c995960721b6044820152606490fd5b60405162461bcd60e51b815260206004820152600d60248201526c13985b59481c995c5d5a5c9959609a1b6044820152606490fd5b60405162461bcd60e51b815260206004820152601960248201527f496e76616c696420726563697069656e742061646472657373000000000000006044820152606490fd5b634e487b7160e01b600052603260045260246000fd5b60405162461bcd60e51b8152602060048201526014602482015273457863656564732065646974696f6e2073697a6560601b6044820152606490fd5b60405162461bcd60e51b8152602060048201526015602482015274082e4e4c2f240d8cadccee8d040dad2e6dac2e8c6d605b1b6044820152606490fd5b6116b7915060203d60201161053c5761052e818361341d565b8b6104b9565b346103f0576020806003193601126103f0576004356116f461024282600052600460205260018060a01b0360406000205416151590565b600052600d815260406000209081549161170d8361343e565b9261171b604051948561341d565b8084528284018092600052836000206000915b8383106117eb5750505050604051918083019381845251809452604083019360408160051b85010192916000955b8287106117695785850386f35b9091929382806117db600193603f198a820301865288516117c86117b560a0888060a01b03845116855263ffffffff8785015116878601526040840151908060408701528501906131d8565b60608084015190858303908601526131d8565b91608080920151918184039101526131d8565b960192019601959291909261175c565b600486600192604099989951611800816133b0565b63ffffffff8654868060a01b038116835260a01c168382015260405161182c8161027a81898b0161331b565b60408201526040516118458161027a8160028b0161331b565b606082015260405161185e8161027a8160038b0161331b565b608082015281520192019201919095949561172e565b346103f05760403660031901126103f05761188d613218565b60243590811515908183036103f0576001600160a01b0316918215611909576118db9033600052600760205260406000208460005260205260406000209060ff801983541691151516179055565b6040519081527f17307eab39ab6107e8899845ad3d59bd9653f200f220920489ca2b5937696c3160203392a3005b604051630b61174360e31b815260048101849052602490fd5b346103f05760003660031901126103f057604051600354600082611945836132e1565b918282526020936001908582821691826000146119e4575050600114611987575b506119739250038361341d565b6103ec6040519282849384528301906131d8565b84915060036000527fc2575a0e9e593c00f959f8c92f12db2869c3395a3b0502d05e2516446f71f85b906000915b8583106119cc575050611973935082010185611966565b805483890185015287945086939092019181016119b5565b60ff19168582015261197395151560051b85010192508791506119669050565b346103f05760203660031901126103f057600435611a3a61024282600052600460205260018060a01b0360406000205416151590565b600052600e602052602060ff604060002054166040519015158152f35b346103f05760803660031901126103f0576024356001600160401b0381116103f057611a8790369060040161328f565b906044356001600160401b0381116103f057611aa790369060040161328f565b916064356001600160401b0381116103f057611ac790369060040161328f565b9490611aed610242600435600052600460205260018060a01b0360406000205416151590565b611af860043561382b565b6001600160a01b031633148015611fd8575b8015611f93575b611b1a906140ba565b600435600052600e60205260ff6040600020541615611f4e57611b3b613de5565b600435600052600d60205260406000209560405196611b59886133b0565b33885263ffffffff42166020890152611b73368587613611565b6040890152604051611b8481613402565b600081526060890152611b98368888613611565b60808901528054600160401b811015610a1657611bba91600182018155613648565b979097611f385780518854602083015163ffffffff60a01b60a09190911b166001600160a01b039092166001600160c01b03199091161717885560408101518051906001600160401b038211610a1657611c2482611c1b60018d01546132e1565b60018d01613c3d565b602090601f8311600114611ec657611c54929160009183611ebb5750508160011b916000199060031b1c19161790565b60018901555b60608101518051906001600160401b038211610a1657611c8a82611c8160028d01546132e1565b60028d01613c3d565b602090601f8311600114611e48579180611cbe9260809594600092611e3d5750508160011b916000199060031b1c19161790565b60028a01555b01519687516001600160401b038111610a1657611cf181611ce860038501546132e1565b60038501613c3d565b6020601f8211600114611da357916003611d4f83611d599694611d6198967fab73a4d1a16ddb7b5e9a1cdf21f3fced6fce2061955c38656d7f7c96090ab2219c9d9e600092611d985750508160011b916000199060031b1c19161790565b9101553691613611565b600435613c84565b611d8e611d7b604051938493604085526040850191613f9e565b8281036020840152339660043596613f9e565b0390a36001600955005b015190508e80610978565b6003830160005260206000209960005b601f1984168110611e2557506001837fab73a4d1a16ddb7b5e9a1cdf21f3fced6fce2061955c38656d7f7c96090ab2219a9b9c611d61989694600394611d599997601f19811610611e0d575b505050811b019101556104d9565b015160001983861b60f8161c191690558d8080611dff565b828201518c556001909b019a60209283019201611db3565b015190508c80610978565b9060028b0160005260206000209160005b601f1985168110611ea3575091839160019360809695601f19811610611e8a575b505050811b0160028a0155611cc4565b015160001960f88460031b161c191690558b8080611e7a565b91926020600181928685015181550194019201611e59565b015190508b80610978565b919060018b016000526020600020906000935b601f1984168510611f1d576001945083601f19811610611f04575b505050811b016001890155611c5a565b015160001960f88460031b161c191690558a8080611ef4565b81810151835560209485019460019093019290910190611ed9565b634e487b7160e01b600052600060045260246000fd5b60405162461bcd60e51b815260206004820152601860248201527f537469636b6572206e6f7420637573746f6d697a61626c6500000000000000006044820152606490fd5b50611b1a611fd133611fa660043561382b565b60018060a01b0380911660005260076020526040600020911660005260205260ff6040600020541690565b9050611b11565b50336001600160a01b03611fed600435613664565b1614611b0a565b346103f05760203660031901126103f057600435600052600c60205261208c60406000206103ec604051916120348361202d818461331b565b038461341d565b6040516120488161027a816001860161331b565b60028201549160ff83169260ff8160081c169063ffffffff9161209a6120776004856003880154169601613455565b956040519a8b9a610140808d528c01906131d8565b908a820360208c01526131d8565b956120a48161350a565b60408901526120b28161350a565b6060880152601081901c6001600160a01b0316608088015260b081901c821660a088015260d081901c60ff16151560c088015260d81c1660e086015261010085015283820361012085015261352a565b346103f05760603660031901126103f05760043561211e61322e565b604435916001600160601b038316918284036103f057600082815260046020526040902054612157906001600160a01b03161515614077565b81600052602090600c825260018060a01b03908160026040600020015460101c16331480156121fb575b156121bf576121b4849596827f19dc52c4a51cd356464f1965b7872ac6388fb669cee13a05e1ded99b903127a396613fbf565b6040519586521693a3005b60405162461bcd60e51b81526004810184905260146024820152732737ba1031b932b0ba37b91037b91030b236b4b760611b6044820152606490fd5b50604051632474521560e21b81526000805160206141fd833981519152600482015233602482015283816044817f000000000000000000000000000000000000000000000000000000000000000087165afa90811561054357600091612262575b50612181565b6122799150843d861161053c5761052e818361341d565b8761225c565b346103f05760003660031901126103f057604051632474521560e21b81527f65d7a28e3265b37a6474929f336521b332c1681b933f6cb9f3376673440d862a60048201523360248201526020816044817f00000000000000000000000000000000000000000000000000000000000000006001600160a01b03165afa8015610543576123129160009161236657506139b4565b600a5460ff81166123545760019060ff191617600a557f62e78cea01bee320cd4e420270b5ea74000d11b0c9f74754ebdbfc544b05a2586020604051338152a1005b60405163d93c066560e01b8152600490fd5b61237e915060203d811161053c5761052e818361341d565b826104b9565b346103f05760403660031901126103f05761239d613218565b6001600160a01b03166000908152600f60205260409020805460243591908210156103f0576020916123ce916132c9565b90546040519160031b1c8152f35b346103f05760203660031901126103f0576001600160a01b036123fd613218565b16801561241c5760005260056020526020604060002054604051908152f35b6040516322718ad960e21b815260006004820152602490fd5b346103f057600319610160368201126103f057612450613218565b6024356001600160401b0381116103f05761246f90369060040161328f565b926044356001600160401b0381116103f05761248f90369060040161328f565b919092600660643510156103f057600660843510156103f05760a435151560a435036103f05760e435916001600160401b0383116103f05760c09083360301126103f057610104356001600160401b0381116103f0576124f390369060040161328f565b9093909290610124356001600160a01b03811690036103f0576001600160601b03610144351661014435036103f057604051632474521560e21b81526000805160206141fd83398151915260048201523360248201526020816044817f00000000000000000000000000000000000000000000000000000000000000006001600160a01b03165afa80156105435761259291600091612c0757506139b4565b6001600160a01b038716156115ca57871561159557831561155b57600b54956125ba876139f0565b600b5560a43515612bf6576125d0368a86613611565b9060009133600052600f6020526040600020906000918054925b838110612b5b57505050506001820182116114aa5761262e600163ffffffff9301915b6040519461261a866133cb565b612625368e8a613611565b86523691613611565b602084015261263e60643561350a565b606435604084015261265160843561350a565b608435606084015233608084015281421660a084015260a435151560c08401528160c4351660e08401521661010082015261268f3683600401613e08565b61012082015285600052600c60205260406000209080518051906001600160401b038211610a16576126c582610f8386546132e1565b602090601f8311600114612aef576126f5929160009183611e3d5750508160011b916000199060031b1c19161790565b82555b60208101518051906001600160401b038211610a165761271f82610fe360018701546132e1565b602090601f8311600114612a7d5761274f929160009183611e3d5750508160011b916000199060031b1c19161790565b60018301555b6002820160408201516127678161350a565b6127708161350a565b815460608401516127808161350a565b6127898161350a565b62010000600160b01b03608086015160101b1663ffffffff60b01b60a087015160b01b169161ff0060ff60d01b60c0890151151560d01b169460ff63ffffffff60d81b60e08b015160d81b1697169060ff60f81b16179160081b16171717171790556003820163ffffffff6101008301511663ffffffff1982541617905561282e61012060048401920151916110fb83511515829060ff801983541691151516179055565b60058201608082015160208151916128468385613f0e565b01916000526020600020916000905b8282106129a5575050505061289e9261287f92600660a06107af9401519101553690600401613e08565b85600052600e60205260406000209060ff801983541691151516179055565b33600052600f60205260406000208054600160401b811015610a16577f082c734a2e40d67c6b11dfd884b515a63e994959939a1de369876f22e296da0394612936946128fa886111f98561292497600161291e980181556132c9565b610124356001600160a01b0316151580612990575b61297a575b6104d9888a6139ff565b85613c84565b60405195608087526080870191613f9e565b9261294260643561350a565b606435602086015261295560843561350a565b608435604086015260a435151560608601526001600160a01b031693339381900390a4005b61298b61014435610124358a613fbf565b612914565b506001600160601b036101443516151561290f565b80518051906001600160401b038211610a16576129c68261094e88546132e1565b602090601f8311600114612a0d57926129fe836001959460209487966000926113515750508160011b916000199060031b1c19161790565b87555b01940191019092612855565b908660005260206000209160005b601f1985168110612a65575083602093600196938796938794601f19811610612a4c575b505050811b018755612a01565b015160001960f88460031b161c19169055388080612a3f565b91926020600181928685015181550194019201612a1b565b9190600185016000526020600020906000935b601f1984168510612ad4576001945083601f19811610612abb575b505050811b016001830155612755565b015160001960f88460031b161c191690558b8080612aab565b81810151835560209485019460019093019290910190612a90565b9190846000526020600020906000935b601f1984168510612b40576001945083601f19811610612b27575b505050811b0182556126f8565b015160001960f88460031b161c191690558b8080612b1a565b81810151835560209485019460019093019290910190612aff565b612b6581836132c9565b90549060031b1c600052600c6020526040600020600281015460ff8160d01c169182612bca575b5081612bb5575b50612ba1575b6001016125ea565b94612bad6001916139f0565b959050612b99565b60d81c63ffffffff1660c4351490508f612b93565b61027a919250612be0906040519283809261331b565b6020815191012084516020860120149038612b8c565b63ffffffff9061262e60009161260d565b612c20915060203d60201161053c5761052e818361341d565b8a6104b9565b346103f05760203660031901126103f0576020612c4460043561382b565b6040516001600160a01b039091168152f35b346103f05760003660031901126103f057602060ff600a54166040519015158152f35b346103f05760203660031901126103f057600435612caf61024282600052600460205260018060a01b0360406000205416151590565b612cb88161382b565b6001600160a01b0390811633148015612da1575b8015612d89575b612cdc906140ba565b816000526004602052604060002054168160008215928315612d55575b82825260046020526040822080546001600160a01b03191690557fddf252ad1be2c89b69c2b068fc378daa952ba7f163c4a11628f55a4df523b3ef8280a4612d3d57005b60249060405190637e27328960e01b82526004820152fd5b600083815260066020526040902080546001600160a01b031916905580825260056020526040822082198154019055612cf9565b50612cdc612d9a33611fa68561382b565b9050612cd3565b503381612dad84613664565b1614612ccc565b346103f057610c9b612dc536613244565b9060405192612dd384613402565b60008452610c95838383613689565b346103f05760003660031901126103f057604051632474521560e21b81527f65d7a28e3265b37a6474929f336521b332c1681b933f6cb9f3376673440d862a60048201523360248201526020816044817f00000000000000000000000000000000000000000000000000000000000000006001600160a01b03165afa801561054357612e759160009161236657506139b4565b600a5460ff811615612eb45760ff1916600a557f5db9ee0a495bf2e6ff9c91a7834c1ba4fdd244a5e8aa4e537bd38aeae4b073aa6020604051338152a1005b604051638dfc202b60e01b8152600490fd5b346103f05760203660031901126103f057600435600052600e602052602060ff604060002054166040519015158152f35b346103f057612f0e612f0836613279565b9061410b565b604080516001600160a01b03939093168352602083019190915290f35b346103f057610c9b612f3c36613244565b91613689565b346103f05760003660031901126103f0576040517f00000000000000000000000000000000000000000000000000000000000000006001600160a01b03168152602090f35b346103f05760403660031901126103f057612fa0613218565b602435612fac8161382b565b3315158061305b575b8061302e575b613016576001600160a01b039283169282918491167f8c5be1e5ebec7d5bd14f71427d1e84f3dd0314c0f7b2291e5b200ac8c7c3b925600080a4600090815260066020526040902080546001600160a01b0319169091179055005b60405163a9fbf51f60e01b8152336004820152602490fd5b5060018060a01b038116600052600760205260406000203360005260205260ff6040600020541615612fbb565b506001600160a01b038116331415612fb5565b346103f05760203660031901126103f0576020612c44600435613664565b346103f05760003660031901126103f0576040516002546000826130af836132e1565b918282526020936001908582821691826000146119e45750506001146130dc57506119739250038361341d565b84915060026000527f405787fa12a823e0f2b7631cc41b3ba8828b3321ca811111fa75cd3aa3bb5ace906000915b858310613121575050611973935082010185611966565b8054838901850152879450869390920191810161310a565b346103f05760203660031901126103f0576004359063ffffffff60e01b82168092036103f057602091632483248360e11b811490811561317b575b5015158152f35b6380ac58cd60e01b8114915081156131c7575b811561319c575b5083613174565b63152a902d60e11b8114915081156131b6575b5083613195565b6301ffc9a760e01b149050836131af565b635b5e139f60e01b8114915061318e565b919082519283825260005b848110613204575050826000602080949584010152601f8019910116010190565b6020818301810151848301820152016131e3565b600435906001600160a01b03821682036103f057565b602435906001600160a01b03821682036103f057565b60609060031901126103f0576001600160a01b039060043582811681036103f0579160243590811681036103f0579060443590565b60409060031901126103f0576004359060243590565b9181601f840112156103f0578235916001600160401b0383116103f057602083818601950101116103f057565b359081151582036103f057565b805482101561160f5760005260206000200190600090565b90600182811c92168015613311575b60208310146132fb57565b634e487b7160e01b600052602260045260246000fd5b91607f16916132f0565b80546000939261332a826132e1565b9182825260209360019182811690816000146133915750600114613350575b5050505050565b90939495506000929192528360002092846000945b83861061337d57505050500101903880808080613349565b805485870183015294019385908201613365565b60ff19168685015250505090151560051b010191503880808080613349565b60a081019081106001600160401b03821117610a1657604052565b61014081019081106001600160401b03821117610a1657604052565b60c081019081106001600160401b03821117610a1657604052565b602081019081106001600160401b03821117610a1657604052565b90601f801991011681019081106001600160401b03821117610a1657604052565b6001600160401b038111610a165760051b60200190565b90604091825190613465826133e7565b8193815460ff81161515845260ff602091818160081c16151583870152818160101c1615158487015260181c16151560608501526001908184018054916134ab8361343e565b946134b88151968761341d565b8386526000928352818320908287015b8585106134e8575050505050505060a09160029160808501520154910152565b8684819284516134fc8161027a818a61331b565b8152019301940193916134c8565b6006111561351457565b634e487b7160e01b600052602160045260246000fd5b9060c081019180511515825260208082015115158184015260408201511515604084015260608201511515606084015260808201519360c06080850152845180915260e08401918060e08360051b8701019601926000905b83821061359a57505050505060a08091015191015290565b909192939683806135b760019360df198b82030186528b516131d8565b99019201920190939291613582565b9181601f840112156103f0578235916001600160401b0383116103f0576020808501948460051b0101116103f057565b6001600160401b038111610a1657601f01601f191660200190565b92919261361d826135f6565b9161362b604051938461341d565b8294818452818301116103f0578281602093846000960137010152565b805482101561160f5760005260206000209060021b0190600090565b61366d8161382b565b506000908152600660205260409020546001600160a01b031690565b6001600160a01b03918216929091831561381257600092828452826020956004875260409684888820541696879133151580613779575b509060047fddf252ad1be2c89b69c2b068fc378daa952ba7f163c4a11628f55a4df523b3ef9284613746575b858352600581528b8320805460010190558683525289812080546001600160a01b0319168517905580a416928383036137255750505050565b6064945051926364283d7b60e01b8452600484015260248301526044820152fd5b600087815260066020526040902080546001600160a01b0319169055848352600581528b832080546000190190556136ec565b919394509150806137d1575b15613795578592918791386136c0565b8786886137b2576024915190637e27328960e01b82526004820152fd5b905163177e802f60e01b81523360048201526024810191909152604490fd5b5033871480156137f6575b806137855750858252600681523385898420541614613785565b5086825260078152878220338352815260ff88832054166137dc565b604051633250574960e11b815260006004820152602490fd5b6000818152600460205260409020546001600160a01b0316908115612d3d575090565b909192833b61385e575050505050565b604051630a85bd0160e11b8082526001600160a01b0393841660048301529383166024820152604481019190915260806064820152602095919093169390919083906138ae9060848301906131d8565b039285816000958187895af1849181613958575b50613922575050503d60001461391a573d6138dc816135f6565b906138ea604051928361341d565b81528091843d92013e5b8051928361391557604051633250574960e11b815260048101849052602490fd5b019050fd5b5060606138f4565b919450915063ffffffff60e01b160361394057503880808080613349565b60249060405190633250574960e11b82526004820152fd5b9091508681813d8311613995575b613970818361341d565b8101031261399157516001600160e01b0319811681036139915790386138c2565b8480fd5b503d613966565b908160209103126103f0575180151581036103f05790565b156139bb57565b60405162461bcd60e51b815260206004820152600d60248201526c1058d8d95cdcc819195b9a5959609a1b6044820152606490fd5b60001981146114aa5760010190565b6040805190613a0d82613402565b60008083526001600160a01b0394848616938415613c0e57818352600495602097878952858520541683878215159283613bdb575b81885260058c52888820805460010190558288528a8c5288882080546001600160a01b031916831790557fddf252ad1be2c89b69c2b068fc378daa952ba7f163c4a11628f55a4df523b3ef8880a4613bc4573b613aa3575b50505050505050565b86613ae191859697989994955180938192630a85bd0160e11b96878452338d85015289602485015260448401526080606484015260848301906131d8565b0381878a5af1849181613b84575b50613b4d575050503d600014613b45573d613b09816135f6565b90613b168451928361341d565b81528091863d92013e5b80519485613b3f57505051633250574960e11b81529182015260249150fd5b85925001fd5b506060613b20565b919650915063ffffffff60e01b1603613b6f5750505038808080808080613a9a565b51633250574960e11b81529182015260249150fd5b9091508881813d8311613bbd575b613b9c818361341d565b8101031261399157516001600160e01b031981168103613991579038613aef565b503d613b92565b84516339e3563760e11b8152808801859052602490fd5b600083815260066020526040902080546001600160a01b031916905580885260058c528888208054600019019055613a42565b8351633250574960e11b815260048101849052602490fd5b818110613c31575050565b60008155600101613c26565b9190601f8111613c4c57505050565b613c78926000526020600020906020601f840160051c83019310613c7a575b601f0160051c0190613c26565b565b9091508190613c6b565b9190916000908082526020916008835260408120908551956001600160401b038711613d9f57613cbe87613cb885546132e1565b85613c3d565b8491601f8811600114613d1b5796613d0f9281927ff8e1a15aba9398e019f0b49df1a4fde98ee17ae345cb5f6b5e2c27f5033e8ce79899926113515750508160011b916000199060031b1c19161790565b90555b604051908152a1565b9190601f198816848452868420935b818110613d8857509160019391897ff8e1a15aba9398e019f0b49df1a4fde98ee17ae345cb5f6b5e2c27f5033e8ce7999a9410613d6f575b505050811b019055613d12565b015160001960f88460031b161c19169055388080613d62565b929387600181928786015181550195019301613d2a565b634e487b7160e01b82526041600452602482fd5b903590601e19813603018212156103f057018035906001600160401b0382116103f0576020019181360383136103f057565b600260095414613df6576002600955565b604051633ee5aeb560e01b8152600490fd5b919060c0838203126103f057604092835191613e23836133e7565b8294613e2e836132bc565b8452602090613e3e8285016132bc565b82860152613e4d8185016132bc565b81860152613e5d606085016132bc565b60608601526001600160401b039260808501358481116103f05785019181601f840112156103f057823590613e918261343e565b95613e9e8251978861341d565b828752858088019360051b860101948486116103f057868101935b868510613ed957505050505050505060a091829160808501520135910152565b84358381116103f057820186603f820112156103f0578891613f0388838886809601359101613611565b815201940193613eb9565b600160401b8211610a1657805491808255828110613f2b57505050565b600091825260209081832093840193015b838110613f495750505050565b8083613f57600193546132e1565b80613f65575b505001613f3c565b601f8082118514613f7c57505081555b8338613f5d565b613f9590848452868420920160051c8201858301613c26565b81835555613f75565b908060209392818452848401376000828201840152601f01601f1916010190565b916001600160601b03169061271080831161405357506001600160a01b039081169283156140345760405193604085018581106001600160401b03821117610a165760405284526020840192835260005260016020526040600020925116906001600160601b0360a01b905160a01b16179055565b60449060405190634b4f842960e11b8252600482015260006024820152fd5b83606491846040519263dfd1fc1b60e01b8452600484015260248301526044820152fd5b1561407e57565b60405162461bcd60e51b8152602060048201526014602482015273151bdad95b88191bd95cc81b9bdd08195e1a5cdd60621b6044820152606490fd5b156140c157565b60405162461bcd60e51b8152602060048201526015602482015274139bdd081bdddb995c881bdc88185c1c1c9bdd9959605a1b6044820152606490fd5b3580151581036103f05790565b6000908152600160205260408120549092916001600160a01b0391828116919060a01c82156141a8575b6001600160601b0316948582029582159083880414811715614194576127109484161561416457505050920490565b91955091506101f4808602958604141715614180575033920490565b634e487b7160e01b81526011600452602490fd5b634e487b7160e01b82526011600452602482fd5b508454838116925060a01c614135565b805115908115916141ee575b81156141e0575b81156141d5575090565b606091500151151590565b6040810151151591506141cb565b6020810151151591506141c456fe368a0a902ce0a8be883cdf3d5cbaaae7bbbf3f9f0aa7ad2c137c77c3a72ca6b6a2646970667358221220fbf7def8f3254fc4e66fbca784a5396727c330ed3bb222dd584127dd1172c87f64736f6c63430008150033",
  "devdoc": {
    "details": "NFT contract for customizable stickers - OPTIMIZED for size reduction",
    "errors": {
      "ERC2981InvalidDefaultRoyalty(uint256,uint256)": [
        {
          "details": "The default royalty set is invalid (eg. (numerator / denominator) >= 1)."
        }
      ],
      "ERC2981InvalidDefaultRoyaltyReceiver(address)": [
        {
          "details": "The default royalty receiver is invalid."
        }
      ],
      "ERC2981InvalidTokenRoyalty(uint256,uint256,uint256)": [
        {
          "details": "The royalty set for a specific `tokenId` is invalid (eg. (numerator / denominator) >= 1)."
        }
      ],
      "ERC2981InvalidTokenRoyaltyReceiver(uint256,address)": [
        {
          "details": "The royalty receiver for `tokenId` is invalid."
        }
      ],
      "ERC721IncorrectOwner(address,uint256,address)": [
        {
          "details": "Indicates an error related to the ownership over a particular token. Used in transfers.",
          "params": {
            "owner": "Address of the current owner of a token.",
            "sender": "Address whose tokens are being transferred.",
            "tokenId": "Identifier number of a token."
          }
        }
      ],
      "ERC721InsufficientApproval(address,uint256)": [
        {
          "details": "Indicates a failure with the `operator`s approval. Used in transfers.",
          "params": {
            "operator": "Address that may be allowed to operate on tokens without being their owner.",
            "tokenId": "Identifier number of a token."
          }
        }
      ],
      "ERC721InvalidApprover(address)": [
        {
          "details": "Indicates a failure with the `approver` of a token to be approved. Used in approvals.",
          "params": {
            "approver": "Address initiating an approval operation."
          }
        }
      ],
      "ERC721InvalidOperator(address)": [
        {
          "details": "Indicates a failure with the `operator` to be approved. Used in approvals.",
          "params": {
            "operator": "Address that may be allowed to operate on tokens without being their owner."
          }
        }
      ],
      "ERC721InvalidOwner(address)": [
        {
          "details": "Indicates that an address can't be an owner. For example, `address(0)` is a forbidden owner in ERC-20. Used in balance queries.",
          "params": {
            "owner": "Address of the current owner of a token."
          }
        }
      ],
      "ERC721InvalidReceiver(address)": [
        {
          "details": "Indicates a failure with the token `receiver`. Used in transfers.",
          "params": {
            "receiver": "Address to which tokens are being transferred."
          }
        }
      ],
      "ERC721InvalidSender(address)": [
        {
          "details": "Indicates a failure with the token `sender`. Used in transfers.",
          "params": {
            "sender": "Address whose tokens are being transferred."
          }
        }
      ],
      "ERC721NonexistentToken(uint256)": [
        {
          "details": "Indicates a `tokenId` whose `owner` is the zero address.",
          "params": {
            "tokenId": "Identifier number of a token."
          }
        }
      ],
      "EnforcedPause()": [
        {
          "details": "The operation failed because the contract is paused."
        }
      ],
      "ExpectedPause()": [
        {
          "details": "The operation failed because the contract is not paused."
        }
      ],
      "ReentrancyGuardReentrantCall()": [
        {
          "details": "Unauthorized reentrant call."
        }
      ]
    },
    "events": {
      "Approval(address,address,uint256)": {
        "details": "Emitted when `owner` enables `approved` to manage the `tokenId` token."
      },
      "ApprovalForAll(address,address,bool)": {
        "details": "Emitted when `owner` enables or disables (`approved`) `operator` to manage all of its assets."
      },
      "BatchMetadataUpdate(uint256,uint256)": {
        "details": "This event emits when the metadata of a range of tokens is changed. So that the third-party platforms such as NFT market could timely update the images and related attributes of the NFTs."
      },
      "MetadataUpdate(uint256)": {
        "details": "This event emits when the metadata of a token is changed. So that the third-party platforms such as NFT market could timely update the images and related attributes of the NFT."
      },
      "Paused(address)": {
        "details": "Emitted when the pause is triggered by `account`."
      },
      "Transfer(address,address,uint256)": {
        "details": "Emitted when `tokenId` token is transferred from `from` to `to`."
      },
      "Unpaused(address)": {
        "details": "Emitted when the pause is lifted by `account`."
      }
    },
    "kind": "dev",
    "methods": {
      "approve(address,uint256)": {
        "details": "See {IERC721-approve}."
      },
      "balanceOf(address)": {
        "details": "See {IERC721-balanceOf}."
      },
      "batchMintLimitedEdition(address[],string,string,uint8,uint8,uint256,(bool,bool,bool,bool,string[],uint256),string[],address,uint96)": {
        "details": "Batch mint stickers for limited editions - OPTIMIZED"
      },
      "burn(uint256)": {
        "details": "Burn token - OPTIMIZED"
      },
      "customizeSticker(uint256,string,string,string)": {
        "details": "Customize a sticker - OPTIMIZED"
      },
      "getApproved(uint256)": {
        "details": "See {IERC721-getApproved}."
      },
      "getCreatorStickers(address)": {
        "details": "Get creator stickers - OPTIMIZED"
      },
      "getCustomizationHistory(uint256)": {
        "details": "Get customization history - OPTIMIZED"
      },
      "getSticker(uint256)": {
        "details": "Get sticker details - OPTIMIZED"
      },
      "isApprovedForAll(address,address)": {
        "details": "See {IERC721-isApprovedForAll}."
      },
      "isStickerCustomizable(uint256)": {
        "details": "Check if sticker is customizable - OPTIMIZED"
      },
      "mintNFT(address,string)": {
        "details": "Mint a basic NFT - OPTIMIZED: simplified"
      },
      "mintStickerNFT(address,string,string,uint8,uint8,bool,uint256,(bool,bool,bool,bool,string[],uint256),string,address,uint96)": {
        "details": "Mint a new sticker NFT - OPTIMIZED for size"
      },
      "name()": {
        "details": "See {IERC721Metadata-name}."
      },
      "ownerOf(uint256)": {
        "details": "See {IERC721-ownerOf}."
      },
      "pause()": {
        "details": "Pause contract - OPTIMIZED"
      },
      "paused()": {
        "details": "Returns true if the contract is paused, and false otherwise."
      },
      "royaltyInfo(uint256,uint256)": {
        "details": "Get royalty info - OPTIMIZED: simplified"
      },
      "safeTransferFrom(address,address,uint256)": {
        "details": "See {IERC721-safeTransferFrom}."
      },
      "safeTransferFrom(address,address,uint256,bytes)": {
        "details": "See {IERC721-safeTransferFrom}."
      },
      "setApprovalForAll(address,bool)": {
        "details": "See {IERC721-setApprovalForAll}."
      },
      "supportsInterface(bytes4)": {
        "details": "Required override for ERC721Royalty"
      },
      "symbol()": {
        "details": "See {IERC721Metadata-symbol}."
      },
      "tokenURI(uint256)": {
        "details": "Required override for ERC721URIStorage"
      },
      "transferFrom(address,address,uint256)": {
        "details": "See {IERC721-transferFrom}."
      },
      "unpause()": {
        "details": "Unpause contract - OPTIMIZED"
      },
      "updateCustomizationOptions(uint256,(bool,bool,bool,bool,string[],uint256))": {
        "details": "Update customization options - OPTIMIZED"
      },
      "updateTokenRoyalty(uint256,address,uint96)": {
        "details": "Update token royalty - OPTIMIZED"
      }
    },
    "stateVariables": {
      "DEFAULT_ROYALTY": {
        "details": "Default royalty percentage (500 = 5%) - OPTIMIZED: removed separate variable"
      },
      "_tokenIdCounter": {
        "details": "Counter for token IDs"
      },
      "accessControl": {
        "details": "Reference to access control contract"
      },
      "creatorStickers": {
        "details": "Mapping from creator to their created stickers"
      },
      "customizationHistory": {
        "details": "Mapping from token ID to customization history"
      },
      "isCustomizable": {
        "details": "Mapping to track if sticker is customizable"
      },
      "stickers": {
        "details": "Mapping from token ID to sticker details"
      }
    },
    "title": "MooveNFT",
    "version": 1
  },
  "userdoc": {
    "kind": "user",
    "methods": {},
    "notice": "These NFTs represent customizable stickers created by admins for auction system",
    "version": 1
  },
  "storageLayout": {
    "storage": [
      {
        "astId": 1939,
        "contract": "contracts/MooveNFT.sol:MooveNFT",
        "label": "_defaultRoyaltyInfo",
        "offset": 0,
        "slot": "0",
        "type": "t_struct(RoyaltyInfo)1936_storage"
      },
      {
        "astId": 1944,
        "contract": "contracts/MooveNFT.sol:MooveNFT",
        "label": "_tokenRoyaltyInfo",
        "offset": 0,
        "slot": "1",
        "type": "t_mapping(t_uint256,t_struct(RoyaltyInfo)1936_storage)"
      },
      {
        "astId": 600,
        "contract": "contracts/MooveNFT.sol:MooveNFT",
        "label": "_name",
        "offset": 0,
        "slot": "2",
        "type": "t_string_storage"
      },
      {
        "astId": 602,
        "contract": "contracts/MooveNFT.sol:MooveNFT",
        "label": "_symbol",
        "offset": 0,
        "slot": "3",
        "type": "t_string_storage"
      },
      {
        "astId": 606,
        "contract": "contracts/MooveNFT.sol:MooveNFT",
        "label": "_owners",
        "offset": 0,
        "slot": "4",
        "type": "t_mapping(t_uint256,t_address)"
      },
      {
        "astId": 610,
        "contract": "contracts/MooveNFT.sol:MooveNFT",
        "label": "_balances",
        "offset": 0,
        "slot": "5",
        "type": "t_mapping(t_address,t_uint256)"
      },
      {
        "astId": 614,
        "contract": "contracts/MooveNFT.sol:MooveNFT",
        "label": "_tokenApprovals",
        "offset": 0,
        "slot": "6",
        "type": "t_mapping(t_uint256,t_address)"
      },
      {
        "astId": 620,
        "contract": "contracts/MooveNFT.sol:MooveNFT",
        "label": "_operatorApprovals",
        "offset": 0,
        "slot": "7",
        "type": "t_mapping(t_address,t_mapping(t_address,t_bool))"
      },
      {
        "astId": 1716,
        "contract": "contracts/MooveNFT.sol:MooveNFT",
        "label": "_tokenURIs",
        "offset": 0,
        "slot": "8",
        "type": "t_mapping(t_uint256,t_string_storage)"
      },
      {
        "astId": 2387,
        "contract": "contracts/MooveNFT.sol:MooveNFT",
        "label": "_status",
        "offset": 0,
        "slot": "9",
        "type": "t_uint256"
      },
      {
        "astId": 2277,
        "contract": "contracts/MooveNFT.sol:MooveNFT",
        "label": "_paused",
        "offset": 0,
        "slot": "10",
        "type": "t_bool"
      },
      {
        "astId": 13217,
        "contract": "contracts/MooveNFT.sol:MooveNFT",
        "label": "_tokenIdCounter",
        "offset": 0,
        "slot": "11",
        "type": "t_uint256"
      },
      {
        "astId": 13223,
        "contract": "contracts/MooveNFT.sol:MooveNFT",
        "label": "stickers",
        "offset": 0,
        "slot": "12",
        "type": "t_mapping(t_uint256,t_struct(StickerNFT)13269_storage)"
      },
      {
        "astId": 13230,
        "contract": "contracts/MooveNFT.sol:MooveNFT",
        "label": "customizationHistory",
        "offset": 0,
        "slot": "13",
        "type": "t_mapping(t_uint256,t_array(t_struct(CustomizationHistory)13294_storage)dyn_storage)"
      },
      {
        "astId": 13235,
        "contract": "contracts/MooveNFT.sol:MooveNFT",
        "label": "isCustomizable",
        "offset": 0,
        "slot": "14",
        "type": "t_mapping(t_uint256,t_bool)"
      },
      {
        "astId": 13241,
        "contract": "contracts/MooveNFT.sol:MooveNFT",
        "label": "creatorStickers",
        "offset": 0,
        "slot": "15",
        "type": "t_mapping(t_address,t_array(t_uint256)dyn_storage)"
      }
    ],
    "types": {
      "t_address": {
        "encoding": "inplace",
        "label": "address",
        "numberOfBytes": "20"
      },
      "t_array(t_string_storage)dyn_storage": {
        "base": "t_string_storage",
        "encoding": "dynamic_array",
        "label": "string[]",
        "numberOfBytes": "32"
      },
      "t_array(t_struct(CustomizationHistory)13294_storage)dyn_storage": {
        "base": "t_struct(CustomizationHistory)13294_storage",
        "encoding": "dynamic_array",
        "label": "struct MooveNFT.CustomizationHistory[]",
        "numberOfBytes": "32"
      },
      "t_array(t_uint256)dyn_storage": {
        "base": "t_uint256",
        "encoding": "dynamic_array",
        "label": "uint256[]",
        "numberOfBytes": "32"
      },
      "t_bool": {
        "encoding": "inplace",
        "label": "bool",
        "numberOfBytes": "1"
      },
      "t_enum(StickerCategory)13301": {
        "encoding": "inplace",
        "label": "enum MooveNFT.StickerCategory",
        "numberOfBytes": "1"
      },
      "t_enum(StickerRarity)13308": {
        "encoding": "inplace",
        "label": "enum MooveNFT.StickerRarity",
        "numberOfBytes": "1"
      },
      "t_mapping(t_address,t_array(t_uint256)dyn_storage)": {
        "encoding": "mapping",
        "key": "t_address",
        "label": "mapping(address => uint256[])",
        "numberOfBytes": "32",
        "value": "t_array(t_uint256)dyn_storage"
      },
      "t_mapping(t_address,t_bool)": {
        "encoding": "mapping",
        "key": "t_address",
        "label": "mapping(address => bool)",
        "numberOfBytes": "32",
        "value": "t_bool"
      },
      "t_mapping(t_address,t_mapping(t_address,t_bool))": {
        "encoding": "mapping",
        "key": "t_address",
        "label": "mapping(address => mapping(address => bool))",
        "numberOfBytes": "32",
        "value": "t_mapping(t_address,t_bool)"
      },
      "t_mapping(t_address,t_uint256)": {
        "encoding": "mapping",
        "key": "t_address",
        "label": "mapping(address => uint256)",
        "numberOfBytes": "32",
        "value": "t_uint256"
      },
      "t_mapping(t_uint256,t_address)": {
        "encoding": "mapping",
        "key": "t_uint256",
        "label": "mapping(uint256 => address)",
        "numberOfBytes": "32",
        "value": "t_address"
      },
      "t_mapping(t_uint256,t_array(t_struct(CustomizationHistory)13294_storage)dyn_storage)": {
        "encoding": "mapping",
        "key": "t_uint256",
        "label": "mapping(uint256 => struct MooveNFT.CustomizationHistory[])",
        "numberOfBytes": "32",
        "value": "t_array(t_struct(CustomizationHistory)13294_storage)dyn_storage"
      },
      "t_mapping(t_uint256,t_bool)": {
        "encoding": "mapping",
        "key": "t_uint256",
        "label": "mapping(uint256 => bool)",
        "numberOfBytes": "32",
        "value": "t_bool"
      },
      "t_mapping(t_uint256,t_string_storage)": {
        "encoding": "mapping",
        "key": "t_uint256",
        "label": "mapping(uint256 => string)",
        "numberOfBytes": "32",
        "value": "t_string_storage"
      },
      "t_mapping(t_uint256,t_struct(RoyaltyInfo)1936_storage)": {
        "encoding": "mapping",
        "key": "t_uint256",
        "label": "mapping(uint256 => struct ERC2981.RoyaltyInfo)",
        "numberOfBytes": "32",
        "value": "t_struct(RoyaltyInfo)1936_storage"
      },
      "t_mapping(t_uint256,t_struct(StickerNFT)13269_storage)": {
        "encoding": "mapping",
        "key": "t_uint256",
        "label": "mapping(uint256 => struct MooveNFT.StickerNFT)",
        "numberOfBytes": "32",
        "value": "t_struct(StickerNFT)13269_storage"
      },
      "t_string_storage": {
        "encoding": "bytes",
        "label": "string",
        "numberOfBytes": "32"
      },
      "t_struct(CustomizationHistory)13294_storage": {
        "encoding": "inplace",
        "label": "struct MooveNFT.CustomizationHistory",
        "members": [
          {
            "astId": 13285,
            "contract": "contracts/MooveNFT.sol:MooveNFT",
            "label": "customizer",
            "offset": 0,
            "slot": "0",
            "type": "t_address"
          },
          {
            "astId": 13287,
            "contract": "contracts/MooveNFT.sol:MooveNFT",
            "label": "timestamp",
            "offset": 20,
            "slot": "0",
            "type": "t_uint32"
          },
          {
            "astId": 13289,
            "contract": "contracts/MooveNFT.sol:MooveNFT",
            "label": "changeDescription",
            "offset": 0,
            "slot": "1",
            "type": "t_string_storage"
          },
          {
            "astId": 13291,
            "contract": "contracts/MooveNFT.sol:MooveNFT",
            "label": "previousState",
            "offset": 0,
            "slot": "2",
            "type": "t_string_storage"
          },
          {
            "astId": 13293,
            "contract": "contracts/MooveNFT.sol:MooveNFT",
            "label": "newState",
            "offset": 0,
            "slot": "3",
            "type": "t_string_storage"
          }
        ],
        "numberOfBytes": "128"
      },
      "t_struct(CustomizationOptions)13283_storage": {
        "encoding": "inplace",
        "label": "struct MooveNFT.CustomizationOptions",
        "members": [
          {
            "astId": 13271,
            "contract": "contracts/MooveNFT.sol:MooveNFT",
            "label": "allowColorChange",
            "offset": 0,
            "slot": "0",
            "type": "t_bool"
          },
          {
            "astId": 13273,
            "contract": "contracts/MooveNFT.sol:MooveNFT",
            "label": "allowTextChange",
            "offset": 1,
            "slot": "0",
            "type": "t_bool"
          },
          {
            "astId": 13275,
            "contract": "contracts/MooveNFT.sol:MooveNFT",
            "label": "allowSizeChange",
            "offset": 2,
            "slot": "0",
            "type": "t_bool"
          },
          {
            "astId": 13277,
            "contract": "contracts/MooveNFT.sol:MooveNFT",
            "label": "allowEffectsChange",
            "offset": 3,
            "slot": "0",
            "type": "t_bool"
          },
          {
            "astId": 13280,
            "contract": "contracts/MooveNFT.sol:MooveNFT",
            "label": "availableColors",
            "offset": 0,
            "slot": "1",
            "type": "t_array(t_string_storage)dyn_storage"
          },
          {
            "astId": 13282,
            "contract": "contracts/MooveNFT.sol:MooveNFT",
            "label": "maxTextLength",
            "offset": 0,
            "slot": "2",
            "type": "t_uint256"
          }
        ],
        "numberOfBytes": "96"
      },
      "t_struct(RoyaltyInfo)1936_storage": {
        "encoding": "inplace",
        "label": "struct ERC2981.RoyaltyInfo",
        "members": [
          {
            "astId": 1933,
            "contract": "contracts/MooveNFT.sol:MooveNFT",
            "label": "receiver",
            "offset": 0,
            "slot": "0",
            "type": "t_address"
          },
          {
            "astId": 1935,
            "contract": "contracts/MooveNFT.sol:MooveNFT",
            "label": "royaltyFraction",
            "offset": 20,
            "slot": "0",
            "type": "t_uint96"
          }
        ],
        "numberOfBytes": "32"
      },
      "t_struct(StickerNFT)13269_storage": {
        "encoding": "inplace",
        "label": "struct MooveNFT.StickerNFT",
        "members": [
          {
            "astId": 13247,
            "contract": "contracts/MooveNFT.sol:MooveNFT",
            "label": "name",
            "offset": 0,
            "slot": "0",
            "type": "t_string_storage"
          },
          {
            "astId": 13249,
            "contract": "contracts/MooveNFT.sol:MooveNFT",
            "label": "description",
            "offset": 0,
            "slot": "1",
            "type": "t_string_storage"
          },
          {
            "astId": 13252,
            "contract": "contracts/MooveNFT.sol:MooveNFT",
            "label": "category",
            "offset": 0,
            "slot": "2",
            "type": "t_enum(StickerCategory)13301"
          },
          {
            "astId": 13255,
            "contract": "contracts/MooveNFT.sol:MooveNFT",
            "label": "rarity",
            "offset": 1,
            "slot": "2",
            "type": "t_enum(StickerRarity)13308"
          },
          {
            "astId": 13257,
            "contract": "contracts/MooveNFT.sol:MooveNFT",
            "label": "creator",
            "offset": 2,
            "slot": "2",
            "type": "t_address"
          },
          {
            "astId": 13259,
            "contract": "contracts/MooveNFT.sol:MooveNFT",
            "label": "creationDate",
            "offset": 22,
            "slot": "2",
            "type": "t_uint32"
          },
          {
            "astId": 13261,
            "contract": "contracts/MooveNFT.sol:MooveNFT",
            "label": "isLimitedEdition",
            "offset": 26,
            "slot": "2",
            "type": "t_bool"
          },
          {
            "astId": 13263,
            "contract": "contracts/MooveNFT.sol:MooveNFT",
            "label": "editionSize",
            "offset": 27,
            "slot": "2",
            "type": "t_uint32"
          },
          {
            "astId": 13265,
            "contract": "contracts/MooveNFT.sol:MooveNFT",
            "label": "editionNumber",
            "offset": 0,
            "slot": "3",
            "type": "t_uint32"
          },
          {
            "astId": 13268,
            "contract": "contracts/MooveNFT.sol:MooveNFT",
            "label": "customization",
            "offset": 0,
            "slot": "4",
            "type": "t_struct(CustomizationOptions)13283_storage"
          }
        ],
        "numberOfBytes": "224"
      },
      "t_uint256": {
        "encoding": "inplace",
        "label": "uint256",
        "numberOfBytes": "32"
      },
      "t_uint32": {
        "encoding": "inplace",
        "label": "uint32",
        "numberOfBytes": "4"
      },
      "t_uint96": {
        "encoding": "inplace",
        "label": "uint96",
        "numberOfBytes": "12"
      }
    }
  }
}