{
  "address": "0x74aAb47A0439B728A5956A1d7faAc6716F1F18Df",
  "abi": [
    {
      "inputs": [
        {
          "internalType": "address",
          "name": "_accessControl",
          "type": "address"
        }
      ],
      "stateMutability": "nonpayable",
      "type": "constructor"
    },
    {
      "inputs": [
        {
          "internalType": "address",
          "name": "sender",
          "type": "address"
        },
        {
          "internalType": "uint256",
          "name": "tokenId",
          "type": "uint256"
        },
        {
          "internalType": "address",
          "name": "owner",
          "type": "address"
        }
      ],
      "name": "ERC721IncorrectOwner",
      "type": "error"
    },
    {
      "inputs": [
        {
          "internalType": "address",
          "name": "operator",
          "type": "address"
        },
        {
          "internalType": "uint256",
          "name": "tokenId",
          "type": "uint256"
        }
      ],
      "name": "ERC721InsufficientApproval",
      "type": "error"
    },
    {
      "inputs": [
        {
          "internalType": "address",
          "name": "approver",
          "type": "address"
        }
      ],
      "name": "ERC721InvalidApprover",
      "type": "error"
    },
    {
      "inputs": [
        {
          "internalType": "address",
          "name": "operator",
          "type": "address"
        }
      ],
      "name": "ERC721InvalidOperator",
      "type": "error"
    },
    {
      "inputs": [
        {
          "internalType": "address",
          "name": "owner",
          "type": "address"
        }
      ],
      "name": "ERC721InvalidOwner",
      "type": "error"
    },
    {
      "inputs": [
        {
          "internalType": "address",
          "name": "receiver",
          "type": "address"
        }
      ],
      "name": "ERC721InvalidReceiver",
      "type": "error"
    },
    {
      "inputs": [
        {
          "internalType": "address",
          "name": "sender",
          "type": "address"
        }
      ],
      "name": "ERC721InvalidSender",
      "type": "error"
    },
    {
      "inputs": [
        {
          "internalType": "uint256",
          "name": "tokenId",
          "type": "uint256"
        }
      ],
      "name": "ERC721NonexistentToken",
      "type": "error"
    },
    {
      "inputs": [],
      "name": "EnforcedPause",
      "type": "error"
    },
    {
      "inputs": [],
      "name": "ExpectedPause",
      "type": "error"
    },
    {
      "inputs": [],
      "name": "ReentrancyGuardReentrantCall",
      "type": "error"
    },
    {
      "anonymous": false,
      "inputs": [
        {
          "indexed": true,
          "internalType": "uint256",
          "name": "tokenId",
          "type": "uint256"
        },
        {
          "indexed": false,
          "internalType": "string",
          "name": "accessCode",
          "type": "string"
        },
        {
          "indexed": true,
          "internalType": "address",
          "name": "user",
          "type": "address"
        }
      ],
      "name": "AccessCodeUsed",
      "type": "event"
    },
    {
      "anonymous": false,
      "inputs": [
        {
          "indexed": true,
          "internalType": "address",
          "name": "owner",
          "type": "address"
        },
        {
          "indexed": true,
          "internalType": "address",
          "name": "approved",
          "type": "address"
        },
        {
          "indexed": true,
          "internalType": "uint256",
          "name": "tokenId",
          "type": "uint256"
        }
      ],
      "name": "Approval",
      "type": "event"
    },
    {
      "anonymous": false,
      "inputs": [
        {
          "indexed": true,
          "internalType": "address",
          "name": "owner",
          "type": "address"
        },
        {
          "indexed": true,
          "internalType": "address",
          "name": "operator",
          "type": "address"
        },
        {
          "indexed": false,
          "internalType": "bool",
          "name": "approved",
          "type": "bool"
        }
      ],
      "name": "ApprovalForAll",
      "type": "event"
    },
    {
      "anonymous": false,
      "inputs": [
        {
          "indexed": false,
          "internalType": "uint256",
          "name": "_fromTokenId",
          "type": "uint256"
        },
        {
          "indexed": false,
          "internalType": "uint256",
          "name": "_toTokenId",
          "type": "uint256"
        }
      ],
      "name": "BatchMetadataUpdate",
      "type": "event"
    },
    {
      "anonymous": false,
      "inputs": [
        {
          "indexed": false,
          "internalType": "uint256",
          "name": "_tokenId",
          "type": "uint256"
        }
      ],
      "name": "MetadataUpdate",
      "type": "event"
    },
    {
      "anonymous": false,
      "inputs": [
        {
          "indexed": true,
          "internalType": "uint256",
          "name": "tokenId",
          "type": "uint256"
        },
        {
          "indexed": false,
          "internalType": "string",
          "name": "accessCode",
          "type": "string"
        },
        {
          "indexed": false,
          "internalType": "string",
          "name": "reason",
          "type": "string"
        }
      ],
      "name": "PassDeactivated",
      "type": "event"
    },
    {
      "anonymous": false,
      "inputs": [
        {
          "indexed": true,
          "internalType": "uint256",
          "name": "tokenId",
          "type": "uint256"
        },
        {
          "indexed": false,
          "internalType": "string",
          "name": "accessCode",
          "type": "string"
        }
      ],
      "name": "PassExpired",
      "type": "event"
    },
    {
      "anonymous": false,
      "inputs": [
        {
          "indexed": false,
          "internalType": "address",
          "name": "account",
          "type": "address"
        }
      ],
      "name": "Paused",
      "type": "event"
    },
    {
      "anonymous": false,
      "inputs": [
        {
          "indexed": true,
          "internalType": "uint256",
          "name": "tokenId",
          "type": "uint256"
        },
        {
          "indexed": true,
          "internalType": "address",
          "name": "to",
          "type": "address"
        },
        {
          "indexed": false,
          "internalType": "enum MooveRentalPass.VehicleType",
          "name": "vehicleType",
          "type": "uint8"
        },
        {
          "indexed": false,
          "internalType": "string",
          "name": "accessCode",
          "type": "string"
        },
        {
          "indexed": false,
          "internalType": "string",
          "name": "location",
          "type": "string"
        },
        {
          "indexed": false,
          "internalType": "uint256",
          "name": "price",
          "type": "uint256"
        }
      ],
      "name": "RentalPassMinted",
      "type": "event"
    },
    {
      "anonymous": false,
      "inputs": [
        {
          "indexed": true,
          "internalType": "address",
          "name": "from",
          "type": "address"
        },
        {
          "indexed": true,
          "internalType": "address",
          "name": "to",
          "type": "address"
        },
        {
          "indexed": true,
          "internalType": "uint256",
          "name": "tokenId",
          "type": "uint256"
        }
      ],
      "name": "Transfer",
      "type": "event"
    },
    {
      "anonymous": false,
      "inputs": [
        {
          "indexed": false,
          "internalType": "address",
          "name": "account",
          "type": "address"
        }
      ],
      "name": "Unpaused",
      "type": "event"
    },
    {
      "inputs": [
        {
          "internalType": "string",
          "name": "",
          "type": "string"
        }
      ],
      "name": "accessCodeToToken",
      "outputs": [
        {
          "internalType": "uint256",
          "name": "",
          "type": "uint256"
        }
      ],
      "stateMutability": "view",
      "type": "function"
    },
    {
      "inputs": [],
      "name": "accessControl",
      "outputs": [
        {
          "internalType": "contract MooveAccessControl",
          "name": "",
          "type": "address"
        }
      ],
      "stateMutability": "view",
      "type": "function"
    },
    {
      "inputs": [
        {
          "internalType": "address",
          "name": "to",
          "type": "address"
        },
        {
          "internalType": "uint256",
          "name": "tokenId",
          "type": "uint256"
        }
      ],
      "name": "approve",
      "outputs": [],
      "stateMutability": "nonpayable",
      "type": "function"
    },
    {
      "inputs": [
        {
          "internalType": "address",
          "name": "owner",
          "type": "address"
        }
      ],
      "name": "balanceOf",
      "outputs": [
        {
          "internalType": "uint256",
          "name": "",
          "type": "uint256"
        }
      ],
      "stateMutability": "view",
      "type": "function"
    },
    {
      "inputs": [
        {
          "internalType": "address[]",
          "name": "recipients",
          "type": "address[]"
        },
        {
          "internalType": "enum MooveRentalPass.VehicleType[]",
          "name": "vehicleTypes",
          "type": "uint8[]"
        },
        {
          "internalType": "string[]",
          "name": "accessCodes",
          "type": "string[]"
        },
        {
          "internalType": "string[]",
          "name": "locations",
          "type": "string[]"
        },
        {
          "internalType": "uint256[]",
          "name": "prices",
          "type": "uint256[]"
        },
        {
          "internalType": "string[]",
          "name": "tokenURIs",
          "type": "string[]"
        }
      ],
      "name": "batchMintRentalPasses",
      "outputs": [],
      "stateMutability": "nonpayable",
      "type": "function"
    },
    {
      "inputs": [
        {
          "internalType": "uint256",
          "name": "tokenId",
          "type": "uint256"
        }
      ],
      "name": "burnRentalPass",
      "outputs": [],
      "stateMutability": "nonpayable",
      "type": "function"
    },
    {
      "inputs": [
        {
          "internalType": "uint256[]",
          "name": "tokenIds",
          "type": "uint256[]"
        }
      ],
      "name": "cleanupExpiredPasses",
      "outputs": [],
      "stateMutability": "nonpayable",
      "type": "function"
    },
    {
      "inputs": [
        {
          "internalType": "uint256",
          "name": "tokenId",
          "type": "uint256"
        },
        {
          "internalType": "string",
          "name": "reason",
          "type": "string"
        }
      ],
      "name": "deactivatePass",
      "outputs": [],
      "stateMutability": "nonpayable",
      "type": "function"
    },
    {
      "inputs": [
        {
          "internalType": "uint256",
          "name": "tokenId",
          "type": "uint256"
        }
      ],
      "name": "getApproved",
      "outputs": [
        {
          "internalType": "address",
          "name": "",
          "type": "address"
        }
      ],
      "stateMutability": "view",
      "type": "function"
    },
    {
      "inputs": [
        {
          "internalType": "address",
          "name": "user",
          "type": "address"
        }
      ],
      "name": "getPassesExpiringSoon",
      "outputs": [
        {
          "internalType": "uint256[]",
          "name": "expiringPasses",
          "type": "uint256[]"
        }
      ],
      "stateMutability": "view",
      "type": "function"
    },
    {
      "inputs": [
        {
          "internalType": "uint256",
          "name": "tokenId",
          "type": "uint256"
        }
      ],
      "name": "getRentalPass",
      "outputs": [
        {
          "components": [
            {
              "internalType": "enum MooveRentalPass.VehicleType",
              "name": "vehicleType",
              "type": "uint8"
            },
            {
              "internalType": "string",
              "name": "accessCode",
              "type": "string"
            },
            {
              "internalType": "uint256",
              "name": "expirationDate",
              "type": "uint256"
            },
            {
              "internalType": "uint256",
              "name": "purchasePrice",
              "type": "uint256"
            },
            {
              "internalType": "string",
              "name": "location",
              "type": "string"
            },
            {
              "internalType": "bool",
              "name": "isActive",
              "type": "bool"
            },
            {
              "internalType": "address",
              "name": "originalOwner",
              "type": "address"
            }
          ],
          "internalType": "struct MooveRentalPass.RentalPass",
          "name": "",
          "type": "tuple"
        }
      ],
      "stateMutability": "view",
      "type": "function"
    },
    {
      "inputs": [
        {
          "internalType": "string",
          "name": "accessCode",
          "type": "string"
        }
      ],
      "name": "getTokenByAccessCode",
      "outputs": [
        {
          "internalType": "uint256",
          "name": "",
          "type": "uint256"
        }
      ],
      "stateMutability": "view",
      "type": "function"
    },
    {
      "inputs": [
        {
          "internalType": "address",
          "name": "user",
          "type": "address"
        }
      ],
      "name": "getUserActivePasses",
      "outputs": [
        {
          "internalType": "uint256[]",
          "name": "",
          "type": "uint256[]"
        }
      ],
      "stateMutability": "view",
      "type": "function"
    },
    {
      "inputs": [
        {
          "internalType": "address",
          "name": "user",
          "type": "address"
        }
      ],
      "name": "getUserActivePassesWithDetails",
      "outputs": [
        {
          "components": [
            {
              "internalType": "enum MooveRentalPass.VehicleType",
              "name": "vehicleType",
              "type": "uint8"
            },
            {
              "internalType": "string",
              "name": "accessCode",
              "type": "string"
            },
            {
              "internalType": "uint256",
              "name": "expirationDate",
              "type": "uint256"
            },
            {
              "internalType": "uint256",
              "name": "purchasePrice",
              "type": "uint256"
            },
            {
              "internalType": "string",
              "name": "location",
              "type": "string"
            },
            {
              "internalType": "bool",
              "name": "isActive",
              "type": "bool"
            },
            {
              "internalType": "address",
              "name": "originalOwner",
              "type": "address"
            }
          ],
          "internalType": "struct MooveRentalPass.RentalPass[]",
          "name": "activePasses",
          "type": "tuple[]"
        }
      ],
      "stateMutability": "view",
      "type": "function"
    },
    {
      "inputs": [
        {
          "internalType": "string",
          "name": "accessCode",
          "type": "string"
        }
      ],
      "name": "isAccessCodeValid",
      "outputs": [
        {
          "internalType": "bool",
          "name": "valid",
          "type": "bool"
        },
        {
          "internalType": "uint256",
          "name": "tokenId",
          "type": "uint256"
        },
        {
          "internalType": "uint256",
          "name": "expirationDate",
          "type": "uint256"
        }
      ],
      "stateMutability": "view",
      "type": "function"
    },
    {
      "inputs": [
        {
          "internalType": "address",
          "name": "owner",
          "type": "address"
        },
        {
          "internalType": "address",
          "name": "operator",
          "type": "address"
        }
      ],
      "name": "isApprovedForAll",
      "outputs": [
        {
          "internalType": "bool",
          "name": "",
          "type": "bool"
        }
      ],
      "stateMutability": "view",
      "type": "function"
    },
    {
      "inputs": [
        {
          "internalType": "uint256",
          "name": "",
          "type": "uint256"
        }
      ],
      "name": "isPassActive",
      "outputs": [
        {
          "internalType": "bool",
          "name": "",
          "type": "bool"
        }
      ],
      "stateMutability": "view",
      "type": "function"
    },
    {
      "inputs": [
        {
          "internalType": "uint256",
          "name": "tokenId",
          "type": "uint256"
        }
      ],
      "name": "isPassExpired",
      "outputs": [
        {
          "internalType": "bool",
          "name": "",
          "type": "bool"
        }
      ],
      "stateMutability": "view",
      "type": "function"
    },
    {
      "inputs": [
        {
          "internalType": "address",
          "name": "to",
          "type": "address"
        },
        {
          "internalType": "enum MooveRentalPass.VehicleType",
          "name": "vehicleType",
          "type": "uint8"
        },
        {
          "internalType": "string",
          "name": "passName",
          "type": "string"
        },
        {
          "internalType": "string",
          "name": "passDescription",
          "type": "string"
        },
        {
          "internalType": "uint256",
          "name": "duration",
          "type": "uint256"
        },
        {
          "internalType": "string",
          "name": "metadataURI",
          "type": "string"
        }
      ],
      "name": "mintRentalPass",
      "outputs": [],
      "stateMutability": "nonpayable",
      "type": "function"
    },
    {
      "inputs": [],
      "name": "name",
      "outputs": [
        {
          "internalType": "string",
          "name": "",
          "type": "string"
        }
      ],
      "stateMutability": "view",
      "type": "function"
    },
    {
      "inputs": [
        {
          "internalType": "uint256",
          "name": "tokenId",
          "type": "uint256"
        }
      ],
      "name": "ownerOf",
      "outputs": [
        {
          "internalType": "address",
          "name": "",
          "type": "address"
        }
      ],
      "stateMutability": "view",
      "type": "function"
    },
    {
      "inputs": [],
      "name": "pause",
      "outputs": [],
      "stateMutability": "nonpayable",
      "type": "function"
    },
    {
      "inputs": [],
      "name": "paused",
      "outputs": [
        {
          "internalType": "bool",
          "name": "",
          "type": "bool"
        }
      ],
      "stateMutability": "view",
      "type": "function"
    },
    {
      "inputs": [
        {
          "internalType": "uint256",
          "name": "",
          "type": "uint256"
        }
      ],
      "name": "rentalPasses",
      "outputs": [
        {
          "internalType": "enum MooveRentalPass.VehicleType",
          "name": "vehicleType",
          "type": "uint8"
        },
        {
          "internalType": "string",
          "name": "accessCode",
          "type": "string"
        },
        {
          "internalType": "uint256",
          "name": "expirationDate",
          "type": "uint256"
        },
        {
          "internalType": "uint256",
          "name": "purchasePrice",
          "type": "uint256"
        },
        {
          "internalType": "string",
          "name": "location",
          "type": "string"
        },
        {
          "internalType": "bool",
          "name": "isActive",
          "type": "bool"
        },
        {
          "internalType": "address",
          "name": "originalOwner",
          "type": "address"
        }
      ],
      "stateMutability": "view",
      "type": "function"
    },
    {
      "inputs": [
        {
          "internalType": "address",
          "name": "from",
          "type": "address"
        },
        {
          "internalType": "address",
          "name": "to",
          "type": "address"
        },
        {
          "internalType": "uint256",
          "name": "tokenId",
          "type": "uint256"
        }
      ],
      "name": "safeTransferFrom",
      "outputs": [],
      "stateMutability": "nonpayable",
      "type": "function"
    },
    {
      "inputs": [
        {
          "internalType": "address",
          "name": "from",
          "type": "address"
        },
        {
          "internalType": "address",
          "name": "to",
          "type": "address"
        },
        {
          "internalType": "uint256",
          "name": "tokenId",
          "type": "uint256"
        },
        {
          "internalType": "bytes",
          "name": "data",
          "type": "bytes"
        }
      ],
      "name": "safeTransferFrom",
      "outputs": [],
      "stateMutability": "nonpayable",
      "type": "function"
    },
    {
      "inputs": [
        {
          "internalType": "address",
          "name": "operator",
          "type": "address"
        },
        {
          "internalType": "bool",
          "name": "approved",
          "type": "bool"
        }
      ],
      "name": "setApprovalForAll",
      "outputs": [],
      "stateMutability": "nonpayable",
      "type": "function"
    },
    {
      "inputs": [
        {
          "internalType": "bytes4",
          "name": "interfaceId",
          "type": "bytes4"
        }
      ],
      "name": "supportsInterface",
      "outputs": [
        {
          "internalType": "bool",
          "name": "",
          "type": "bool"
        }
      ],
      "stateMutability": "view",
      "type": "function"
    },
    {
      "inputs": [],
      "name": "symbol",
      "outputs": [
        {
          "internalType": "string",
          "name": "",
          "type": "string"
        }
      ],
      "stateMutability": "view",
      "type": "function"
    },
    {
      "inputs": [
        {
          "internalType": "uint256",
          "name": "tokenId",
          "type": "uint256"
        }
      ],
      "name": "tokenURI",
      "outputs": [
        {
          "internalType": "string",
          "name": "",
          "type": "string"
        }
      ],
      "stateMutability": "view",
      "type": "function"
    },
    {
      "inputs": [],
      "name": "totalSupply",
      "outputs": [
        {
          "internalType": "uint256",
          "name": "",
          "type": "uint256"
        }
      ],
      "stateMutability": "view",
      "type": "function"
    },
    {
      "inputs": [
        {
          "internalType": "address",
          "name": "from",
          "type": "address"
        },
        {
          "internalType": "address",
          "name": "to",
          "type": "address"
        },
        {
          "internalType": "uint256",
          "name": "tokenId",
          "type": "uint256"
        }
      ],
      "name": "transferFrom",
      "outputs": [],
      "stateMutability": "nonpayable",
      "type": "function"
    },
    {
      "inputs": [],
      "name": "unpause",
      "outputs": [],
      "stateMutability": "nonpayable",
      "type": "function"
    },
    {
      "inputs": [
        {
          "internalType": "address",
          "name": "",
          "type": "address"
        },
        {
          "internalType": "uint256",
          "name": "",
          "type": "uint256"
        }
      ],
      "name": "userActivePasses",
      "outputs": [
        {
          "internalType": "uint256",
          "name": "",
          "type": "uint256"
        }
      ],
      "stateMutability": "view",
      "type": "function"
    },
    {
      "inputs": [
        {
          "internalType": "string",
          "name": "accessCode",
          "type": "string"
        }
      ],
      "name": "validateAndUseAccessCode",
      "outputs": [
        {
          "internalType": "uint256",
          "name": "tokenId",
          "type": "uint256"
        },
        {
          "internalType": "address",
          "name": "owner",
          "type": "address"
        },
        {
          "internalType": "enum MooveRentalPass.VehicleType",
          "name": "vehicleType",
          "type": "uint8"
        }
      ],
      "stateMutability": "nonpayable",
      "type": "function"
    }
  ],
  "transactionHash": "0x87e3e0906caf04aa80b84ff262c9fb2950daebcd78686e90499b64c54de2f1b5",
  "args": [
    "0x005672EcC14b09A958742B960Ebb76eBE52Be44A"
  ],
  "numDeployments": 1,
  "solcInputHash": "cf9183c5756e95f1fc92655ea94dc824",
  "bytecode": "0x60a034620003d557601f19906001600160401b0390601f620036b0388190038281018616840185811185821017620003bf57849282916040528339602093849181010312620003d557516001600160a01b0381169390849003620003d55762000067620003da565b9160118352704d6f6f76652052656e74616c205061737360781b848401526200008f620003da565b600381526204d52560ec1b858201528351838111620003bf576000908154956001968781811c91168015620003b4575b89821014620003a0579081868493116200034d575b508890868311600114620002ec578492620002e0575b5050600019600383901b1c191690861b1781555b8151938411620002cc5784548581811c91168015620002c1575b87821014620002ad5783811162000265575b5085928411600114620002045783949596975092620001f8575b5050600019600383901b1c191690821b1781555b806007556009558115620001b457506080526040516132b59081620003fb823960805181818161022f015281816106e10152818161105a0152818161141a015281816115a60152818161199401528181611b870152611d020152f35b6064906040519062461bcd60e51b82526004820152601e60248201527f496e76616c69642061636365737320636f6e74726f6c206164647265737300006044820152fd5b01519050388062000144565b919096831696848352858320925b8881106200024f575083859697981062000235575b505050811b01815562000158565b015160001960f88460031b161c1916905538808062000227565b8183015184559285019291860191860162000212565b8582528682208480870160051c820192898810620002a3575b0160051c019086905b828110620002975750506200012a565b83815501869062000287565b925081926200027e565b634e487b7160e01b82526022600452602482fd5b90607f169062000118565b634e487b7160e01b81526041600452602490fd5b015190503880620000ea565b908b899416918580528a862092865b8c8282106200033657505084116200031c575b505050811b018155620000fe565b015160001960f88460031b161c191690553880806200030e565b8385015186558c97909501949384019301620002fb565b9091508380528884208680850160051c8201928b861062000396575b918a91869594930160051c01915b82811062000387575050620000d4565b8681558594508a910162000377565b9250819262000369565b634e487b7160e01b84526022600452602484fd5b90607f1690620000bf565b634e487b7160e01b600052604160045260246000fd5b600080fd5b60408051919082016001600160401b03811183821017620003bf5760405256fe608080604052600436101561001357600080fd5b600090813560e01c90816301ffc9a714611f745750806303bdccf014611f1e57806306fdde0314611e51578063081812fc14611e14578063095ea7b314611d3157806313007d5514611cec57806318160ddd14611cac57806323b872dd14611c945780633f4ba83a14611b6757806342842e0e14611b3f5780634532bf441461194357806349e240781461186b5780635c975abb146118485780636352211e1461181757806370a08231146117bf578063715a6a651461155a578063718e4e571461150e5780637dab1516146111775780638456cb591461103857806385f2095c14610f695780638bef7de614610dcb578063907a9f0d14610d7b57806392580f0014610cfc57806395d89b4114610c1e57806396f8a39114610a3f57806398baf18114610a10578063a22cb46514610962578063b88d4fde146108fb578063bda1933d14610615578063c7894670146105cb578063c87b56dd1461055c578063cbc6ae5c146104ba578063e1384d991461038e578063e985e9c51461033a5763f9770942146101a257600080fd5b346103375760c0366003190112610337576101bb611ffb565b6024359060038210156102e9576001600160401b0390604435828111610333576101e99036906004016121a4565b916064358181116102da576102029036906004016121a4565b9060a4359081116102da5761021b9036906004016121a4565b60405163d539139360e01b815290939086907f00000000000000000000000000000000000000000000000000000000000000006001600160a01b0316602082600481845afa9182156103285783926102ed575b50803b156102e95760405163101a2a3160e31b815260048101929092523360248301528290829060449082905afa80156102de576102c6575b50506102be946102b5612700565b6084359361276b565b600160075580f35b6102cf906120d2565b6102da5785386102a7565b8580fd5b6040513d84823e3d90fd5b8280fd5b925090506020823d8211610320575b8161030960209383612131565b8101031261031b57879151903861026e565b600080fd5b3d91506102fc565b6040513d85823e3d90fd5b8480fd5b80fd5b503461033757604036600319011261033757610354611ffb565b604061035e612011565b9260018060a01b0380931681526005602052209116600052602052602060ff604060002054166040519015158152f35b5034610337576020806003193601126104b6576004356001600160401b0381116102e9576103c090369060040161235e565b839291925b8181106103d0578480f35b806103df610408928487612fa9565b358087526002808652604088205486906001600160a01b0390811661040d575b50505050612723565b6103c5565b600a8252896040812091600583019081549560ff8716806104a9575b610437575b505050506103ff565b7f92a9bd5f39abc46ef4ba3a4a67807d122775af1bd832c049c0ca5c29abb9d18b96604061048495600d610499998c9760ff19809616905552209081541690558b5260408d20541661317c565b60405191829189835260018a8401910161228e565b0390a2388085818981808061042e565b5080850154421015610429565b5080fd5b503461033757602036600319011261033757600435906001600160401b0382116103375761050360206104f036600486016121a4565b8160405193828580945193849201612055565b8101600b81520301902054801561051f57602090604051908152f35b60405162461bcd60e51b81526020600482015260156024820152741058d8d95cdcc818dbd919481b9bdd08199bdd5b99605a1b6044820152606490fd5b50346103375760203660031901126103375760043561057a816126dd565b5060005260066020526105c761059d6105a460406000206040519283809261228e565b0382612131565b60006040516105b281612116565b52604051918291602083526020830190612078565b0390f35b503461033757602036600319011261033757600435906001600160401b038211610337576020610602816104f036600487016121a4565b8101600b81520301902054604051908152f35b50346103375760c0366003190112610337576001600160401b036004358181116102e95761064790369060040161235e565b6024929192358281116103335761066290369060040161235e565b90926044358181116108f75761067c90369060040161235e565b916064358181116108f35761069590369060040161235e565b9190946084358281116108ef576106b090369060040161235e565b95909260a4359081116108eb576106cb90369060040161235e565b60405163d539139360e01b815291999093918d907f00000000000000000000000000000000000000000000000000000000000000006001600160a01b0316602082600481845afa9182156103285783926108b5575b50803b156102e95760405163101a2a3160e31b815260048101929092523360248301528290829060449082905afa80156102de5761089d575b5050610763612700565b61076e828214612f65565b610779838214612f65565b610784868214612f65565b61078f888214612f65565b61079a848214612f65565b60328111610861578c5b8181106107b4578d600160075580f35b6107bf81838f612fa9565b35906001600160a01b038216820361085d576107dc81858f612fa9565b35600381101561085957610854928d8d8d61084f946108498f8f908f8f8f8c6108399261082882610820816108188161082f986108419c612fb9565b9b909f612fb9565b9c9097612fa9565b359b612fb9565b989094369161216d565b95369161216d565b94369161216d565b9461276b565b612723565b6107a4565b8f80fd5b8e80fd5b60405162461bcd60e51b815260206004820152601460248201527342617463682073697a6520746f6f206c6172676560601b6044820152606490fd5b6108a6906120d2565b6108b1578c38610759565b8c80fd5b925090506020823d82116108e3575b816108d160209383612131565b8101031261031b578e91519038610720565b3d91506108c4565b8b80fd5b8a80fd5b8880fd5b8680fd5b503461033757608036600319011261033757610915611ffb565b61091d612011565b606435916001600160401b03831161095e573660238401121561095e5761095161095b93369060248160040135910161216d565b916044359161258e565b80f35b8380fd5b50346103375760403660031901126103375761097c611ffb565b602435908115159081830361095e576001600160a01b03169182156109f7576109c8903385526005602052604085208460005260205260406000209060ff801983541691151516179055565b6040519081527f17307eab39ab6107e8899845ad3d59bd9653f200f220920489ca2b5937696c3160203392a380f35b604051630b61174360e31b815260048101849052602490fd5b50346103375760203660031901126103375760ff60406020926004358152600d84522054166040519015158152f35b5034610337576020806003193601126104b6576001600160a01b0380610a63611ffb565b168352600c82526040832091604051808483829654938481520190875283872092875b85828210610c0857505050610a9d92500384612131565b825191610ac2610aac84613151565b93610aba6040519586612131565b808552613151565b601f190182865b828110610bf257505050845b8451811015610b915780610aec610b8c9287613168565b518752600a8452604087208360405191610b05836120fb565b600560ff91610b178382541686612748565b604051610b2b8161059d816001860161228e565b898601526002810154604086015260038101546060860152604051610b578161059d816004860161228e565b60808601520154908116151560a084015260081c1660c0820152610b7b8287613168565b52610b868186613168565b50612723565b610ad5565b505092915060405191838301848452825180915260408401948060408360051b870101940192955b828710610bc65785850386f35b909192938280610be2600193603f198a820301865288516121e5565b9601920196019592919092610bb9565b610bfa613118565b828288010152018390610ac9565b8554845260019586019589955093019201610a86565b50346103375780600319360112610337576040516000600182815492610c4384612254565b92838352602094858282169182600014610cdc575050600114610c82575b50610c6e92500383612131565b6105c7604051928284938452830190612078565b6000818152859250907fb10e2d527612073b26eecdfd717e6a320cf44b4afac2b0732d9fcbe2b7fa0cf65b858310610cc4575050610c6e935082010185610c61565b80548389018501528794508693909201918101610cad565b60ff191685820152610c6e95151560051b8501019250879150610c619050565b5034610337576020806003193601126104b6576001600160a01b03610d1f611ffb565b168252600c815260408220916040518092808554928381520194835280832092905b828210610d64576105c785610d5881890382612131565b60405191829182612323565b835486529485019460019384019390910190610d41565b503461033757602036600319011261033757600435906001600160401b038211610337576060610db6610db136600486016121a4565b612ffa565b90604051921515835260208301526040820152f35b5034610337576020806003193601126104b6576001600160a01b03610dee611ffb565b168252600c81526040822090604051808383829554938481520190865283862092865b85828210610f5357505050610e2892500383612131565b82908362015180420191824211915b8551811015610e9d57610e4a8187613168565b518752600a8252604087206002015483610e8957841015610e74575b610e6f90612723565b610e37565b93610e81610e6f91612723565b949050610e66565b634e487b7160e01b88526011600452602488fd5b50939190610eaa84613151565b93610eb86040519586612131565b808552610ec7601f1991613151565b01368686013785805b8451811015610f4557610ee38186613168565b518252600a8752604082206002015483610f31579084610f08921115610f0d57612723565b610ed0565b610f178187613168565b51610f2b610f248b612723565b9a89613168565b52612723565b634e487b7160e01b83526011600452602483fd5b604051806105c78882612323565b8554845260019586019588955093019201610e11565b5034610337576020366003190112610337576040610fec916004358152600a6020522060ff8154169061101560405191610fb183610faa816001850161228e565b0384612131565b6002810154906003810154610ffd600560405193610fdd85610fd6816004850161228e565b0386612131565b015495604051988980996121c2565b60e0602089015260e0880190612078565b92604087015260608601528482036080860152612078565b60ff8216151560a084015260089190911c6001600160a01b031660c08301520390f35b503461033757806003193601126103375760405163e63ab1e960e01b815281907f00000000000000000000000000000000000000000000000000000000000000006001600160a01b0316602082600481845afa918215610328578392611141575b50803b1561113d5760405163101a2a3160e31b815260048101929092523360248301528290829060449082905afa80156102de57611129575b505060085460ff81166111175760019060ff1916176008557f62e78cea01bee320cd4e420270b5ea74000d11b0c9f74754ebdbfc544b05a2586020604051338152a180f35b60405163d93c066560e01b8152600490fd5b611132906120d2565b6103375780386110d2565b5050fd5b925090506020823d821161116f575b8161115d60209383612131565b8101031261031b578291519038611099565b3d9150611150565b5034610337576020806003193601126104b657600435908183526002815260018060a01b036111ad8160408620541615156130d5565b6111b6836126dd565b81163314801561140a575b156113cc57828452600a825283604081206111e4856111df816126dd565b61317c565b6001809101846040519184908054906111fc82612254565b918681169081156113b55750600114611377575b5050600b815282900301902060009055848252600a84526040822082815560059161123c908201613236565b600060028201556000600382015561125660048201613236565b0155828452600d82526040808520805460ff1916905560008481526002845220548116611327576000839182825260028452604082205416600281159485156112f4575b848452526040822080546001600160a01b03191690557fddf252ad1be2c89b69c2b068fc378daa952ba7f163c4a11628f55a4df523b3ef8280a46112dc575080f35b60249060405190637e27328960e01b82526004820152fd5b600085815260046020526040902080546001600160a01b031916905582845260038152604084208419815401905561129a565b60405162461bcd60e51b815260048101839052602260248201527f52656e74616c2070617373657320617265206e6f6e2d7472616e7366657261626044820152616c6560f01b6064820152608490fd5b9150948094939250528580842084905b86821061139f57509394929350909182018183611210565b8054848301528a95508892909101908401611387565b60ff19168652505080151502830190508183611210565b60405162461bcd60e51b81526004810183905260166024820152752737ba1030baba3437b934bd32b2103a3790313ab93760511b6044820152606490fd5b506040516367ef9e2760e11b81527f00000000000000000000000000000000000000000000000000000000000000008216908381600481855afa801561150357849187916114d2575b50604051632474521560e21b815260048101919091523360248201529182908180604481015b03915afa9081156114c7578591611491575b506111c1565b90508281813d83116114c0575b6114a88183612131565b8101031261033357518015158103610333573861148b565b503d61149e565b6040513d87823e3d90fd5b82819392503d83116114fc575b6114e98183612131565b8101031261031b57518390611479611453565b503d6114df565b6040513d88823e3d90fd5b5034610337576020366003190112610337576002604060209260043580825283855261154660018060a01b03848420541615156130d5565b8152600a8452200154421015604051908152f35b50346103375760209081600319360112610337576004356001600160401b0381116104b65761158d9036906004016121a4565b60405163d539139360e01b81526001600160a01b0392907f000000000000000000000000000000000000000000000000000000000000000084168582600481845afa918215610328578392611790575b50803b156102e95760405163101a2a3160e31b815260048101929092523360248301528290829060449082905afa80156102de5790829161177c575b50506040518481845161162f8183858901612055565b8101600b8152030190205492831561174157838252600a8552604082209160ff600584015416156117075760028301544210156116d357946116d19392857f2f30ad3cf002ea8274ccb9b111ad3d6b44115ab5146947293e2301631e00ac226116bb60ff9560408b8560609d526002885220541695869454169660405191829187835287830190612078565b0390a360405194855284015260408301906121c2565bf35b60405162461bcd60e51b815260048101879052600c60248201526b14185cdcc8195e1c1a5c995960a21b6044820152606490fd5b60405162461bcd60e51b815260048101879052601260248201527150617373206973206e6f742061637469766560701b6044820152606490fd5b60405162461bcd60e51b8152600481018690526013602482015272496e76616c69642061636365737320636f646560681b6044820152606490fd5b611785906120d2565b610337578038611619565b9091508581813d83116117b8575b6117a88183612131565b8101031261031b575190386115dd565b503d61179e565b5034610337576020366003190112610337576001600160a01b036117e1611ffb565b1680156117fe578160409160209352600383522054604051908152f35b6040516322718ad960e21b815260048101839052602490fd5b50346103375760203660031901126103375760206118366004356126dd565b6040516001600160a01b039091168152f35b5034610337578060031936011261033757602060ff600854166040519015158152f35b5034610337576020806003193601126104b65760406004359261188c613118565b5083815260028352818120546001600160a01b0394906118af90861615156130d5565b8152600a835220916005604051936118c6856120fb565b6118d460ff82541686612748565b6040516118e88161059d816001860161228e565b8486015260028101546040860152600381015460608601526040516119148161059d816004860161228e565b6080860152015460ff8116151560a085015260081c1660c08301526105c76040519282849384528301906121e5565b5034610337576040366003190112610337576004356024356001600160401b0381116102e9576119779036906004016121a4565b6040516367ef9e2760e11b81526001600160a01b039160209185907f000000000000000000000000000000000000000000000000000000000000000085168482600481845afa918215610328578392611b0d575b50803b156102e95760405163101a2a3160e31b815260048101929092523360248301528290829060449082905afa80156102de57611af9575b5084905260028252611a1d8360408720541615156130d5565b838552600a825260408520926005840180549060ff821615611abc5792611a9287611ab694611aa997947f1e86927efb2ceb05e033be84dffec1e5e1c55b4639cccb9889345fde9211e7f1999760ff198092169055828c52600d865260408c209081541690556002855260408b20541661317c565b60405194859460408652600160408701910161228e565b9184830390850152612078565b0390a280f35b60405162461bcd60e51b81526004810186905260156024820152745061737320616c726561647920696e61637469766560581b6044820152606490fd5b611b02906120d2565b610333578438611a04565b925090508382813d8111611b38575b611b268183612131565b8101031261031b5786915190386119cb565b503d611b1c565b50346103375761095b611b513661209d565b9060405192611b5f84612116565b85845261258e565b50346103375780600319360112610337576040516367ef9e2760e11b81527f00000000000000000000000000000000000000000000000000000000000000006001600160a01b0316908290602081600481865afa9081156102de578291611c63575b50823b156104b65760405163101a2a3160e31b8152600481019190915233602482015291829060449082905afa80156102de57611c54575b5060085460ff811615611c425760ff19166008557f5db9ee0a495bf2e6ff9c91a7834c1ba4fdd244a5e8aa4e537bd38aeae4b073aa6020604051338152a180f35b604051638dfc202b60e01b8152600490fd5b611c5d906120d2565b38611c01565b90506020813d8211611c8c575b81611c7d60209383612131565b810103126104b6575138611bc9565b3d9150611c70565b50346103375761095b611ca63661209d565b9161238e565b5034610337578060031936011261033757600954600019810191908211611cd857602082604051908152f35b634e487b7160e01b81526011600452602490fd5b50346103375780600319360112610337576040517f00000000000000000000000000000000000000000000000000000000000000006001600160a01b03168152602090f35b503461033757604036600319011261033757611d4b611ffb565b602435611d57816126dd565b33151580611e01575b80611dd6575b611dbe576001600160a01b039283169282918491167f8c5be1e5ebec7d5bd14f71427d1e84f3dd0314c0f7b2291e5b200ac8c7c3b9258680a4825260046020526040822080546001600160a01b031916909117905580f35b60405163a9fbf51f60e01b8152336004820152602490fd5b506001600160a01b038116845260056020908152604080862033875290915284205460ff1615611d66565b506001600160a01b038116331415611d60565b503461033757602036600319011261033757602090600435611e35816126dd565b50815260048252604060018060a01b0391205416604051908152f35b5034610337578060031936011261033757604051908082825491611e7483612254565b92838352602094600191868382169182600014611efc575050600114611ea3575b5050610c6e92500383612131565b908592508180527f290decd9548b62a8d60345a988386fc84ba6bc95484008f6362f93160ef3e5635b858310611ee4575050610c6e93508201013880611e95565b80548389018501528794508693909201918101611ecc565b9250935050610c6e94915060ff191682840152151560051b8201013880611e95565b503461033757604036600319011261033757611f38611ffb565b6001600160a01b03168152600c6020526040812080546024359290831015610337576020611f668484612027565b90546040519160031b1c8152f35b9050346104b65760203660031901126104b65760043563ffffffff60e01b81168091036102e95760209250632483248360e11b8114908115611fb8575b5015158152f35b6380ac58cd60e01b811491508115611fea575b8115611fd9575b5038611fb1565b6301ffc9a760e01b14905038611fd2565b635b5e139f60e01b81149150611fcb565b600435906001600160a01b038216820361031b57565b602435906001600160a01b038216820361031b57565b805482101561203f5760005260206000200190600090565b634e487b7160e01b600052603260045260246000fd5b60005b8381106120685750506000910152565b8181015183820152602001612058565b9060209161209181518092818552858086019101612055565b601f01601f1916010190565b606090600319011261031b576001600160a01b0390600435828116810361031b5791602435908116810361031b579060443590565b6001600160401b0381116120e557604052565b634e487b7160e01b600052604160045260246000fd5b60e081019081106001600160401b038211176120e557604052565b602081019081106001600160401b038211176120e557604052565b90601f801991011681019081106001600160401b038211176120e557604052565b6001600160401b0381116120e557601f01601f191660200190565b92919261217982612152565b916121876040519384612131565b82948184528183011161031b578281602093846000960137010152565b9080601f8301121561031b578160206121bf9335910161216d565b90565b9060038210156121cf5752565b634e487b7160e01b600052602160045260246000fd5b906121f18183516121c2565b60c061223561220f602085015160e0602086015260e0850190612078565b604085015160408501526060850151606085015260808501518482036080860152612078565b60a080850151151590840152928101516001600160a01b031691015290565b90600182811c92168015612284575b602083101461226e57565b634e487b7160e01b600052602260045260246000fd5b91607f1691612263565b80546000939261229d82612254565b91828252602093600191828116908160001461230457506001146122c3575b5050505050565b90939495506000929192528360002092846000945b8386106122f0575050505001019038808080806122bc565b8054858701830152940193859082016122d8565b60ff19168685015250505090151560051b0101915038808080806122bc565b6020908160408183019282815285518094520193019160005b82811061234a575050505090565b83518552938101939281019260010161233c565b9181601f8401121561031b578235916001600160401b03831161031b576020808501948460051b01011161031b57565b6001600160a01b0391821692909183156125755760009282845260209460028652604095838787205416612527579084918287526002815284888820541696879133151580612491575b509060027fddf252ad1be2c89b69c2b068fc378daa952ba7f163c4a11628f55a4df523b3ef928461245e575b858352600381528b8320805460010190558683525289812080546001600160a01b0319168517905580a4169283830361243d5750505050565b6064945051926364283d7b60e01b8452600484015260248301526044820152fd5b600087815260046020526040902080546001600160a01b0319169055848352600381528b83208054600019019055612404565b919394509150806124e6575b156124ad578592918791386123d8565b8786886124ca576024915190637e27328960e01b82526004820152fd5b604491519063177e802f60e01b82523360048301526024820152fd5b50338714801561250b575b8061249d575085825260048152338589842054161461249d565b5086825260058152878220338352815260ff88832054166124f1565b60849087519062461bcd60e51b82526004820152602260248201527f52656e74616c2070617373657320617265206e6f6e2d7472616e7366657261626044820152616c6560f01b6064820152fd5b604051633250574960e11b815260006004820152602490fd5b61259983838361238e565b813b6125a6575b50505050565b604051630a85bd0160e11b8082523360048301526001600160a01b039283166024830152604482019490945260806064820152602095929091169390929083906125f4906084830190612078565b039285816000958187895af184918161269d575b50612668575050503d600014612660573d61262281612152565b906126306040519283612131565b81528091843d92013e5b8051928361265b57604051633250574960e11b815260048101849052602490fd5b019050fd5b50606061263a565b919450915063ffffffff60e01b16036126855750388080806125a0565b60249060405190633250574960e11b82526004820152fd5b9091508681813d83116126d6575b6126b58183612131565b8101031261033357516001600160e01b031981168103610333579038612608565b503d6126ab565b6000818152600260205260409020546001600160a01b03169081156112dc575090565b600260075414612711576002600755565b604051633ee5aeb560e01b8152600490fd5b60001981146127325760010190565b634e487b7160e01b600052601160045260246000fd5b60038210156121cf5752565b81811061275f575050565b60008155600101612754565b939493909290916001600160a01b03831615612f2057805115612ee457604051602081835161279d8183858801612055565b8101600b81520301902054612e9f57815115612e6657600954946127c086612723565b60095562278d00420180421161273257604051906127dd826120fb565b6127e78783612748565b60208201908482526040830152886060830152846080830152600160a083015260018060a01b03861660c083015287600052600a602052604060002090825160038110156121cf5760ff80198454169116178255518051906001600160401b0382116120e55761285a6001840154612254565b601f8111612e31575b50602090601f8311600114612dbf57612895929160009183612b96575b50508160011b916000199060031b1c19161790565b60018201555b604082015160028201556060820151600382015560808201518051906001600160401b0382116120e5576128d26004840154612254565b601f8111612d8a575b50602090601f8311600114612d15578260059360c0959361291293600092612b965750508160011b916000199060031b1c19161790565b60048201555b019161293660a08201511515849060ff801983541691151516179055565b01518154610100600160a81b03191660089190911b610100600160a81b0316179055604051825187919060209082906129728183898601612055565b8101600b8152030190205585600052600d6020526040600020600160ff1982541617905560018060a01b038416600052600c60205260406000208054680100000000000000008110156120e5576129d3816129ec9360018b94018155612027565b90919082549060031b91821b91600019901b1916179055565b6000868152600260205260409020546001600160a01b0316612cc5576000868152600260205260409020546001600160a01b031680151590879082612c8e575b6001600160a01b0387166000818152600360209081526040808320805460010190558583526002909152812080546001600160a01b031916831790559091907fddf252ad1be2c89b69c2b068fc378daa952ba7f163c4a11628f55a4df523b3ef9080a4612c75578560005260066020526040600020908051906001600160401b0382116120e557612abd8354612254565b601f8111612c38575b50602090601f8311600114612ba15793612b7f93612b27847f29f4fe075b7c5ca209fdf38b7e8b31ebfb8c7714ceba939ed792c1192af27ff49a9895612b7195612b609b99600092612b965750508160011b916000199060031b1c19161790565b90555b7ff8e1a15aba9398e019f0b49df1a4fde98ee17ae345cb5f6b5e2c27f5033e8ce760206040518b8152a1604051968780976121c2565b608060208701526080860190612078565b908482036040860152612078565b60608301969096526001600160a01b0316940390a3565b015190503880612880565b90601f198316918460005260206000209260005b818110612c20575084612b7194612b609a9894612b7f98947f29f4fe075b7c5ca209fdf38b7e8b31ebfb8c7714ceba939ed792c1192af27ff49d9b9860019510612c07575b505050811b019055612b2a565b015160001960f88460031b161c19169055388080612bfa565b92936020600181928786015181550195019301612bb5565b612c6590846000526020600020601f850160051c81019160208610612c6b575b601f0160051c0190612754565b38612ac6565b9091508190612c58565b6040516339e3563760e11b815260006004820152602490fd5b600082815260046020526040902080546001600160a01b031916905580600052600360205260406000206000198154019055612a2c565b60405162461bcd60e51b815260206004820152602260248201527f52656e74616c2070617373657320617265206e6f6e2d7472616e7366657261626044820152616c6560f01b6064820152608490fd5b906004840160005260206000209160005b601f1985168110612d7257509260c0949260019260059583601f19811610612d59575b505050811b016004820155612918565b015160001960f88460031b161c19169055388080612d49565b91926020600181928685015181550194019201612d26565b612db990600485016000526020600020601f850160051c81019160208610612c6b57601f0160051c0190612754565b386128db565b9190600184016000526020600020906000935b601f1984168510612e16576001945083601f19811610612dfd575b505050811b01600182015561289b565b015160001960f88460031b161c19169055388080612ded565b81810151835560209485019460019093019290910190612dd2565b612e6090600185016000526020600020601f850160051c81019160208610612c6b57601f0160051c0190612754565b38612863565b60405162461bcd60e51b8152602060048201526011602482015270131bd8d85d1a5bdb881c995c5d5a5c9959607a1b6044820152606490fd5b60405162461bcd60e51b815260206004820152601a60248201527f41636365737320636f646520616c7265616479206578697374730000000000006044820152606490fd5b60405162461bcd60e51b81526020600482015260146024820152731058d8d95cdcc818dbd919481c995c5d5a5c995960621b6044820152606490fd5b60405162461bcd60e51b815260206004820152601960248201527f496e76616c696420726563697069656e742061646472657373000000000000006044820152606490fd5b15612f6c57565b60405162461bcd60e51b8152602060048201526015602482015274082e4e4c2f240d8cadccee8d040dad2e6dac2e8c6d605b1b6044820152606490fd5b919081101561203f5760051b0190565b919081101561203f5760051b81013590601e198136030182121561031b5701908135916001600160401b03831161031b57602001823603811361031b579190565b90613015602060409381855193828580945193849201612055565b8101600b815203019020549081156130ca5781600052600a602052826000206005845191613042836120fb565b61305060ff82541684612748565b85516130638161059d816001860161228e565b602084015260028101549580840196875260038201546060850152516130908161059d816004860161228e565b608084015201549060c060ff83161515928360a084015260018060a01b039060081c16910152806130c057925190565b5082514210925190565b600092508291508190565b156130dc57565b60405162461bcd60e51b8152602060048201526014602482015273151bdad95b88191bd95cc81b9bdd08195e1a5cdd60621b6044820152606490fd5b60405190613125826120fb565b600060c08382815260606020820152826040820152826060820152606060808201528260a08201520152565b6001600160401b0381116120e55760051b60200190565b805182101561203f5760209160051b010190565b6001600160a01b03166000908152600c60205260408120909190825b8154808210156122bc5783906131ae8385612027565b929054600393841b1c146131cc5750506131c790612723565b613198565b929350939060001992838101908111610f3157906129d36131f06131fd9387612027565b905490881b1c9186612027565b825490811561322257508101926132148484612027565b81939154921b1b1916905555565b634e487b7160e01b81526031600452602490fd5b6132408154612254565b908161324a575050565b81601f6000931160011461325c575055565b90808391825261327b601f60208420940160051c840160018501612754565b555556fea264697066735822122039015db26ee3a1df36143860b487e0fa5edd7e9ea5ecb51cdedb14d93b3cf33264736f6c63430008150033",
  "devdoc": {
    "details": "NFT contract for 30-day vehicle access passes - NON-TRANSFERABLE",
    "errors": {
      "ERC721IncorrectOwner(address,uint256,address)": [
        {
          "details": "Indicates an error related to the ownership over a particular token. Used in transfers.",
          "params": {
            "owner": "Address of the current owner of a token.",
            "sender": "Address whose tokens are being transferred.",
            "tokenId": "Identifier number of a token."
          }
        }
      ],
      "ERC721InsufficientApproval(address,uint256)": [
        {
          "details": "Indicates a failure with the `operator`s approval. Used in transfers.",
          "params": {
            "operator": "Address that may be allowed to operate on tokens without being their owner.",
            "tokenId": "Identifier number of a token."
          }
        }
      ],
      "ERC721InvalidApprover(address)": [
        {
          "details": "Indicates a failure with the `approver` of a token to be approved. Used in approvals.",
          "params": {
            "approver": "Address initiating an approval operation."
          }
        }
      ],
      "ERC721InvalidOperator(address)": [
        {
          "details": "Indicates a failure with the `operator` to be approved. Used in approvals.",
          "params": {
            "operator": "Address that may be allowed to operate on tokens without being their owner."
          }
        }
      ],
      "ERC721InvalidOwner(address)": [
        {
          "details": "Indicates that an address can't be an owner. For example, `address(0)` is a forbidden owner in ERC-20. Used in balance queries.",
          "params": {
            "owner": "Address of the current owner of a token."
          }
        }
      ],
      "ERC721InvalidReceiver(address)": [
        {
          "details": "Indicates a failure with the token `receiver`. Used in transfers.",
          "params": {
            "receiver": "Address to which tokens are being transferred."
          }
        }
      ],
      "ERC721InvalidSender(address)": [
        {
          "details": "Indicates a failure with the token `sender`. Used in transfers.",
          "params": {
            "sender": "Address whose tokens are being transferred."
          }
        }
      ],
      "ERC721NonexistentToken(uint256)": [
        {
          "details": "Indicates a `tokenId` whose `owner` is the zero address.",
          "params": {
            "tokenId": "Identifier number of a token."
          }
        }
      ],
      "EnforcedPause()": [
        {
          "details": "The operation failed because the contract is paused."
        }
      ],
      "ExpectedPause()": [
        {
          "details": "The operation failed because the contract is not paused."
        }
      ],
      "ReentrancyGuardReentrantCall()": [
        {
          "details": "Unauthorized reentrant call."
        }
      ]
    },
    "events": {
      "Approval(address,address,uint256)": {
        "details": "Emitted when `owner` enables `approved` to manage the `tokenId` token."
      },
      "ApprovalForAll(address,address,bool)": {
        "details": "Emitted when `owner` enables or disables (`approved`) `operator` to manage all of its assets."
      },
      "BatchMetadataUpdate(uint256,uint256)": {
        "details": "This event emits when the metadata of a range of tokens is changed. So that the third-party platforms such as NFT market could timely update the images and related attributes of the NFTs."
      },
      "MetadataUpdate(uint256)": {
        "details": "This event emits when the metadata of a token is changed. So that the third-party platforms such as NFT market could timely update the images and related attributes of the NFT."
      },
      "Paused(address)": {
        "details": "Emitted when the pause is triggered by `account`."
      },
      "Transfer(address,address,uint256)": {
        "details": "Emitted when `tokenId` token is transferred from `from` to `to`."
      },
      "Unpaused(address)": {
        "details": "Emitted when the pause is lifted by `account`."
      }
    },
    "kind": "dev",
    "methods": {
      "approve(address,uint256)": {
        "details": "See {IERC721-approve}."
      },
      "balanceOf(address)": {
        "details": "See {IERC721-balanceOf}."
      },
      "batchMintRentalPasses(address[],uint8[],string[],string[],uint256[],string[])": {
        "details": "Batch mint rental passes for efficiency"
      },
      "burnRentalPass(uint256)": {
        "details": "Burn a rental pass and cleanup associated data",
        "params": {
          "tokenId": "Token ID to burn"
        }
      },
      "cleanupExpiredPasses(uint256[])": {
        "details": "Cleanup expired passes (can be called by anyone to maintain state)"
      },
      "deactivatePass(uint256,string)": {
        "details": "Deactivate a rental pass (admin function)"
      },
      "getApproved(uint256)": {
        "details": "See {IERC721-getApproved}."
      },
      "getPassesExpiringSoon(address)": {
        "details": "Get passes expiring soon (within next 24 hours)"
      },
      "getRentalPass(uint256)": {
        "details": "Get rental pass details"
      },
      "getTokenByAccessCode(string)": {
        "details": "Get token ID by access code"
      },
      "getUserActivePasses(address)": {
        "details": "Get user's active passes"
      },
      "getUserActivePassesWithDetails(address)": {
        "details": "Get user's active passes with details"
      },
      "isAccessCodeValid(string)": {
        "details": "Check if access code is valid without using it"
      },
      "isApprovedForAll(address,address)": {
        "details": "See {IERC721-isApprovedForAll}."
      },
      "isPassExpired(uint256)": {
        "details": "Check if pass is expired"
      },
      "mintRentalPass(address,uint8,string,string,uint256,string)": {
        "details": "Mint a rental pass",
        "params": {
          "duration": "Duration in seconds",
          "metadataURI": "URI for the token metadata",
          "passDescription": "Description of the pass",
          "passName": "Name of the pass",
          "to": "Address to mint to",
          "vehicleType": "Type of vehicle"
        }
      },
      "name()": {
        "details": "See {IERC721Metadata-name}."
      },
      "ownerOf(uint256)": {
        "details": "See {IERC721-ownerOf}."
      },
      "pause()": {
        "details": "Emergency pause contract"
      },
      "paused()": {
        "details": "Returns true if the contract is paused, and false otherwise."
      },
      "safeTransferFrom(address,address,uint256)": {
        "details": "See {IERC721-safeTransferFrom}."
      },
      "safeTransferFrom(address,address,uint256,bytes)": {
        "details": "See {IERC721-safeTransferFrom}."
      },
      "setApprovalForAll(address,bool)": {
        "details": "See {IERC721-setApprovalForAll}."
      },
      "supportsInterface(bytes4)": {
        "details": "Override supportsInterface"
      },
      "symbol()": {
        "details": "See {IERC721Metadata-symbol}."
      },
      "tokenURI(uint256)": {
        "details": "Override tokenURI"
      },
      "totalSupply()": {
        "details": "Get total supply of rental passes"
      },
      "transferFrom(address,address,uint256)": {
        "details": "See {IERC721-transferFrom}."
      },
      "unpause()": {
        "details": "Unpause contract"
      },
      "validateAndUseAccessCode(string)": {
        "details": "Validate access code and mark as used"
      }
    },
    "stateVariables": {
      "_tokenIdCounter": {
        "details": "Counter for token IDs"
      },
      "accessCodeToToken": {
        "details": "Mapping from access code to token ID (for validation)"
      },
      "accessControl": {
        "details": "Reference to access control contract"
      },
      "isPassActive": {
        "details": "Mapping to track if pass is active"
      },
      "rentalPasses": {
        "details": "Mapping from token ID to rental pass details"
      },
      "userActivePasses": {
        "details": "Mapping from user to active passes (for UI display)"
      }
    },
    "title": "MooveRentalPass",
    "version": 1
  },
  "userdoc": {
    "kind": "user",
    "methods": {},
    "notice": "These NFTs provide access codes for vehicles and cannot be traded",
    "version": 1
  },
  "storageLayout": {
    "storage": [
      {
        "astId": 600,
        "contract": "contracts/MooveRentalPass.sol:MooveRentalPass",
        "label": "_name",
        "offset": 0,
        "slot": "0",
        "type": "t_string_storage"
      },
      {
        "astId": 602,
        "contract": "contracts/MooveRentalPass.sol:MooveRentalPass",
        "label": "_symbol",
        "offset": 0,
        "slot": "1",
        "type": "t_string_storage"
      },
      {
        "astId": 606,
        "contract": "contracts/MooveRentalPass.sol:MooveRentalPass",
        "label": "_owners",
        "offset": 0,
        "slot": "2",
        "type": "t_mapping(t_uint256,t_address)"
      },
      {
        "astId": 610,
        "contract": "contracts/MooveRentalPass.sol:MooveRentalPass",
        "label": "_balances",
        "offset": 0,
        "slot": "3",
        "type": "t_mapping(t_address,t_uint256)"
      },
      {
        "astId": 614,
        "contract": "contracts/MooveRentalPass.sol:MooveRentalPass",
        "label": "_tokenApprovals",
        "offset": 0,
        "slot": "4",
        "type": "t_mapping(t_uint256,t_address)"
      },
      {
        "astId": 620,
        "contract": "contracts/MooveRentalPass.sol:MooveRentalPass",
        "label": "_operatorApprovals",
        "offset": 0,
        "slot": "5",
        "type": "t_mapping(t_address,t_mapping(t_address,t_bool))"
      },
      {
        "astId": 1716,
        "contract": "contracts/MooveRentalPass.sol:MooveRentalPass",
        "label": "_tokenURIs",
        "offset": 0,
        "slot": "6",
        "type": "t_mapping(t_uint256,t_string_storage)"
      },
      {
        "astId": 2387,
        "contract": "contracts/MooveRentalPass.sol:MooveRentalPass",
        "label": "_status",
        "offset": 0,
        "slot": "7",
        "type": "t_uint256"
      },
      {
        "astId": 2277,
        "contract": "contracts/MooveRentalPass.sol:MooveRentalPass",
        "label": "_paused",
        "offset": 0,
        "slot": "8",
        "type": "t_bool"
      },
      {
        "astId": 14281,
        "contract": "contracts/MooveRentalPass.sol:MooveRentalPass",
        "label": "_tokenIdCounter",
        "offset": 0,
        "slot": "9",
        "type": "t_uint256"
      },
      {
        "astId": 14287,
        "contract": "contracts/MooveRentalPass.sol:MooveRentalPass",
        "label": "rentalPasses",
        "offset": 0,
        "slot": "10",
        "type": "t_mapping(t_uint256,t_struct(RentalPass)14319_storage)"
      },
      {
        "astId": 14292,
        "contract": "contracts/MooveRentalPass.sol:MooveRentalPass",
        "label": "accessCodeToToken",
        "offset": 0,
        "slot": "11",
        "type": "t_mapping(t_string_memory_ptr,t_uint256)"
      },
      {
        "astId": 14298,
        "contract": "contracts/MooveRentalPass.sol:MooveRentalPass",
        "label": "userActivePasses",
        "offset": 0,
        "slot": "12",
        "type": "t_mapping(t_address,t_array(t_uint256)dyn_storage)"
      },
      {
        "astId": 14303,
        "contract": "contracts/MooveRentalPass.sol:MooveRentalPass",
        "label": "isPassActive",
        "offset": 0,
        "slot": "13",
        "type": "t_mapping(t_uint256,t_bool)"
      }
    ],
    "types": {
      "t_address": {
        "encoding": "inplace",
        "label": "address",
        "numberOfBytes": "20"
      },
      "t_array(t_uint256)dyn_storage": {
        "base": "t_uint256",
        "encoding": "dynamic_array",
        "label": "uint256[]",
        "numberOfBytes": "32"
      },
      "t_bool": {
        "encoding": "inplace",
        "label": "bool",
        "numberOfBytes": "1"
      },
      "t_enum(VehicleType)14323": {
        "encoding": "inplace",
        "label": "enum MooveRentalPass.VehicleType",
        "numberOfBytes": "1"
      },
      "t_mapping(t_address,t_array(t_uint256)dyn_storage)": {
        "encoding": "mapping",
        "key": "t_address",
        "label": "mapping(address => uint256[])",
        "numberOfBytes": "32",
        "value": "t_array(t_uint256)dyn_storage"
      },
      "t_mapping(t_address,t_bool)": {
        "encoding": "mapping",
        "key": "t_address",
        "label": "mapping(address => bool)",
        "numberOfBytes": "32",
        "value": "t_bool"
      },
      "t_mapping(t_address,t_mapping(t_address,t_bool))": {
        "encoding": "mapping",
        "key": "t_address",
        "label": "mapping(address => mapping(address => bool))",
        "numberOfBytes": "32",
        "value": "t_mapping(t_address,t_bool)"
      },
      "t_mapping(t_address,t_uint256)": {
        "encoding": "mapping",
        "key": "t_address",
        "label": "mapping(address => uint256)",
        "numberOfBytes": "32",
        "value": "t_uint256"
      },
      "t_mapping(t_string_memory_ptr,t_uint256)": {
        "encoding": "mapping",
        "key": "t_string_memory_ptr",
        "label": "mapping(string => uint256)",
        "numberOfBytes": "32",
        "value": "t_uint256"
      },
      "t_mapping(t_uint256,t_address)": {
        "encoding": "mapping",
        "key": "t_uint256",
        "label": "mapping(uint256 => address)",
        "numberOfBytes": "32",
        "value": "t_address"
      },
      "t_mapping(t_uint256,t_bool)": {
        "encoding": "mapping",
        "key": "t_uint256",
        "label": "mapping(uint256 => bool)",
        "numberOfBytes": "32",
        "value": "t_bool"
      },
      "t_mapping(t_uint256,t_string_storage)": {
        "encoding": "mapping",
        "key": "t_uint256",
        "label": "mapping(uint256 => string)",
        "numberOfBytes": "32",
        "value": "t_string_storage"
      },
      "t_mapping(t_uint256,t_struct(RentalPass)14319_storage)": {
        "encoding": "mapping",
        "key": "t_uint256",
        "label": "mapping(uint256 => struct MooveRentalPass.RentalPass)",
        "numberOfBytes": "32",
        "value": "t_struct(RentalPass)14319_storage"
      },
      "t_string_memory_ptr": {
        "encoding": "bytes",
        "label": "string",
        "numberOfBytes": "32"
      },
      "t_string_storage": {
        "encoding": "bytes",
        "label": "string",
        "numberOfBytes": "32"
      },
      "t_struct(RentalPass)14319_storage": {
        "encoding": "inplace",
        "label": "struct MooveRentalPass.RentalPass",
        "members": [
          {
            "astId": 14306,
            "contract": "contracts/MooveRentalPass.sol:MooveRentalPass",
            "label": "vehicleType",
            "offset": 0,
            "slot": "0",
            "type": "t_enum(VehicleType)14323"
          },
          {
            "astId": 14308,
            "contract": "contracts/MooveRentalPass.sol:MooveRentalPass",
            "label": "accessCode",
            "offset": 0,
            "slot": "1",
            "type": "t_string_storage"
          },
          {
            "astId": 14310,
            "contract": "contracts/MooveRentalPass.sol:MooveRentalPass",
            "label": "expirationDate",
            "offset": 0,
            "slot": "2",
            "type": "t_uint256"
          },
          {
            "astId": 14312,
            "contract": "contracts/MooveRentalPass.sol:MooveRentalPass",
            "label": "purchasePrice",
            "offset": 0,
            "slot": "3",
            "type": "t_uint256"
          },
          {
            "astId": 14314,
            "contract": "contracts/MooveRentalPass.sol:MooveRentalPass",
            "label": "location",
            "offset": 0,
            "slot": "4",
            "type": "t_string_storage"
          },
          {
            "astId": 14316,
            "contract": "contracts/MooveRentalPass.sol:MooveRentalPass",
            "label": "isActive",
            "offset": 0,
            "slot": "5",
            "type": "t_bool"
          },
          {
            "astId": 14318,
            "contract": "contracts/MooveRentalPass.sol:MooveRentalPass",
            "label": "originalOwner",
            "offset": 1,
            "slot": "5",
            "type": "t_address"
          }
        ],
        "numberOfBytes": "192"
      },
      "t_uint256": {
        "encoding": "inplace",
        "label": "uint256",
        "numberOfBytes": "32"
      }
    }
  }
}