{
  "address": "0x329203985A29E3c78aD140B0D3e383D2fE58d832",
  "abi": [
    {
      "inputs": [
        {
          "internalType": "address",
          "name": "_accessControl",
          "type": "address"
        }
      ],
      "stateMutability": "nonpayable",
      "type": "constructor"
    },
    {
      "inputs": [],
      "name": "EnforcedPause",
      "type": "error"
    },
    {
      "inputs": [],
      "name": "ExpectedPause",
      "type": "error"
    },
    {
      "inputs": [],
      "name": "ReentrancyGuardReentrantCall",
      "type": "error"
    },
    {
      "anonymous": false,
      "inputs": [
        {
          "indexed": true,
          "internalType": "uint256",
          "name": "auctionId",
          "type": "uint256"
        },
        {
          "indexed": false,
          "internalType": "string",
          "name": "reason",
          "type": "string"
        }
      ],
      "name": "AuctionCancelled",
      "type": "event"
    },
    {
      "anonymous": false,
      "inputs": [
        {
          "indexed": true,
          "internalType": "uint256",
          "name": "auctionId",
          "type": "uint256"
        },
        {
          "indexed": true,
          "internalType": "address",
          "name": "seller",
          "type": "address"
        },
        {
          "indexed": true,
          "internalType": "address",
          "name": "nftContract",
          "type": "address"
        },
        {
          "indexed": false,
          "internalType": "uint256",
          "name": "tokenId",
          "type": "uint256"
        },
        {
          "indexed": false,
          "internalType": "enum MooveAuction.AuctionType",
          "name": "auctionType",
          "type": "uint8"
        },
        {
          "indexed": false,
          "internalType": "uint256",
          "name": "startingPrice",
          "type": "uint256"
        },
        {
          "indexed": false,
          "internalType": "uint256",
          "name": "duration",
          "type": "uint256"
        }
      ],
      "name": "AuctionCreated",
      "type": "event"
    },
    {
      "anonymous": false,
      "inputs": [
        {
          "indexed": true,
          "internalType": "uint256",
          "name": "auctionId",
          "type": "uint256"
        }
      ],
      "name": "AuctionEnded",
      "type": "event"
    },
    {
      "anonymous": false,
      "inputs": [
        {
          "indexed": true,
          "internalType": "uint256",
          "name": "auctionId",
          "type": "uint256"
        },
        {
          "indexed": true,
          "internalType": "address",
          "name": "winner",
          "type": "address"
        },
        {
          "indexed": false,
          "internalType": "uint256",
          "name": "finalPrice",
          "type": "uint256"
        },
        {
          "indexed": false,
          "internalType": "uint256",
          "name": "platformFee",
          "type": "uint256"
        },
        {
          "indexed": false,
          "internalType": "uint256",
          "name": "royaltyFee",
          "type": "uint256"
        }
      ],
      "name": "AuctionSettled",
      "type": "event"
    },
    {
      "anonymous": false,
      "inputs": [
        {
          "indexed": true,
          "internalType": "uint256",
          "name": "auctionId",
          "type": "uint256"
        },
        {
          "indexed": true,
          "internalType": "address",
          "name": "bidder",
          "type": "address"
        },
        {
          "indexed": false,
          "internalType": "uint256",
          "name": "amount",
          "type": "uint256"
        },
        {
          "indexed": false,
          "internalType": "bool",
          "name": "isHighestBid",
          "type": "bool"
        }
      ],
      "name": "BidPlaced",
      "type": "event"
    },
    {
      "anonymous": false,
      "inputs": [
        {
          "indexed": true,
          "internalType": "uint256",
          "name": "auctionId",
          "type": "uint256"
        },
        {
          "indexed": true,
          "internalType": "address",
          "name": "bidder",
          "type": "address"
        },
        {
          "indexed": false,
          "internalType": "uint256",
          "name": "amount",
          "type": "uint256"
        }
      ],
      "name": "BidRefunded",
      "type": "event"
    },
    {
      "anonymous": false,
      "inputs": [
        {
          "indexed": true,
          "internalType": "uint256",
          "name": "auctionId",
          "type": "uint256"
        },
        {
          "indexed": false,
          "internalType": "uint256",
          "name": "newPrice",
          "type": "uint256"
        }
      ],
      "name": "DutchPriceUpdate",
      "type": "event"
    },
    {
      "anonymous": false,
      "inputs": [
        {
          "indexed": false,
          "internalType": "address",
          "name": "account",
          "type": "address"
        }
      ],
      "name": "Paused",
      "type": "event"
    },
    {
      "anonymous": false,
      "inputs": [
        {
          "indexed": true,
          "internalType": "uint256",
          "name": "auctionId",
          "type": "uint256"
        },
        {
          "indexed": false,
          "internalType": "uint256",
          "name": "reservePrice",
          "type": "uint256"
        }
      ],
      "name": "ReserveReached",
      "type": "event"
    },
    {
      "anonymous": false,
      "inputs": [
        {
          "indexed": true,
          "internalType": "uint256",
          "name": "auctionId",
          "type": "uint256"
        },
        {
          "indexed": true,
          "internalType": "address",
          "name": "bidder",
          "type": "address"
        },
        {
          "indexed": false,
          "internalType": "uint256",
          "name": "amount",
          "type": "uint256"
        }
      ],
      "name": "SealedBidRevealed",
      "type": "event"
    },
    {
      "anonymous": false,
      "inputs": [
        {
          "indexed": true,
          "internalType": "uint256",
          "name": "auctionId",
          "type": "uint256"
        },
        {
          "indexed": true,
          "internalType": "address",
          "name": "bidder",
          "type": "address"
        },
        {
          "indexed": false,
          "internalType": "bytes32",
          "name": "bidHash",
          "type": "bytes32"
        }
      ],
      "name": "SealedBidSubmitted",
      "type": "event"
    },
    {
      "anonymous": false,
      "inputs": [
        {
          "indexed": false,
          "internalType": "address",
          "name": "account",
          "type": "address"
        }
      ],
      "name": "Unpaused",
      "type": "event"
    },
    {
      "stateMutability": "payable",
      "type": "fallback"
    },
    {
      "inputs": [],
      "name": "MAX_AUCTION_DURATION",
      "outputs": [
        {
          "internalType": "uint256",
          "name": "",
          "type": "uint256"
        }
      ],
      "stateMutability": "view",
      "type": "function"
    },
    {
      "inputs": [],
      "name": "MAX_BIDS_PER_AUCTION",
      "outputs": [
        {
          "internalType": "uint256",
          "name": "",
          "type": "uint256"
        }
      ],
      "stateMutability": "view",
      "type": "function"
    },
    {
      "inputs": [],
      "name": "MIN_AUCTION_DURATION",
      "outputs": [
        {
          "internalType": "uint256",
          "name": "",
          "type": "uint256"
        }
      ],
      "stateMutability": "view",
      "type": "function"
    },
    {
      "inputs": [],
      "name": "MIN_BID_INTERVAL",
      "outputs": [
        {
          "internalType": "uint256",
          "name": "",
          "type": "uint256"
        }
      ],
      "stateMutability": "view",
      "type": "function"
    },
    {
      "inputs": [],
      "name": "accessControl",
      "outputs": [
        {
          "internalType": "contract MooveAccessControl",
          "name": "",
          "type": "address"
        }
      ],
      "stateMutability": "view",
      "type": "function"
    },
    {
      "inputs": [
        {
          "internalType": "uint256",
          "name": "",
          "type": "uint256"
        },
        {
          "internalType": "uint256",
          "name": "",
          "type": "uint256"
        }
      ],
      "name": "auctionBids",
      "outputs": [
        {
          "internalType": "address",
          "name": "bidder",
          "type": "address"
        },
        {
          "internalType": "uint256",
          "name": "amount",
          "type": "uint256"
        },
        {
          "internalType": "uint256",
          "name": "timestamp",
          "type": "uint256"
        },
        {
          "internalType": "bool",
          "name": "isWinning",
          "type": "bool"
        },
        {
          "internalType": "bool",
          "name": "isRefunded",
          "type": "bool"
        }
      ],
      "stateMutability": "view",
      "type": "function"
    },
    {
      "inputs": [
        {
          "internalType": "uint256",
          "name": "",
          "type": "uint256"
        }
      ],
      "name": "auctions",
      "outputs": [
        {
          "internalType": "uint256",
          "name": "auctionId",
          "type": "uint256"
        },
        {
          "internalType": "address",
          "name": "nftContract",
          "type": "address"
        },
        {
          "internalType": "uint256",
          "name": "tokenId",
          "type": "uint256"
        },
        {
          "internalType": "address",
          "name": "seller",
          "type": "address"
        },
        {
          "internalType": "enum MooveAuction.AuctionType",
          "name": "auctionType",
          "type": "uint8"
        },
        {
          "internalType": "uint256",
          "name": "startingPrice",
          "type": "uint256"
        },
        {
          "internalType": "uint256",
          "name": "reservePrice",
          "type": "uint256"
        },
        {
          "internalType": "uint256",
          "name": "buyNowPrice",
          "type": "uint256"
        },
        {
          "internalType": "uint256",
          "name": "currentPrice",
          "type": "uint256"
        },
        {
          "internalType": "uint256",
          "name": "startTime",
          "type": "uint256"
        },
        {
          "internalType": "uint256",
          "name": "endTime",
          "type": "uint256"
        },
        {
          "internalType": "uint256",
          "name": "bidIncrement",
          "type": "uint256"
        },
        {
          "internalType": "address",
          "name": "highestBidder",
          "type": "address"
        },
        {
          "internalType": "uint256",
          "name": "highestBid",
          "type": "uint256"
        },
        {
          "internalType": "enum MooveAuction.AuctionStatus",
          "name": "status",
          "type": "uint8"
        },
        {
          "internalType": "bool",
          "name": "allowPartialFulfillment",
          "type": "bool"
        },
        {
          "internalType": "uint256",
          "name": "minBidders",
          "type": "uint256"
        },
        {
          "internalType": "uint256",
          "name": "totalBidders",
          "type": "uint256"
        },
        {
          "internalType": "bool",
          "name": "isSettled",
          "type": "bool"
        }
      ],
      "stateMutability": "view",
      "type": "function"
    },
    {
      "inputs": [
        {
          "internalType": "uint256",
          "name": "auctionId",
          "type": "uint256"
        }
      ],
      "name": "buyNowDutch",
      "outputs": [],
      "stateMutability": "payable",
      "type": "function"
    },
    {
      "inputs": [
        {
          "internalType": "uint256",
          "name": "auctionId",
          "type": "uint256"
        },
        {
          "internalType": "string",
          "name": "reason",
          "type": "string"
        }
      ],
      "name": "cancelAuction",
      "outputs": [],
      "stateMutability": "nonpayable",
      "type": "function"
    },
    {
      "inputs": [
        {
          "internalType": "address",
          "name": "nftContract",
          "type": "address"
        },
        {
          "internalType": "uint256",
          "name": "tokenId",
          "type": "uint256"
        },
        {
          "internalType": "enum MooveAuction.AuctionType",
          "name": "auctionType",
          "type": "uint8"
        },
        {
          "internalType": "uint256",
          "name": "startingPrice",
          "type": "uint256"
        },
        {
          "internalType": "uint256",
          "name": "reservePrice",
          "type": "uint256"
        },
        {
          "internalType": "uint256",
          "name": "buyNowPrice",
          "type": "uint256"
        },
        {
          "internalType": "uint256",
          "name": "duration",
          "type": "uint256"
        },
        {
          "internalType": "uint256",
          "name": "bidIncrement",
          "type": "uint256"
        }
      ],
      "name": "createAuction",
      "outputs": [
        {
          "internalType": "uint256",
          "name": "auctionId",
          "type": "uint256"
        }
      ],
      "stateMutability": "nonpayable",
      "type": "function"
    },
    {
      "inputs": [
        {
          "internalType": "uint256",
          "name": "auctionId",
          "type": "uint256"
        },
        {
          "internalType": "string",
          "name": "reason",
          "type": "string"
        }
      ],
      "name": "emergencyCancel",
      "outputs": [],
      "stateMutability": "nonpayable",
      "type": "function"
    },
    {
      "inputs": [
        {
          "internalType": "uint256",
          "name": "auctionId",
          "type": "uint256"
        }
      ],
      "name": "endAuction",
      "outputs": [],
      "stateMutability": "nonpayable",
      "type": "function"
    },
    {
      "inputs": [
        {
          "internalType": "uint256",
          "name": "auctionId",
          "type": "uint256"
        },
        {
          "internalType": "uint256",
          "name": "additionalTime",
          "type": "uint256"
        }
      ],
      "name": "extendAuction",
      "outputs": [],
      "stateMutability": "nonpayable",
      "type": "function"
    },
    {
      "inputs": [],
      "name": "getActiveAuctions",
      "outputs": [
        {
          "internalType": "uint256[]",
          "name": "activeAuctions",
          "type": "uint256[]"
        }
      ],
      "stateMutability": "view",
      "type": "function"
    },
    {
      "inputs": [
        {
          "internalType": "uint256",
          "name": "auctionId",
          "type": "uint256"
        }
      ],
      "name": "getAuction",
      "outputs": [
        {
          "components": [
            {
              "internalType": "uint256",
              "name": "auctionId",
              "type": "uint256"
            },
            {
              "internalType": "address",
              "name": "nftContract",
              "type": "address"
            },
            {
              "internalType": "uint256",
              "name": "tokenId",
              "type": "uint256"
            },
            {
              "internalType": "address",
              "name": "seller",
              "type": "address"
            },
            {
              "internalType": "enum MooveAuction.AuctionType",
              "name": "auctionType",
              "type": "uint8"
            },
            {
              "internalType": "uint256",
              "name": "startingPrice",
              "type": "uint256"
            },
            {
              "internalType": "uint256",
              "name": "reservePrice",
              "type": "uint256"
            },
            {
              "internalType": "uint256",
              "name": "buyNowPrice",
              "type": "uint256"
            },
            {
              "internalType": "uint256",
              "name": "currentPrice",
              "type": "uint256"
            },
            {
              "internalType": "uint256",
              "name": "startTime",
              "type": "uint256"
            },
            {
              "internalType": "uint256",
              "name": "endTime",
              "type": "uint256"
            },
            {
              "internalType": "uint256",
              "name": "bidIncrement",
              "type": "uint256"
            },
            {
              "internalType": "address",
              "name": "highestBidder",
              "type": "address"
            },
            {
              "internalType": "uint256",
              "name": "highestBid",
              "type": "uint256"
            },
            {
              "internalType": "enum MooveAuction.AuctionStatus",
              "name": "status",
              "type": "uint8"
            },
            {
              "internalType": "bool",
              "name": "allowPartialFulfillment",
              "type": "bool"
            },
            {
              "internalType": "uint256",
              "name": "minBidders",
              "type": "uint256"
            },
            {
              "internalType": "uint256",
              "name": "totalBidders",
              "type": "uint256"
            },
            {
              "internalType": "bool",
              "name": "isSettled",
              "type": "bool"
            }
          ],
          "internalType": "struct MooveAuction.Auction",
          "name": "",
          "type": "tuple"
        }
      ],
      "stateMutability": "view",
      "type": "function"
    },
    {
      "inputs": [
        {
          "internalType": "uint256",
          "name": "auctionId",
          "type": "uint256"
        }
      ],
      "name": "getAuctionBids",
      "outputs": [
        {
          "components": [
            {
              "internalType": "address",
              "name": "bidder",
              "type": "address"
            },
            {
              "internalType": "uint256",
              "name": "amount",
              "type": "uint256"
            },
            {
              "internalType": "uint256",
              "name": "timestamp",
              "type": "uint256"
            },
            {
              "internalType": "bool",
              "name": "isWinning",
              "type": "bool"
            },
            {
              "internalType": "bool",
              "name": "isRefunded",
              "type": "bool"
            }
          ],
          "internalType": "struct MooveAuction.Bid[]",
          "name": "",
          "type": "tuple[]"
        }
      ],
      "stateMutability": "view",
      "type": "function"
    },
    {
      "inputs": [],
      "name": "getAuctionStats",
      "outputs": [
        {
          "internalType": "uint256",
          "name": "totalAuctionsCount",
          "type": "uint256"
        },
        {
          "internalType": "uint256",
          "name": "activeAuctionsCount",
          "type": "uint256"
        },
        {
          "internalType": "uint256",
          "name": "settledAuctionsCount",
          "type": "uint256"
        },
        {
          "internalType": "uint256",
          "name": "cancelledAuctionsCount",
          "type": "uint256"
        },
        {
          "internalType": "uint256",
          "name": "totalVolume",
          "type": "uint256"
        }
      ],
      "stateMutability": "view",
      "type": "function"
    },
    {
      "inputs": [],
      "name": "getAuctionTypeDistribution",
      "outputs": [
        {
          "internalType": "uint256",
          "name": "englishCount",
          "type": "uint256"
        },
        {
          "internalType": "uint256",
          "name": "dutchCount",
          "type": "uint256"
        },
        {
          "internalType": "uint256",
          "name": "sealedBidCount",
          "type": "uint256"
        },
        {
          "internalType": "uint256",
          "name": "reserveCount",
          "type": "uint256"
        }
      ],
      "stateMutability": "view",
      "type": "function"
    },
    {
      "inputs": [
        {
          "internalType": "enum MooveAuction.AuctionType",
          "name": "auctionType",
          "type": "uint8"
        }
      ],
      "name": "getAuctionsByType",
      "outputs": [
        {
          "internalType": "uint256[]",
          "name": "matchingAuctions",
          "type": "uint256[]"
        }
      ],
      "stateMutability": "view",
      "type": "function"
    },
    {
      "inputs": [
        {
          "internalType": "uint256",
          "name": "auctionId",
          "type": "uint256"
        }
      ],
      "name": "getDutchPrice",
      "outputs": [
        {
          "internalType": "uint256",
          "name": "",
          "type": "uint256"
        }
      ],
      "stateMutability": "view",
      "type": "function"
    },
    {
      "inputs": [],
      "name": "getEndingSoonAuctions",
      "outputs": [
        {
          "internalType": "uint256[]",
          "name": "endingSoon",
          "type": "uint256[]"
        }
      ],
      "stateMutability": "view",
      "type": "function"
    },
    {
      "inputs": [
        {
          "internalType": "address",
          "name": "user",
          "type": "address"
        }
      ],
      "name": "getUserAuctions",
      "outputs": [
        {
          "internalType": "uint256[]",
          "name": "",
          "type": "uint256[]"
        }
      ],
      "stateMutability": "view",
      "type": "function"
    },
    {
      "inputs": [
        {
          "internalType": "address",
          "name": "user",
          "type": "address"
        }
      ],
      "name": "getUserBids",
      "outputs": [
        {
          "internalType": "uint256[]",
          "name": "",
          "type": "uint256[]"
        }
      ],
      "stateMutability": "view",
      "type": "function"
    },
    {
      "inputs": [
        {
          "internalType": "uint256",
          "name": "",
          "type": "uint256"
        },
        {
          "internalType": "address",
          "name": "",
          "type": "address"
        }
      ],
      "name": "hasRevealed",
      "outputs": [
        {
          "internalType": "bool",
          "name": "",
          "type": "bool"
        }
      ],
      "stateMutability": "view",
      "type": "function"
    },
    {
      "inputs": [
        {
          "internalType": "uint256",
          "name": "auctionId",
          "type": "uint256"
        },
        {
          "internalType": "address",
          "name": "user",
          "type": "address"
        }
      ],
      "name": "hasUserBid",
      "outputs": [
        {
          "internalType": "bool",
          "name": "",
          "type": "bool"
        }
      ],
      "stateMutability": "view",
      "type": "function"
    },
    {
      "inputs": [
        {
          "internalType": "uint256",
          "name": "",
          "type": "uint256"
        },
        {
          "internalType": "address",
          "name": "",
          "type": "address"
        }
      ],
      "name": "lastBidTime",
      "outputs": [
        {
          "internalType": "uint256",
          "name": "",
          "type": "uint256"
        }
      ],
      "stateMutability": "view",
      "type": "function"
    },
    {
      "inputs": [],
      "name": "minimumBidIncrement",
      "outputs": [
        {
          "internalType": "uint256",
          "name": "",
          "type": "uint256"
        }
      ],
      "stateMutability": "view",
      "type": "function"
    },
    {
      "inputs": [],
      "name": "pause",
      "outputs": [],
      "stateMutability": "nonpayable",
      "type": "function"
    },
    {
      "inputs": [],
      "name": "paused",
      "outputs": [
        {
          "internalType": "bool",
          "name": "",
          "type": "bool"
        }
      ],
      "stateMutability": "view",
      "type": "function"
    },
    {
      "inputs": [
        {
          "internalType": "uint256",
          "name": "auctionId",
          "type": "uint256"
        }
      ],
      "name": "placeBid",
      "outputs": [],
      "stateMutability": "payable",
      "type": "function"
    },
    {
      "inputs": [],
      "name": "platformFeePercentage",
      "outputs": [
        {
          "internalType": "uint256",
          "name": "",
          "type": "uint256"
        }
      ],
      "stateMutability": "view",
      "type": "function"
    },
    {
      "inputs": [
        {
          "internalType": "uint256",
          "name": "auctionId",
          "type": "uint256"
        },
        {
          "internalType": "uint256",
          "name": "bidAmount",
          "type": "uint256"
        },
        {
          "internalType": "uint256",
          "name": "nonce",
          "type": "uint256"
        }
      ],
      "name": "revealSealedBid",
      "outputs": [],
      "stateMutability": "nonpayable",
      "type": "function"
    },
    {
      "inputs": [
        {
          "internalType": "uint256",
          "name": "",
          "type": "uint256"
        },
        {
          "internalType": "address",
          "name": "",
          "type": "address"
        }
      ],
      "name": "sealedBids",
      "outputs": [
        {
          "internalType": "bytes32",
          "name": "",
          "type": "bytes32"
        }
      ],
      "stateMutability": "view",
      "type": "function"
    },
    {
      "inputs": [
        {
          "internalType": "uint256",
          "name": "auctionId",
          "type": "uint256"
        }
      ],
      "name": "settleAuction",
      "outputs": [],
      "stateMutability": "nonpayable",
      "type": "function"
    },
    {
      "inputs": [
        {
          "internalType": "uint256",
          "name": "auctionId",
          "type": "uint256"
        }
      ],
      "name": "startRevealPhase",
      "outputs": [],
      "stateMutability": "nonpayable",
      "type": "function"
    },
    {
      "inputs": [
        {
          "internalType": "uint256",
          "name": "auctionId",
          "type": "uint256"
        },
        {
          "internalType": "bytes32",
          "name": "bidHash",
          "type": "bytes32"
        }
      ],
      "name": "submitSealedBid",
      "outputs": [],
      "stateMutability": "payable",
      "type": "function"
    },
    {
      "inputs": [],
      "name": "totalAuctions",
      "outputs": [
        {
          "internalType": "uint256",
          "name": "",
          "type": "uint256"
        }
      ],
      "stateMutability": "view",
      "type": "function"
    },
    {
      "inputs": [],
      "name": "unpause",
      "outputs": [],
      "stateMutability": "nonpayable",
      "type": "function"
    },
    {
      "inputs": [
        {
          "internalType": "uint256",
          "name": "newIncrement",
          "type": "uint256"
        }
      ],
      "name": "updateMinimumBidIncrement",
      "outputs": [],
      "stateMutability": "nonpayable",
      "type": "function"
    },
    {
      "inputs": [
        {
          "internalType": "uint256",
          "name": "newFeePercentage",
          "type": "uint256"
        }
      ],
      "name": "updatePlatformFee",
      "outputs": [],
      "stateMutability": "nonpayable",
      "type": "function"
    },
    {
      "inputs": [
        {
          "internalType": "address",
          "name": "",
          "type": "address"
        },
        {
          "internalType": "uint256",
          "name": "",
          "type": "uint256"
        }
      ],
      "name": "userAuctions",
      "outputs": [
        {
          "internalType": "uint256",
          "name": "",
          "type": "uint256"
        }
      ],
      "stateMutability": "view",
      "type": "function"
    },
    {
      "inputs": [
        {
          "internalType": "address",
          "name": "",
          "type": "address"
        },
        {
          "internalType": "uint256",
          "name": "",
          "type": "uint256"
        }
      ],
      "name": "userBids",
      "outputs": [
        {
          "internalType": "uint256",
          "name": "",
          "type": "uint256"
        }
      ],
      "stateMutability": "view",
      "type": "function"
    },
    {
      "inputs": [
        {
          "internalType": "address",
          "name": "to",
          "type": "address"
        },
        {
          "internalType": "uint256",
          "name": "amount",
          "type": "uint256"
        }
      ],
      "name": "withdrawPlatformFees",
      "outputs": [],
      "stateMutability": "nonpayable",
      "type": "function"
    },
    {
      "stateMutability": "payable",
      "type": "receive"
    }
  ],
  "transactionHash": "0x9f72f500428ef53431fea48f9aacf3d85577057ea5f765a661ec0a251fc5c2b7",
  "args": [
    "0x005672EcC14b09A958742B960Ebb76eBE52Be44A"
  ],
  "numDeployments": 1,
  "solcInputHash": "cf9183c5756e95f1fc92655ea94dc824",
  "bytecode": "0x60a0346200010657601f620044b738819003918201601f19168301916001600160401b038311848410176200010b578084926020946040528339810103126200010657516001600160a01b038116908190036200010657600160005560fa6009556101f4600a558015620000c15760805260405161439590816200012282396080518181816108710152818161118e015281816112800152818161186101528181611ce901528181612f220152818161303d0152818161345301526134a20152f35b60405162461bcd60e51b815260206004820152601e60248201527f496e76616c69642061636365737320636f6e74726f6c206164647265737300006044820152606490fd5b600080fd5b634e487b7160e01b600052604160045260246000fdfe60e0806040526004361015610052575b5036156100505760405162461bcd60e51b8152602060048201526012602482015271119d5b98dd1a5bdb881b9bdd08199bdd5b9960721b6044820152606490fd5b005b600090813560e01c90816303700a5e146139545750806307d2681d146135a85780630b4ca1ce1461348257806313007d551461343d57806316002f4a1461341f57806316b5551d146133d35780631d0a99751461317a578063237f39521461300b5780632b3b0ced14612de05780632e993611146128ce5780632ecdee5b146127e4578063328fbcde146127c757806335e65cac14611f7557806336b4e26214611dff5780633f4ba83a14611cc75780633fb3517814611ca9578063571a26a014611b3e5780635c975abb14611b1b5780635f93de4914611aa457806364628253146118235780636759789f146117b05780637097529f1461179357806370b4768e1461165957806378bd7935146113885780638456cb591461125e5780638becf1381461116e57806396ec50c3146111265780639979ef4514610d89578063a6d7ec4714610aa2578063a8d93dea14610993578063aa0b598814610847578063b4fbe80a146107f1578063b9a2de3a14610716578063c2f50a7a146106f9578063c604c2a0146105fa578063ca96dd27146105bb578063cdd78cfc1461059d578063cf44b5d514610473578063d3a8c4ec1461043f578063de6cf04314610322578063ec89b5e014610304578063ff3ad0b41461027d5763ffd8a7840361000f573461027a57604036600319011261027a57604061024f613995565b916004358152600b602052209060018060a01b03166000526020526020604060002054604051908152f35b80fd5b503461027a57602080600319360112610300576001600160a01b036102a06139ab565b1682526007815260408220916040518092808554928381520194835280832092905b8282106102e9576102e5856102d981890382613a3a565b60405191829182613ae6565b0390f35b8354865294850194600193840193909101906102c2565b5080fd5b503461027a578060031936011261027a576020600a54604051908152f35b503461027a5760208060031936011261030057600435906004821015918261043b576002549284805b8581106103db575061035c90613f8d565b948093815b86811061037657604051806102e58a82613ae6565b808352600380835260408420015460a01c60ff16846103c75760048110156103c75790856103a892146103ad57613bb1565b610361565b806103c16103ba89613bb1565b988b613fbf565b52613bb1565b634e487b7160e01b84526021600452602484fd5b808752600380865260408820015460a01c60ff1683610427576004811015610427578414610412575b61040d90613bb1565b61034b565b9061041f61040d91613bb1565b919050610404565b634e487b7160e01b88526021600452602488fd5b8380fd5b503461027a57602036600319011261027a57602061046b6004356104666002548210613e26565b613fd3565b604051908152f35b503461027a578060031936011261027a5760025481805b82811061051f575061049b90613f8d565b9082835b8281106104b457604051806102e58682613ae6565b808552600360209080825260ff600d604089200154166006811015610427579060016104ef949392149182610508575b50506104f457613bb1565b61049f565b806103c161050185613bb1565b9487613fbf565b8389525250604086206009015442111538806104e4565b808452600360209080825260ff600d604088200154166006811015610589576001149182610572575b505061055d575b61055890613bb1565b61048a565b9061056a61055891613bb1565b91905061054f565b838752525060408420600901544211153880610548565b634e487b7160e01b87526021600452602487fd5b503461027a578060031936011261027a576020600954604051908152f35b503461027a57604036600319011261027a5760206105f06004356105dd613995565b906105eb6002548210613e26565b6142c5565b6040519015158152f35b503461027a578060031936011261027a5780818283918460028054905b81831061063c5750505060809450604051938452602084015260408301526060820152f35b90919586885260038060205260ff8160408b20015460a01c1660048110156106e5578061067f57505061067161067891613bb1565b965b613bb1565b9190610617565b919794916001810361069f57505061069961067891613bb1565b93613bb1565b949591948084036106be5750506106b861067891613bb1565b94613bb1565b959195146106d0575b61067890613bb1565b946106dd61067891613bb1565b9590506106c7565b634e487b7160e01b8a52602160045260248afd5b503461027a578060031936011261027a576020604051610e108152f35b503461027a57602036600319011261027a576004356107386002548210613e26565b808252600360205260408220600d81019081549060ff821660068110156107dd5790610768600160099314613cb8565b015442106107a05760ff191660031790557f45806e512b1f4f10e33e8b3cb64d1d11d998d8c554a95e0841fc1c701278bd5d8280a280f35b60405162461bcd60e51b8152602060048201526015602482015274105d58dd1a5bdb881b9bdd08195b991959081e595d605a1b6044820152606490fd5b634e487b7160e01b86526021600452602486fd5b503461027a57604036600319011261027a5761080b6139ab565b6001600160a01b031681526007602052604081208054602435929083101561027a5760206108398484613b6d565b90546040519160031b1c8152f35b503461027a57602080600319360112610300576040516331aab75960e01b815260048035929184917f00000000000000000000000000000000000000000000000000000000000000006001600160a01b0316908490839081845afa918215610988578392610951575b50803b156109425760405163101a2a3160e31b815260048101929092523360248301528290829060449082905afa80156109465761092e575b50506103e882116108fb575060095580f35b6064906040519062461bcd60e51b82526004820152600c60248201526b08ccaca40e8dede40d0d2ced60a31b6044820152fd5b610937906139d7565b6109425782386108e9565b8280fd5b6040513d84823e3d90fd5b925090508282813d8111610981575b61096a8183613a3a565b8101031261097c5784915190386108b0565b600080fd5b503d610960565b6040513d85823e3d90fd5b503461027a57602036600319011261027a576004356109b56002548210613e26565b815260036020526040812060ff600382015460a01c166004811015610a8e5760026109e09114613ef9565b600d810180549160ff83166006811015610a7a5790610a03600160099314613cb8565b01918254421115610a3e5760029060ff191617905562015180420190814211610a2a575580f35b634e487b7160e01b83526011600452602483fd5b60405162461bcd60e51b815260206004820152601460248201527341756374696f6e207374696c6c2061637469766560601b6044820152606490fd5b634e487b7160e01b85526021600452602485fd5b634e487b7160e01b83526021600452602483fd5b50604036600319011261027a57600435602490813591610ac56002548310613e26565b8184526020906003825260ff600d604087200154166006811015610d76576001610aef9114613cb8565b82855260038252610b096009604087200154421115613cf9565b82855260038252610b2460ff60106040882001541615613e6b565b828552600b82526040852033600052825260406000205461012c8101809111610d6357610b5390421015613d35565b610b5b613c55565b8285526003825260408520600381015460ff8160a01c166004811015610d505790610b8b6002610b9c9314613ef9565b6001600160a01b0316331415613c78565b60048101543410610d18578386526005835260408620336000528352604060002054610cdc57600f01906103e882541015610ca65750907fa000acd2dce8dd1590ff43e13f10d27c2b8cf42ee254ce90b9dac98e045dabe891838652600b82526040862033600052825242604060002055838652600582526040862033600052825284604060002055610c2f33856142c5565b15610c80575b5082855260048152610c706040862060405190610c5182613a01565b3382523484830152426040830152876060830152876080830152613d70565b6040519384523393a36001815580f35b610c8a8154613bb1565b905533855260088152610ca08360408720613c02565b38610c35565b8260106064926040519262461bcd60e51b845260048401528201526f546f6f206d616e79206269646465727360801b6044820152fd5b60405162461bcd60e51b81526004810184905260158184015274109a5908185b1c9958591e481cdd589b5a5d1d1959605a1b6044820152606490fd5b60405162461bcd60e51b815260048101849052601181840152704269642062656c6f77206d696e696d756d60781b6044820152606490fd5b634e487b7160e01b885260216004528388fd5b50634e487b7160e01b8552601160045284fd5b50634e487b7160e01b8552602160045284fd5b506020806003193601126103005760043590610da3613c55565b81835260039081815260408420928284015460ff8160a01c1660048110156105895784811591821561111c575b5050156110c6576001600160a01b0390610dee908216331415613c78565b60ff600d8601541693600685101561058957610e0d6001809614613cb8565b610e1c60098701544210613cf9565b341561107757600c860190815491610e38600a89015484613bd6565b831561106c575b341061103957848952600b86526040892033600052865260406000205461012c810180911161102557610e7490421015613d35565b600b880180549485169433906001600160601b0360a01b16179055349055600f8701610ea08154613bb1565b9055838852600b8552604088203360005285524260406000205583885260048552610ef46040892060405190610ed582613a01565b33825234888301524260408301528860608301528a6080830152613d70565b87865b610fcd575b50509460059183949596610f1033866142c5565b15610fb4575b81610fa3575b505001548381151580610f99575b610f68575b50505082604051923484528301527f8f06251a01f1c60f43d914574d31d4eb5be776df9d23e7f94e7c07c578b9753d60403393a3815580f35b7f5e34871d0d7fec5df3c8e28a9377067d94fd983f6539a6d8bddfa48119558d2e91604051908152a2803883610f2f565b5081341015610f2a565b610fad918561426e565b3880610f1c565b33895260088752610fc88560408b20613c02565b610f16565b848952600486526040892054600019810190811161102557899082101561101f5781836110098a95946040858b611018975260048d5220613b3b565b5001805460ff19169055613bb1565b9091610ef7565b50610efc565b634e487b7160e01b8a52601160045260248afd5b60405162461bcd60e51b815260048101879052600b60248201526a42696420746f6f206c6f7760a81b6044820152606490fd5b506004880154610e3f565b60405162461bcd60e51b815260048101859052602160248201527f42696420616d6f756e74206d7573742062652067726561746572207468616e206044820152600360fc1b6064820152608490fd5b60405162461bcd60e51b815260048101849052602860248201527f496e76616c69642061756374696f6e207479706520666f72207468697320626960448201526719081b595d1a1bd960c21b6064820152608490fd5b1490508438610dd0565b503461027a57604036600319011261027a576111406139ab565b6001600160a01b031681526008602052604081208054602435929083101561027a5760206108398484613b6d565b503461027a5761117d36613a78565b6040516367ef9e2760e11b815283907f00000000000000000000000000000000000000000000000000000000000000006001600160a01b0316602082600481845afa918215610988578392611228575b50803b156109425760405163101a2a3160e31b815260048101929092523360248301528290829060449082905afa801561094657611214575b505061121191614089565b80f35b61121d906139d7565b610942578238611206565b925090506020823d8211611256575b8161124460209383613a3a565b8101031261097c5784915190386111cd565b3d9150611237565b503461027a578060031936011261027a5760405163e63ab1e960e01b815281907f00000000000000000000000000000000000000000000000000000000000000006001600160a01b0316602082600481845afa918215610988578392611352575b50803b1561134e5760405163101a2a3160e31b815260048101929092523360248301528290829060449082905afa80156109465761133a575b50611301613c37565b600160ff19815416176001557f62e78cea01bee320cd4e420270b5ea74000d11b0c9f74754ebdbfc544b05a2586020604051338152a180f35b611343906139d7565b61027a5780386112f8565b5050fd5b925090506020823d8211611380575b8161136e60209383613a3a565b8101031261097c5782915190386112bf565b3d9150611361565b503461027a57602036600319011261027a578060409161024083516113ac81613a1d565b82815282602082015282858201528260608201528260808201528260a08201528260c08201528260e08201528261010082015282610120820152826101408201528261016082015282610180820152826101a0820152826101c0820152826101e08201528261020082015282610220820152015261142f60025460043510613e26565b600435815260036020522060405161144681613a1d565b8154815260018201546001600160a01b03908116602083015260028301546040830152600383015490811660608301526114899060a01c60ff1660808301613bf6565b600482015460a0820152600582015460c082015260068083015460e0830152600783015461010083015260088301546101208301526009830154610140830152600a830154610160830152600b8301546001600160a01b0316610180830152600c8301546101a0830152600d830154929060ff8416101561164357601060ff9182858161026097166101c087015260081c1615156101e0850152600e810154610200850152600f8101546102208501520154161515610240820152610240604051918051835260018060a01b0360208201511660208401526040810151604084015260018060a01b03606082015116606084015261158f60808201516080850190613b21565b60a081015160a084015260c081015160c084015260e081015160e084015261010081015161010084015261012081015161012084015261014081015161014084015261016081015161016084015260018060a01b03610180820151166101808401526101a08101516101a08401526116116101c08201516101c0850190613b2e565b6101e081015115156101e084015261020081015161020084015261022081015161022084015201511515610240820152f35b634e487b7160e01b600052602160045260246000fd5b503461027a576020908160031936011261027a579060043560029061168082548210613e26565b8352600482526040832090815461169681613f75565b916116a46040519384613a3a565b81835284830190819487528587209087925b8484106117305750505050506040519280840191818552518092526040840192945b8281106116e55784840385f35b855180516001600160a01b031685528083015185840152604080820151908601526060808201511515908601526080908101511515908501529481019460a0909301926001016116d8565b60048860019260409b9a98999b5161174781613a01565b848060a01b0387541681528487015483820152858701546040820152600387015460ff908181161515606084015260081c161515608082015281520193019301929197959496976116b6565b503461027a578060031936011261027a57602060405161012c8152f35b503461027a57602080600319360112610300576001600160a01b036117d36139ab565b1682526008815260408220916040518092808554928381520194835280832092905b82821061180c576102e5856102d981890382613a3a565b8354865294850194600193840193909101906117f5565b503461027a57604036600319011261027a5761183d6139ab565b6040516385f438c160e01b8152602480359291602091906001600160a01b039086907f000000000000000000000000000000000000000000000000000000000000000083168582600481845afa918215610988578392611a72575b50803b156109425760405163101a2a3160e31b815260048101929092523360248301528290829060449082905afa801561094657611a5a575b50506118db613c55565b8316928315611a22573084146119de573b61199b5783156119585747841161191e57846119178180808089895af1611911613f45565b50614230565b6001815580f35b9060146064926040519262461bcd60e51b8452600484015282015273496e73756666696369656e742062616c616e636560601b6044820152fd5b90601d6064926040519262461bcd60e51b845260048401528201527f416d6f756e74206d7573742062652067726561746572207468616e20300000006044820152fd5b90601b6064926040519262461bcd60e51b845260048401528201527f43616e6e6f7420776974686472617720746f20636f6e747261637400000000006044820152fd5b60405162461bcd60e51b8152600481018490526017818401527f43616e6e6f7420776974686472617720746f2073656c660000000000000000006044820152606490fd5b60405162461bcd60e51b81526004810184905260118184015270125b9d985b1a59081c9958da5c1a595b9d607a1b6044820152606490fd5b611a63906139d7565b611a6e5785386118d1565b8580fd5b925090508482813d8111611a9d575b611a8b8183613a3a565b8101031261097c578791519038611898565b503d611a81565b503461027a57611ab3366139c1565b9190815260046020526040812090815483101561027a5760a0611ad68484613b3b565b5060ff600180841b03825416916001810154906003600282015491015491604051948552602085015260408401528181161515606084015260081c1615156080820152f35b503461027a578060031936011261027a57602060ff600154166040519015158152f35b503461027a57602036600319011261027a57600435815260036020526040902080808054600160a01b6001900360018301541660c05260028201546003830154600484015460058501546006860154600787015490600888015492600989015494600a8a015496600160a01b60019003600b8c01541698600c8c01549a600d8d01549c600e01549d600f01549e6010015460ff1660805260405160a05260a0515260c05160a0516020015260a05160400152600160a01b60019003811660a0516060015260a0516080019060a01c60ff1690611c1991613b21565b60a05160a0015260a05160c0015260a05160e0015260a051610100015260a051610120015260a051610140015260a051610160015260a051610180015260a0516101a0015260a0516101c00160ff821690611c7391613b2e565b60081c60ff16151560a0516101e0015260a051610200015260a0516102200152608051151560a051610240015260a05161026090f35b503461027a578060031936011261027a57602060405162278d008152f35b503461027a578060031936011261027a576040516367ef9e2760e11b815281907f00000000000000000000000000000000000000000000000000000000000000006001600160a01b0316602082600481845afa918215610988578392611dc9575b50803b1561134e5760405163101a2a3160e31b815260048101929092523360248301528290829060449082905afa801561094657611db5575b505060015460ff811615611da35760ff19166001557f5db9ee0a495bf2e6ff9c91a7834c1ba4fdd244a5e8aa4e537bd38aeae4b073aa6020604051338152a180f35b604051638dfc202b60e01b8152600490fd5b611dbe906139d7565b61027a578038611d61565b925090506020823d8211611df7575b81611de560209383613a3a565b8101031261097c578291519038611d28565b3d9150611dd8565b503461027a578060031936011261027a578062015180420190814211610a2a5760025490835b828110611eed5750611e3690613f8d565b918390845b838110611e5057604051806102e58782613ae6565b808652600360209080825260ff600d60408a200154166006811015611ed957906001611e91949392149182611ec0575b82611eaa575b5050611e9657613bb1565b611e3b565b806103c1611ea386613bb1565b9588613fbf565b838a525250604087206009015442103880611e86565b915082895280825284600960408b200154111591611e80565b634e487b7160e01b89526021600452602489fd5b808552600360209080825260ff600d604089200154166006811015610427576001149182611f5c575b82611f46575b5050611f31575b611f2c90613bb1565b611e25565b90611f3e611f2c91613bb1565b919050611f23565b8388525250604085206009015442103880611f1c565b9150828752808252856009604089200154111591611f16565b503461027a5761010036600319011261027a57611f906139ab565b6004604435101561030057611fa3613c55565b611fab613c37565b60e435906001600160a01b0381161561278b576064351561273857610e1060c435101580612729575b156126f1576040516331a9108f60e11b81526024803560048301526020908290816001600160a01b0386165afa9081156123b15784916126b7575b50336001600160a01b03909116036126825760405163e985e9c560e01b81523360048201523060248201526020816044816001600160a01b0386165afa9081156123b1578491612653575b5080156125d1575b1561259957600360443514612538575b60a435612470575b6001604435146123f4575b6002549161209283613bb1565b6002556120a160c43542613bd6565b60e435156123cb575b60ff906044356001036123c457606435925b6044356002036123bc576002915b604051946120d786613a1d565b8786526001600160a01b0387166020870152602435604087015233606087015261210660443560808801613bf6565b60643560a087015260843560c087015260a43560e08701526101008601524261012086015261014085015261016084015285610180840152856101a084015260016101c0840152856101e0840152166102008201528361022082015283610240820152828452600360205260408420908051825560018060a01b036020820151166001600160601b0360a01b6001840154161760018301556040810151600283015560018060a01b03606082015116600383015490608083015160048110156104275760ff60a01b9060a01b16916affffffffffffffffffffff60a81b161717600383015560a0810151600483015560c0810151600583015560e08101516006830155610100810151600783015561012081015160088301556101408101516009830155610160810151600a830155600b820160018060a01b03610180830151166001600160601b0360a01b8254161790556101a0810151600c830155600d82016101c082015160068110156105895781546101e084015161ff0090151560081b1660ff9290921661ffff19909116171790556122d2919060109061024090610200810151600e850155610220810151600f8501550151151591019060ff801983541691151516179055565b33835260076020526122e78260408520613c02565b6001600160a01b0381163b15610942576040516323b872dd60e01b8152336004820152306024808301919091523560448201528381606481836001600160a01b0387165af180156123b15761239d575b50602092600191604051906024358252612355868301604435613b21565b606435604083015260c4356060830152838060a01b031690847f5c2d0edaf61e67e74604ea483df48ee4e415c7022f58881f276a833502e5b94f60803393a455604051908152f35b6123a784916139d7565b6109425738612337565b6040513d86823e3d90fd5b6001916120ca565b85926120bc565b90506127106123de600a54606435613be3565b0490816120aa5766038d7ea4c6800091506120aa565b608435151580612463575b6120855760405162461bcd60e51b815260206004820152603260248201527f44757463682061756374696f6e206e656564732076616c69642072657365727660448201527165203c207374617274696e6720707269636560701b6064820152608490fd5b50606435608435106123ff565b60643560a43511156124e4576084351561207a5760843560a435101561207a5760405162461bcd60e51b815260206004820152602660248201527f427579206e6f77207072696365206d757374206265203e3d207265736572766560448201526520707269636560d01b6064820152608490fd5b60405162461bcd60e51b815260206004820152602660248201527f427579206e6f77207072696365206d757374206265203e207374617274696e6760448201526520707269636560d01b6064820152608490fd5b60643560843510156120725760405162461bcd60e51b815260206004820152602760248201527f52657365727665207072696365206d757374206265203e3d207374617274696e6044820152666720707269636560c81b6064820152608490fd5b60405162461bcd60e51b815260206004820152601060248201526f139195081b9bdd08185c1c1c9bdd995960821b6044820152606490fd5b5060405163020604bf60e21b81526024803560048301526020908290816001600160a01b0386165afa9081156123b1578491612619575b506001600160a01b03163014612062565b90506020813d60201161264b575b8161263460209383613a3a565b8101031261043b5761264590613b85565b38612608565b3d9150612627565b612675915060203d60201161267b575b61266d8183613a3a565b810190613b99565b3861205a565b503d612663565b60405162461bcd60e51b815260206004820152600d60248201526c2737ba1027232a1037bbb732b960991b6044820152606490fd5b90506020813d6020116126e9575b816126d260209383613a3a565b8101031261043b576126e390613b85565b3861200f565b3d91506126c5565b60405162461bcd60e51b815260206004820152601060248201526f24b73b30b634b210323ab930ba34b7b760811b6044820152606490fd5b5062278d0060c4351115611fd4565b60405162461bcd60e51b815260206004820152602560248201527f5374617274696e67207072696365206d75737420626520677265617465722074604482015264068616e20360dc1b6064820152608490fd5b60405162461bcd60e51b8152602060048201526014602482015273125b9d985b1a59081391950818dbdb9d1c9858dd60621b6044820152606490fd5b503461027a578060031936011261027a5760206040516103e88152f35b503461027a578060031936011261027a5760025481808080805b858110612826575060a095506040519485526020850152604084015260608301526080820152f35b90818752600360209080825260ff600d60408b2001541660068110156106e557600181036128685750505061285d61286391613bb1565b91613bb1565b6127fe565b6004819894959896929396146000146128a05750916106b89161288d61286394613bb1565b95888b5252600c60408a20015490613bd6565b90945060059150959195146128b9575b61286390613bb1565b926128c661286391613bb1565b9390506128b0565b503461027a57602036600319011261027a576128e8613c55565b6004358152600360205260408120600d810180549060ff82166006811015610a7a5760038103612d9c57600203612d57576009830154620151808101809111612d4357421115612d055760018060a01b03600b8401541690600c840154928215612cce5760ff19166004179055600183015460028401546009549092916001600160a01b0316906127109061297d9086613be3565b049460405163152a902d60e11b8152846004820152856024820152604081604481865afa8089928a92612c88575b50612c80575050869387925b866129c2878a613bd6565b11612c425788926129dc876129d78b8b613e19565b613e19565b91803b15612c3e576040516323b872dd60e01b81523060048201526001600160a01b0388166024820152604481019490945284908490606490829084905af19283156123b1578493612c26575b5060030154829182916001600160a01b03165af1612a45613f45565b5015612be85785908380151580612bd6575b612b6a575b505050600435855260046020526040852092600360205260018060a01b03600b6040882001541692865b8554811015612b26578085612a9e612aba9389613b3b565b50546001600160a01b0316141580612b0a575b612abf57613bb1565b612a86565b6003612acb8289613b3b565b5001805461ff001916610100179055610673612ae78289613b3b565b50546001600160a01b03166001612afe848b613b3b565b5001549060043561426e565b5060ff6003612b19838a613b3b565b50015460081c1615612ab1565b5086935085604051928352602083015260408201527f505c7c7cd3a58c7bd261c378954ce91c744bdde91a6e1a6f5cb8799f2e9a1d68606060043592a36001815580f35b8291829182916001600160a01b03165af1612b83613f45565b5015612b9157843883612a5c565b60405162461bcd60e51b815260206004820152601760248201527f526f79616c7479207472616e73666572206661696c65640000000000000000006044820152606490fd5b506001600160a01b0382161515612a57565b60405162461bcd60e51b815260206004820152601660248201527514d95b1b195c881d1c985b9cd9995c8819985a5b195960521b6044820152606490fd5b612c32909391936139d7565b61094257829138612a29565b8480fd5b60405162461bcd60e51b815260206004820152601660248201527546656573206578636565642073616c6520707269636560501b6044820152606490fd5b9490926129b7565b925090506040823d604011612cc6575b81612ca560409383613a3a565b81010312612cc2576020612cb883613b85565b92015190386129ab565b8880fd5b3d9150612c98565b60405162461bcd60e51b815260206004820152600f60248201526e139bc81dda5b9b995c88199bdd5b99608a1b6044820152606490fd5b60405162461bcd60e51b815260206004820152601660248201527514995d99585b081c1a185cd9481b9bdd08195b99195960521b6044820152606490fd5b634e487b7160e01b85526011600452602485fd5b60405162461bcd60e51b815260206004820152601860248201527f52657665616c207068617365206e6f74207374617274656400000000000000006044820152606490fd5b606460405162461bcd60e51b815260206004820152602060248201527f41756374696f6e206e6f7420726561647920666f7220736574746c656d656e746044820152fd5b503461027a57612def36613a78565b612dff6002939293548410613e26565b82825260209260038452612e1d60ff60106040862001541615613e6b565b612e25613c55565b80835260038085526040842090810154336001600160a01b0391821614908115612f1e575b5015612ed957600d015460ff1660068110156103c7578015908115612ece575b5015612e7a579061191791614089565b60405162461bcd60e51b815260048101859052602660248201527f43616e6e6f742063616e63656c2061756374696f6e20696e2063757272656e7460448201526520737461746560d01b6064820152608490fd5b600191501438612e6a565b60405162461bcd60e51b815260048101869052601860248201527f4e6f7420617574686f72697a656420746f2063616e63656c00000000000000006044820152606490fd5b90507f0000000000000000000000000000000000000000000000000000000000000000166040516367ef9e2760e11b81528681600481855afa908115613000579087918791612fcf575b50604051632474521560e21b815260048101919091523360248201529182908180604481015b03915afa908115612fc4578591612fa7575b5038612e4a565b612fbe9150863d881161267b5761266d8183613a3a565b38612fa0565b6040513d87823e3d90fd5b82819392503d8311612ff9575b612fe68183613a3a565b8101031261097c57518690612f8e612f68565b503d612fdc565b6040513d88823e3d90fd5b503461027a5761301a366139c1565b906130286002548210613e26565b604051633eb0a94360e11b81526020919084907f00000000000000000000000000000000000000000000000000000000000000006001600160a01b03168482600481845afa918215610988578392613148575b50803b156109425760405163101a2a3160e31b815260048101929092523360248301528290829060449082905afa801561094657613134575b505260038152604083209060ff600d830154166006811015610a7a5760016130dc9114613cb8565b6201518083116130fb575060096130f69101918254613bd6565b905580f35b6064906040519062461bcd60e51b825260048201526012602482015271457874656e73696f6e20746f6f206c6f6e6760701b6044820152fd5b61313d906139d7565b61043b5783386130b4565b925090508382813d8111613173575b6131618183613a3a565b8101031261097c57859151903861307b565b503d613157565b5060208060031936011261030057600435906131996002548310613e26565b81835260039081815260ff600d60408620015416926006841015610a7a576131c46001809514613cb8565b8085528282526131dd6009604087200154421115613cf9565b8085528282526131f760ff60106040882001541615613e6b565b6131ff613c55565b8085528282528260408620015460ff8160a01c16600481101561058957856132279114613eb7565b6001600160a01b0316331461339a5761323f81613fd3565b9283341061335e579084600f879594938387528085526040872090600b8201336001600160601b0360a01b82541617905586600c830155600d82019060ff19825416179055015561329033826142c5565b15613345575b808452600482526132d060408520604051906132b182613a01565b3382528585830152426040830152876060830152866080830152613d70565b84604051928484528301527f8f06251a01f1c60f43d914574d31d4eb5be776df9d23e7f94e7c07c578b9753d60403393a380341161330d57505580f35b818061331a819334613e19565b81811561333c575b3390f11561332f57815580f35b50604051903d90823e3d90fd5b506108fc613322565b338452600882526133598160408620613c02565b613296565b60405162461bcd60e51b8152600481018490526014602482015273125b9cdd59999a58da595b9d081c185e5b595b9d60621b6044820152606490fd5b60405162461bcd60e51b815260048101839052601160248201527053656c6c65722063616e6e6f742062757960781b6044820152606490fd5b503461027a57604036600319011261027a5760406133ef613995565b9160043581526006602052209060018060a01b0316600052602052602060ff604060002054166040519015158152f35b503461027a578060031936011261027a576020600254604051908152f35b503461027a578060031936011261027a576040517f00000000000000000000000000000000000000000000000000000000000000006001600160a01b03168152602090f35b503461027a57602080600319360112610300576004359060018060a01b037f000000000000000000000000000000000000000000000000000000000000000016836040516331aab75960e01b81528381600481865afa90811561094657829161357b575b50823b156103005760405163101a2a3160e31b8152600481019190915233602482015291829060449082905afa80156123b157613568575b506107d0821161352f5750600a5580f35b6064906040519062461bcd60e51b825260048201526012602482015271092dcc6e4cadacadce840e8dede40d0d2ced60731b6044820152fd5b613574909391936139d7565b913861351e565b90508381813d83116135a1575b6135928183613a3a565b810103126103005751386134e6565b503d613588565b503461027a57606036600319011261027a5760043560249081356044916135d26002548210613e26565b8085526020600381526135ef60ff60106040892001541615613e6b565b6135f7613c55565b818652600381526040862060ff600382015460a01c1660048110156139415760026136229114613ef9565b60ff600d82015416600681101561394157600203613908578287526006825260408720338852825260ff6040882054166138d2578287526005825260408720338852825260408720541561388f5760405182810190858252863560408201523360601b606082015260548152608081019181831067ffffffffffffffff84111761387c578260405281519020858a526005855260408a20338b52855260408a20540361384657505082875260068252604087203388528252604087209460019687968760ff198254161790558689905b61375c575b5050508394509283600c7fe114ea9e9a27652a7d68437b8464a4c003a7697f8123821f48a4b83718c05bc69495019081548311613740575b5050506040519384523393a3815580f35b600b0180546001600160a01b031916331790555583388061372f565b858a526004855260408a208054821015613840578161377a91613b3b565b50546001600160a01b0316331461379a5761379490613bb1565b876136f2565b9293948096975089526004855286886137b68560408d20613b3b565b500154106138085750507fe114ea9e9a27652a7d68437b8464a4c003a7697f8123821f48a4b83718c05bc6929185876137fa8294888c526004875260408c20613b3b565b5001559093928695386136f7565b72496e73756666696369656e7420657363726f7760681b606492601387936040519462461bcd60e51b86526004860152840152820152fd5b506136f7565b9071125b9d985b1a5908189a59081c995d99585b60721b60c46064938662461bcd60e51b85526084820152601260a48201520152fd5b634e487b7160e01b8a526041600452888afd5b60405162461bcd60e51b8152600481018390526017818801527f4e6f207365616c656420626964207375626d697474656400000000000000000081870152606490fd5b60405162461bcd60e51b8152600481018390526010818801526f105b1c9958591e481c995d99585b195960821b81870152606490fd5b60405162461bcd60e51b815260048101839052601381880152724e6f7420696e2072657665616c20706861736560681b81870152606490fd5b634e487b7160e01b885260216004528688fd5b905034610300576040366003190112610300576040602092613974613995565b6004358252600585528282206001600160a01b039091168252845220548152f35b602435906001600160a01b038216820361097c57565b600435906001600160a01b038216820361097c57565b604090600319011261097c576004359060243590565b67ffffffffffffffff81116139eb57604052565b634e487b7160e01b600052604160045260246000fd5b60a0810190811067ffffffffffffffff8211176139eb57604052565b610260810190811067ffffffffffffffff8211176139eb57604052565b90601f8019910116810190811067ffffffffffffffff8211176139eb57604052565b67ffffffffffffffff81116139eb57601f01601f191660200190565b90604060031983011261097c576004359160243567ffffffffffffffff811161097c578160238201121561097c57806004013590613ab582613a5c565b92613ac36040519485613a3a565b8284526024838301011161097c5781600092602460209301838601378301015290565b6020908160408183019282815285518094520193019160005b828110613b0d575050505090565b835185529381019392810192600101613aff565b9060048210156116435752565b9060068210156116435752565b8054821015613b575760005260206000209060021b0190600090565b634e487b7160e01b600052603260045260246000fd5b8054821015613b575760005260206000200190600090565b51906001600160a01b038216820361097c57565b9081602091031261097c5751801515810361097c5790565b6000198114613bc05760010190565b634e487b7160e01b600052601160045260246000fd5b91908201809211613bc057565b81810292918115918404141715613bc057565b60048210156116435752565b8054600160401b8110156139eb57613c1f91600182018155613b6d565b819291549060031b91821b91600019901b1916179055565b60ff60015416613c4357565b60405163d93c066560e01b8152600490fd5b600260005414613c66576002600055565b604051633ee5aeb560e01b8152600490fd5b15613c7f57565b60405162461bcd60e51b815260206004820152601160248201527014d95b1b195c8818d85b9b9bdd08189a59607a1b6044820152606490fd5b15613cbf57565b60405162461bcd60e51b815260206004820152601260248201527141756374696f6e206e6f742061637469766560701b6044820152606490fd5b15613d0057565b60405162461bcd60e51b815260206004820152600d60248201526c105d58dd1a5bdb88195b991959609a1b6044820152606490fd5b15613d3c57565b60405162461bcd60e51b815260206004820152600c60248201526b2134b2103a37b79039b7b7b760a11b6044820152606490fd5b8054600160401b8110156139eb57613d8d91600182018155613b3b565b919091613e035760806003613e019360018060a01b038451166001600160601b0360a01b82541617815560208401516001820155604084015160028201550191613de960608201511515849060ff801983541691151516179055565b0151815461ff00191690151560081b61ff0016179055565b565b634e487b7160e01b600052600060045260246000fd5b91908203918211613bc057565b15613e2d57565b60405162461bcd60e51b8152602060048201526016602482015275105d58dd1a5bdb88191bd95cc81b9bdd08195e1a5cdd60521b6044820152606490fd5b15613e7257565b60405162461bcd60e51b815260206004820152601760248201527f41756374696f6e20616c726561647920736574746c65640000000000000000006044820152606490fd5b15613ebe57565b60405162461bcd60e51b81526020600482015260136024820152722737ba103090223aba31b41030bab1ba34b7b760691b6044820152606490fd5b15613f0057565b60405162461bcd60e51b815260206004820152601860248201527f4e6f742061207365616c6564206269642061756374696f6e00000000000000006044820152606490fd5b3d15613f70573d90613f5682613a5c565b91613f646040519384613a3a565b82523d6000602084013e565b606090565b67ffffffffffffffff81116139eb5760051b60200190565b90613f9782613f75565b613fa46040519182613a3a565b8281528092613fb5601f1991613f75565b0190602036910137565b8051821015613b575760209160051b010190565b90600091825260036020526040822060ff600382015460a01c1660048110156103c75760016140029114613eb7565b6009810154804210156140805761402760088301546140218142613e19565b92613e19565b90818110156140765761404c906140476005600486015495015485613e19565b613be3565b81156140625761405f9394500490613e19565b90565b634e487b7160e01b85526012600452602485fd5b5050600501549150565b50600501549150565b9060009082825260039060209282845260409283822090600d8201600560ff1982541617905560018060a01b0390600192828482015416600284848401541692015491813b1561422c5788516323b872dd60e01b81523060048201526001600160a01b03919091166024820152604481019290925285908290606490829084905af180156142225761420f575b5087845260048752828685209185915b614198575b50505050508251938085528251928382870152825b8481106141855750505092817f847bb320e1da018de1bcb9cc28092da9d5d4fcbcc735f003ad1d9c1d4c3684e5948483959484010152601f80199101168101030190a2565b8181018301518782018701528201614140565b825482101561420a576141c48260ff836141b3899688613b3b565b50015460081c16156141ca57613bb1565b91614126565b826141d58287613b3b565b5001805461ff0019166101001790556106738c876141f38489613b3b565b50541686614201858a613b3b565b5001549161426e565b61412b565b61421b909491946139d7565b9238614116565b87513d87823e3d90fd5b8680fd5b1561423757565b60405162461bcd60e51b815260206004820152600f60248201526e151c985b9cd9995c8819985a5b1959608a1b6044820152606490fd5b908261427957505050565b6001600160a01b0316917fa59312996dc68b7f0224b341fed75d5afeb3bb20624107d37942d14f59428156906020906142bc6000808080858a5af1611911613f45565b604051908152a3565b60009160018060a01b0316825260206008815260408320906040518092839183825491828152019187528387209387905b8282106143455750505061430c92500382613a3a565b825b815181101561433f57826143228284613fbf565b51146143365761433190613bb1565b61430e565b50505050600190565b50505090565b8554845260019586019587955093810193909101906142f656fea2646970667358221220ecd5f0d70344098ba5e9396d04fcc392270cbcaf1105521dfb1e3631ecf3094c64736f6c63430008150033",
  "devdoc": {
    "details": "Advanced auction system with 4 different auction types for Moove Sticker NFTs",
    "errors": {
      "EnforcedPause()": [
        {
          "details": "The operation failed because the contract is paused."
        }
      ],
      "ExpectedPause()": [
        {
          "details": "The operation failed because the contract is not paused."
        }
      ],
      "ReentrancyGuardReentrantCall()": [
        {
          "details": "Unauthorized reentrant call."
        }
      ]
    },
    "events": {
      "Paused(address)": {
        "details": "Emitted when the pause is triggered by `account`."
      },
      "Unpaused(address)": {
        "details": "Emitted when the pause is lifted by `account`."
      }
    },
    "kind": "dev",
    "methods": {
      "buyNowDutch(uint256)": {
        "details": "Purchase at current price for Dutch auction"
      },
      "cancelAuction(uint256,string)": {
        "details": "Cancel auction (seller or admin only)"
      },
      "createAuction(address,uint256,uint8,uint256,uint256,uint256,uint256,uint256)": {
        "details": "Create a new auction",
        "params": {
          "auctionType": "Type of auction",
          "bidIncrement": "Minimum bid increment (0 for default)",
          "buyNowPrice": "Buy now price (0 if not applicable)",
          "duration": "Duration of the auction in seconds",
          "nftContract": "Address of the NFT contract",
          "reservePrice": "Reserve price (minimum acceptable price)",
          "startingPrice": "Starting price for the auction",
          "tokenId": "Token ID to auction"
        }
      },
      "emergencyCancel(uint256,string)": {
        "details": "Emergency cancel by admin"
      },
      "endAuction(uint256)": {
        "details": "End auction when time expires (can be called by anyone)"
      },
      "extendAuction(uint256,uint256)": {
        "details": "Extend auction duration (admin only, emergency situations)"
      },
      "getActiveAuctions()": {
        "details": "Get active auctions"
      },
      "getAuction(uint256)": {
        "details": "Get auction details"
      },
      "getAuctionBids(uint256)": {
        "details": "Get auction bids"
      },
      "getAuctionStats()": {
        "details": "Get auction statistics"
      },
      "getAuctionTypeDistribution()": {
        "details": "Get auction type distribution"
      },
      "getAuctionsByType(uint8)": {
        "details": "Get auctions by type"
      },
      "getDutchPrice(uint256)": {
        "details": "Get current price for Dutch auction"
      },
      "getEndingSoonAuctions()": {
        "details": "Get ending soon auctions (within next 24 hours)"
      },
      "getUserAuctions(address)": {
        "details": "Get user's auctions"
      },
      "getUserBids(address)": {
        "details": "Get user's bids"
      },
      "hasUserBid(uint256,address)": {
        "details": "Check if user has bid on auction"
      },
      "pause()": {
        "details": "Emergency pause"
      },
      "paused()": {
        "details": "Returns true if the contract is paused, and false otherwise."
      },
      "placeBid(uint256)": {
        "details": "Place a bid on an English or Reserve auction"
      },
      "revealSealedBid(uint256,uint256,uint256)": {
        "details": "Reveal sealed bid"
      },
      "settleAuction(uint256)": {
        "details": "Settle auction and transfer NFT to winner"
      },
      "startRevealPhase(uint256)": {
        "details": "Start reveal phase for sealed bid auctions"
      },
      "submitSealedBid(uint256,bytes32)": {
        "details": "Submit sealed bid (commitment phase)"
      },
      "totalAuctions()": {
        "details": "Get total number of auctions"
      },
      "unpause()": {
        "details": "Unpause"
      },
      "updateMinimumBidIncrement(uint256)": {
        "details": "Update minimum bid increment"
      },
      "updatePlatformFee(uint256)": {
        "details": "Update platform fee percentage"
      },
      "withdrawPlatformFees(address,uint256)": {
        "details": "Withdraw platform fees"
      }
    },
    "stateVariables": {
      "MAX_AUCTION_DURATION": {
        "details": "Maximum auction duration (30 days)"
      },
      "MAX_BIDS_PER_AUCTION": {
        "details": "Maximum number of bids per auction to prevent DoS"
      },
      "MIN_AUCTION_DURATION": {
        "details": "Minimum auction duration (1 hour)"
      },
      "MIN_BID_INTERVAL": {
        "details": "Minimum time between bids to prevent spam (5 minutes)"
      },
      "_auctionIdCounter": {
        "details": "Counter for auction IDs"
      },
      "accessControl": {
        "details": "Reference to access control contract"
      },
      "auctionBids": {
        "details": "Mapping from auction ID to bids"
      },
      "auctions": {
        "details": "Mapping from auction ID to auction details"
      },
      "hasRevealed": {
        "details": "Mapping from auction ID to bidder reveal status"
      },
      "lastBidTime": {
        "details": "Mapping to track last bid time per user per auction"
      },
      "minimumBidIncrement": {
        "details": "Minimum bid increment percentage (500 = 5%)"
      },
      "platformFeePercentage": {
        "details": "Platform fee percentage (250 = 2.5%)"
      },
      "sealedBids": {
        "details": "Mapping from auction ID to sealed bids (for sealed bid auctions)"
      },
      "userAuctions": {
        "details": "Mapping from user to their active auctions"
      },
      "userBids": {
        "details": "Mapping from user to their active bids"
      }
    },
    "title": "MooveAuction",
    "version": 1
  },
  "userdoc": {
    "kind": "user",
    "methods": {},
    "notice": "Supports English, Dutch, Sealed Bid, and Reserve auctions",
    "version": 1
  },
  "storageLayout": {
    "storage": [
      {
        "astId": 2387,
        "contract": "contracts/MooveAuction.sol:MooveAuction",
        "label": "_status",
        "offset": 0,
        "slot": "0",
        "type": "t_uint256"
      },
      {
        "astId": 2277,
        "contract": "contracts/MooveAuction.sol:MooveAuction",
        "label": "_paused",
        "offset": 0,
        "slot": "1",
        "type": "t_bool"
      },
      {
        "astId": 8626,
        "contract": "contracts/MooveAuction.sol:MooveAuction",
        "label": "_auctionIdCounter",
        "offset": 0,
        "slot": "2",
        "type": "t_uint256"
      },
      {
        "astId": 8632,
        "contract": "contracts/MooveAuction.sol:MooveAuction",
        "label": "auctions",
        "offset": 0,
        "slot": "3",
        "type": "t_mapping(t_uint256,t_struct(Auction)8737_storage)"
      },
      {
        "astId": 8639,
        "contract": "contracts/MooveAuction.sol:MooveAuction",
        "label": "auctionBids",
        "offset": 0,
        "slot": "4",
        "type": "t_mapping(t_uint256,t_array(t_struct(Bid)8748_storage)dyn_storage)"
      },
      {
        "astId": 8646,
        "contract": "contracts/MooveAuction.sol:MooveAuction",
        "label": "sealedBids",
        "offset": 0,
        "slot": "5",
        "type": "t_mapping(t_uint256,t_mapping(t_address,t_bytes32))"
      },
      {
        "astId": 8653,
        "contract": "contracts/MooveAuction.sol:MooveAuction",
        "label": "hasRevealed",
        "offset": 0,
        "slot": "6",
        "type": "t_mapping(t_uint256,t_mapping(t_address,t_bool))"
      },
      {
        "astId": 8659,
        "contract": "contracts/MooveAuction.sol:MooveAuction",
        "label": "userAuctions",
        "offset": 0,
        "slot": "7",
        "type": "t_mapping(t_address,t_array(t_uint256)dyn_storage)"
      },
      {
        "astId": 8665,
        "contract": "contracts/MooveAuction.sol:MooveAuction",
        "label": "userBids",
        "offset": 0,
        "slot": "8",
        "type": "t_mapping(t_address,t_array(t_uint256)dyn_storage)"
      },
      {
        "astId": 8669,
        "contract": "contracts/MooveAuction.sol:MooveAuction",
        "label": "platformFeePercentage",
        "offset": 0,
        "slot": "9",
        "type": "t_uint256"
      },
      {
        "astId": 8673,
        "contract": "contracts/MooveAuction.sol:MooveAuction",
        "label": "minimumBidIncrement",
        "offset": 0,
        "slot": "10",
        "type": "t_uint256"
      },
      {
        "astId": 8696,
        "contract": "contracts/MooveAuction.sol:MooveAuction",
        "label": "lastBidTime",
        "offset": 0,
        "slot": "11",
        "type": "t_mapping(t_uint256,t_mapping(t_address,t_uint256))"
      }
    ],
    "types": {
      "t_address": {
        "encoding": "inplace",
        "label": "address",
        "numberOfBytes": "20"
      },
      "t_array(t_struct(Bid)8748_storage)dyn_storage": {
        "base": "t_struct(Bid)8748_storage",
        "encoding": "dynamic_array",
        "label": "struct MooveAuction.Bid[]",
        "numberOfBytes": "32"
      },
      "t_array(t_uint256)dyn_storage": {
        "base": "t_uint256",
        "encoding": "dynamic_array",
        "label": "uint256[]",
        "numberOfBytes": "32"
      },
      "t_bool": {
        "encoding": "inplace",
        "label": "bool",
        "numberOfBytes": "1"
      },
      "t_bytes32": {
        "encoding": "inplace",
        "label": "bytes32",
        "numberOfBytes": "32"
      },
      "t_enum(AuctionStatus)8765": {
        "encoding": "inplace",
        "label": "enum MooveAuction.AuctionStatus",
        "numberOfBytes": "1"
      },
      "t_enum(AuctionType)8758": {
        "encoding": "inplace",
        "label": "enum MooveAuction.AuctionType",
        "numberOfBytes": "1"
      },
      "t_mapping(t_address,t_array(t_uint256)dyn_storage)": {
        "encoding": "mapping",
        "key": "t_address",
        "label": "mapping(address => uint256[])",
        "numberOfBytes": "32",
        "value": "t_array(t_uint256)dyn_storage"
      },
      "t_mapping(t_address,t_bool)": {
        "encoding": "mapping",
        "key": "t_address",
        "label": "mapping(address => bool)",
        "numberOfBytes": "32",
        "value": "t_bool"
      },
      "t_mapping(t_address,t_bytes32)": {
        "encoding": "mapping",
        "key": "t_address",
        "label": "mapping(address => bytes32)",
        "numberOfBytes": "32",
        "value": "t_bytes32"
      },
      "t_mapping(t_address,t_uint256)": {
        "encoding": "mapping",
        "key": "t_address",
        "label": "mapping(address => uint256)",
        "numberOfBytes": "32",
        "value": "t_uint256"
      },
      "t_mapping(t_uint256,t_array(t_struct(Bid)8748_storage)dyn_storage)": {
        "encoding": "mapping",
        "key": "t_uint256",
        "label": "mapping(uint256 => struct MooveAuction.Bid[])",
        "numberOfBytes": "32",
        "value": "t_array(t_struct(Bid)8748_storage)dyn_storage"
      },
      "t_mapping(t_uint256,t_mapping(t_address,t_bool))": {
        "encoding": "mapping",
        "key": "t_uint256",
        "label": "mapping(uint256 => mapping(address => bool))",
        "numberOfBytes": "32",
        "value": "t_mapping(t_address,t_bool)"
      },
      "t_mapping(t_uint256,t_mapping(t_address,t_bytes32))": {
        "encoding": "mapping",
        "key": "t_uint256",
        "label": "mapping(uint256 => mapping(address => bytes32))",
        "numberOfBytes": "32",
        "value": "t_mapping(t_address,t_bytes32)"
      },
      "t_mapping(t_uint256,t_mapping(t_address,t_uint256))": {
        "encoding": "mapping",
        "key": "t_uint256",
        "label": "mapping(uint256 => mapping(address => uint256))",
        "numberOfBytes": "32",
        "value": "t_mapping(t_address,t_uint256)"
      },
      "t_mapping(t_uint256,t_struct(Auction)8737_storage)": {
        "encoding": "mapping",
        "key": "t_uint256",
        "label": "mapping(uint256 => struct MooveAuction.Auction)",
        "numberOfBytes": "32",
        "value": "t_struct(Auction)8737_storage"
      },
      "t_struct(Auction)8737_storage": {
        "encoding": "inplace",
        "label": "struct MooveAuction.Auction",
        "members": [
          {
            "astId": 8698,
            "contract": "contracts/MooveAuction.sol:MooveAuction",
            "label": "auctionId",
            "offset": 0,
            "slot": "0",
            "type": "t_uint256"
          },
          {
            "astId": 8700,
            "contract": "contracts/MooveAuction.sol:MooveAuction",
            "label": "nftContract",
            "offset": 0,
            "slot": "1",
            "type": "t_address"
          },
          {
            "astId": 8702,
            "contract": "contracts/MooveAuction.sol:MooveAuction",
            "label": "tokenId",
            "offset": 0,
            "slot": "2",
            "type": "t_uint256"
          },
          {
            "astId": 8704,
            "contract": "contracts/MooveAuction.sol:MooveAuction",
            "label": "seller",
            "offset": 0,
            "slot": "3",
            "type": "t_address"
          },
          {
            "astId": 8707,
            "contract": "contracts/MooveAuction.sol:MooveAuction",
            "label": "auctionType",
            "offset": 20,
            "slot": "3",
            "type": "t_enum(AuctionType)8758"
          },
          {
            "astId": 8709,
            "contract": "contracts/MooveAuction.sol:MooveAuction",
            "label": "startingPrice",
            "offset": 0,
            "slot": "4",
            "type": "t_uint256"
          },
          {
            "astId": 8711,
            "contract": "contracts/MooveAuction.sol:MooveAuction",
            "label": "reservePrice",
            "offset": 0,
            "slot": "5",
            "type": "t_uint256"
          },
          {
            "astId": 8713,
            "contract": "contracts/MooveAuction.sol:MooveAuction",
            "label": "buyNowPrice",
            "offset": 0,
            "slot": "6",
            "type": "t_uint256"
          },
          {
            "astId": 8715,
            "contract": "contracts/MooveAuction.sol:MooveAuction",
            "label": "currentPrice",
            "offset": 0,
            "slot": "7",
            "type": "t_uint256"
          },
          {
            "astId": 8717,
            "contract": "contracts/MooveAuction.sol:MooveAuction",
            "label": "startTime",
            "offset": 0,
            "slot": "8",
            "type": "t_uint256"
          },
          {
            "astId": 8719,
            "contract": "contracts/MooveAuction.sol:MooveAuction",
            "label": "endTime",
            "offset": 0,
            "slot": "9",
            "type": "t_uint256"
          },
          {
            "astId": 8721,
            "contract": "contracts/MooveAuction.sol:MooveAuction",
            "label": "bidIncrement",
            "offset": 0,
            "slot": "10",
            "type": "t_uint256"
          },
          {
            "astId": 8723,
            "contract": "contracts/MooveAuction.sol:MooveAuction",
            "label": "highestBidder",
            "offset": 0,
            "slot": "11",
            "type": "t_address"
          },
          {
            "astId": 8725,
            "contract": "contracts/MooveAuction.sol:MooveAuction",
            "label": "highestBid",
            "offset": 0,
            "slot": "12",
            "type": "t_uint256"
          },
          {
            "astId": 8728,
            "contract": "contracts/MooveAuction.sol:MooveAuction",
            "label": "status",
            "offset": 0,
            "slot": "13",
            "type": "t_enum(AuctionStatus)8765"
          },
          {
            "astId": 8730,
            "contract": "contracts/MooveAuction.sol:MooveAuction",
            "label": "allowPartialFulfillment",
            "offset": 1,
            "slot": "13",
            "type": "t_bool"
          },
          {
            "astId": 8732,
            "contract": "contracts/MooveAuction.sol:MooveAuction",
            "label": "minBidders",
            "offset": 0,
            "slot": "14",
            "type": "t_uint256"
          },
          {
            "astId": 8734,
            "contract": "contracts/MooveAuction.sol:MooveAuction",
            "label": "totalBidders",
            "offset": 0,
            "slot": "15",
            "type": "t_uint256"
          },
          {
            "astId": 8736,
            "contract": "contracts/MooveAuction.sol:MooveAuction",
            "label": "isSettled",
            "offset": 0,
            "slot": "16",
            "type": "t_bool"
          }
        ],
        "numberOfBytes": "544"
      },
      "t_struct(Bid)8748_storage": {
        "encoding": "inplace",
        "label": "struct MooveAuction.Bid",
        "members": [
          {
            "astId": 8739,
            "contract": "contracts/MooveAuction.sol:MooveAuction",
            "label": "bidder",
            "offset": 0,
            "slot": "0",
            "type": "t_address"
          },
          {
            "astId": 8741,
            "contract": "contracts/MooveAuction.sol:MooveAuction",
            "label": "amount",
            "offset": 0,
            "slot": "1",
            "type": "t_uint256"
          },
          {
            "astId": 8743,
            "contract": "contracts/MooveAuction.sol:MooveAuction",
            "label": "timestamp",
            "offset": 0,
            "slot": "2",
            "type": "t_uint256"
          },
          {
            "astId": 8745,
            "contract": "contracts/MooveAuction.sol:MooveAuction",
            "label": "isWinning",
            "offset": 0,
            "slot": "3",
            "type": "t_bool"
          },
          {
            "astId": 8747,
            "contract": "contracts/MooveAuction.sol:MooveAuction",
            "label": "isRefunded",
            "offset": 1,
            "slot": "3",
            "type": "t_bool"
          }
        ],
        "numberOfBytes": "128"
      },
      "t_uint256": {
        "encoding": "inplace",
        "label": "uint256",
        "numberOfBytes": "32"
      }
    }
  }
}