{
  "address": "0x62E1C3c912DD70AC99241e3814Cf26e10A6AD889",
  "abi": [
    {
      "inputs": [
        {
          "internalType": "address",
          "name": "_accessControl",
          "type": "address"
        },
        {
          "internalType": "address",
          "name": "_treasury",
          "type": "address"
        }
      ],
      "stateMutability": "nonpayable",
      "type": "constructor"
    },
    {
      "inputs": [],
      "name": "EnforcedPause",
      "type": "error"
    },
    {
      "inputs": [],
      "name": "ExpectedPause",
      "type": "error"
    },
    {
      "inputs": [],
      "name": "ReentrancyGuardReentrantCall",
      "type": "error"
    },
    {
      "anonymous": false,
      "inputs": [
        {
          "indexed": true,
          "internalType": "address",
          "name": "nftContract",
          "type": "address"
        },
        {
          "indexed": true,
          "internalType": "uint256",
          "name": "tokenId",
          "type": "uint256"
        },
        {
          "indexed": false,
          "internalType": "bool",
          "name": "locked",
          "type": "bool"
        }
      ],
      "name": "CustomizationLockChanged",
      "type": "event"
    },
    {
      "anonymous": false,
      "inputs": [
        {
          "indexed": true,
          "internalType": "address",
          "name": "to",
          "type": "address"
        },
        {
          "indexed": false,
          "internalType": "uint256",
          "name": "amount",
          "type": "uint256"
        }
      ],
      "name": "FeesWithdrawn",
      "type": "event"
    },
    {
      "anonymous": false,
      "inputs": [
        {
          "indexed": true,
          "internalType": "address",
          "name": "nftContract",
          "type": "address"
        },
        {
          "indexed": false,
          "internalType": "bool",
          "name": "authorized",
          "type": "bool"
        }
      ],
      "name": "NFTContractAuthorized",
      "type": "event"
    },
    {
      "anonymous": false,
      "inputs": [
        {
          "indexed": true,
          "internalType": "address",
          "name": "nftContract",
          "type": "address"
        },
        {
          "indexed": true,
          "internalType": "uint256",
          "name": "tokenId",
          "type": "uint256"
        },
        {
          "indexed": true,
          "internalType": "address",
          "name": "seller",
          "type": "address"
        },
        {
          "indexed": false,
          "internalType": "uint256",
          "name": "price",
          "type": "uint256"
        },
        {
          "indexed": false,
          "internalType": "bool",
          "name": "allowCustomization",
          "type": "bool"
        }
      ],
      "name": "NFTPreparedForTrade",
      "type": "event"
    },
    {
      "anonymous": false,
      "inputs": [
        {
          "indexed": true,
          "internalType": "address",
          "name": "nftContract",
          "type": "address"
        },
        {
          "indexed": true,
          "internalType": "uint256",
          "name": "tokenId",
          "type": "uint256"
        },
        {
          "indexed": true,
          "internalType": "address",
          "name": "buyer",
          "type": "address"
        },
        {
          "indexed": false,
          "internalType": "address",
          "name": "seller",
          "type": "address"
        },
        {
          "indexed": false,
          "internalType": "uint256",
          "name": "finalPrice",
          "type": "uint256"
        },
        {
          "indexed": false,
          "internalType": "uint256",
          "name": "tradingFee",
          "type": "uint256"
        },
        {
          "indexed": false,
          "internalType": "uint256",
          "name": "marketplaceFee",
          "type": "uint256"
        }
      ],
      "name": "NFTTradeCompleted",
      "type": "event"
    },
    {
      "anonymous": false,
      "inputs": [
        {
          "indexed": false,
          "internalType": "address",
          "name": "account",
          "type": "address"
        }
      ],
      "name": "Paused",
      "type": "event"
    },
    {
      "anonymous": false,
      "inputs": [
        {
          "indexed": false,
          "internalType": "uint256",
          "name": "oldTradingFee",
          "type": "uint256"
        },
        {
          "indexed": false,
          "internalType": "uint256",
          "name": "newTradingFee",
          "type": "uint256"
        },
        {
          "indexed": false,
          "internalType": "uint256",
          "name": "oldMarketplaceFee",
          "type": "uint256"
        },
        {
          "indexed": false,
          "internalType": "uint256",
          "name": "newMarketplaceFee",
          "type": "uint256"
        }
      ],
      "name": "TradingFeesUpdated",
      "type": "event"
    },
    {
      "anonymous": false,
      "inputs": [
        {
          "indexed": true,
          "internalType": "address",
          "name": "oldTreasury",
          "type": "address"
        },
        {
          "indexed": true,
          "internalType": "address",
          "name": "newTreasury",
          "type": "address"
        }
      ],
      "name": "TreasuryUpdated",
      "type": "event"
    },
    {
      "anonymous": false,
      "inputs": [
        {
          "indexed": false,
          "internalType": "address",
          "name": "account",
          "type": "address"
        }
      ],
      "name": "Unpaused",
      "type": "event"
    },
    {
      "inputs": [],
      "name": "MAX_TRADING_FEE",
      "outputs": [
        {
          "internalType": "uint256",
          "name": "",
          "type": "uint256"
        }
      ],
      "stateMutability": "view",
      "type": "function"
    },
    {
      "inputs": [],
      "name": "accessControl",
      "outputs": [
        {
          "internalType": "contract MooveAccessControl",
          "name": "",
          "type": "address"
        }
      ],
      "stateMutability": "view",
      "type": "function"
    },
    {
      "inputs": [
        {
          "internalType": "address",
          "name": "",
          "type": "address"
        },
        {
          "internalType": "uint256",
          "name": "",
          "type": "uint256"
        }
      ],
      "name": "activeSales",
      "outputs": [
        {
          "internalType": "address",
          "name": "seller",
          "type": "address"
        },
        {
          "internalType": "uint256",
          "name": "price",
          "type": "uint256"
        },
        {
          "internalType": "uint256",
          "name": "listedAt",
          "type": "uint256"
        },
        {
          "internalType": "bool",
          "name": "isActive",
          "type": "bool"
        },
        {
          "internalType": "bool",
          "name": "allowCustomization",
          "type": "bool"
        }
      ],
      "stateMutability": "view",
      "type": "function"
    },
    {
      "inputs": [
        {
          "internalType": "address",
          "name": "nftContract",
          "type": "address"
        }
      ],
      "name": "authorizeNFTContract",
      "outputs": [],
      "stateMutability": "nonpayable",
      "type": "function"
    },
    {
      "inputs": [
        {
          "internalType": "address",
          "name": "",
          "type": "address"
        }
      ],
      "name": "authorizedNFTContracts",
      "outputs": [
        {
          "internalType": "bool",
          "name": "",
          "type": "bool"
        }
      ],
      "stateMutability": "view",
      "type": "function"
    },
    {
      "inputs": [
        {
          "internalType": "uint256",
          "name": "price",
          "type": "uint256"
        }
      ],
      "name": "calculateTradeFees",
      "outputs": [
        {
          "internalType": "uint256",
          "name": "tradingFee",
          "type": "uint256"
        },
        {
          "internalType": "uint256",
          "name": "marketplaceFee",
          "type": "uint256"
        },
        {
          "internalType": "uint256",
          "name": "sellerProceeds",
          "type": "uint256"
        }
      ],
      "stateMutability": "view",
      "type": "function"
    },
    {
      "inputs": [
        {
          "internalType": "address",
          "name": "nftContract",
          "type": "address"
        },
        {
          "internalType": "uint256",
          "name": "tokenId",
          "type": "uint256"
        }
      ],
      "name": "cancelNFTSale",
      "outputs": [],
      "stateMutability": "nonpayable",
      "type": "function"
    },
    {
      "inputs": [
        {
          "internalType": "address",
          "name": "",
          "type": "address"
        },
        {
          "internalType": "uint256",
          "name": "",
          "type": "uint256"
        }
      ],
      "name": "customizationLocked",
      "outputs": [
        {
          "internalType": "bool",
          "name": "",
          "type": "bool"
        }
      ],
      "stateMutability": "view",
      "type": "function"
    },
    {
      "inputs": [
        {
          "internalType": "address",
          "name": "nftContract",
          "type": "address"
        }
      ],
      "name": "deauthorizeNFTContract",
      "outputs": [],
      "stateMutability": "nonpayable",
      "type": "function"
    },
    {
      "inputs": [],
      "name": "emergencyWithdraw",
      "outputs": [],
      "stateMutability": "nonpayable",
      "type": "function"
    },
    {
      "inputs": [
        {
          "internalType": "address",
          "name": "nftContract",
          "type": "address"
        },
        {
          "internalType": "uint256",
          "name": "tokenId",
          "type": "uint256"
        }
      ],
      "name": "executeNFTTrade",
      "outputs": [],
      "stateMutability": "payable",
      "type": "function"
    },
    {
      "inputs": [
        {
          "internalType": "address",
          "name": "nftContract",
          "type": "address"
        },
        {
          "internalType": "uint256",
          "name": "tokenId",
          "type": "uint256"
        }
      ],
      "name": "getSaleInfo",
      "outputs": [
        {
          "components": [
            {
              "internalType": "address",
              "name": "seller",
              "type": "address"
            },
            {
              "internalType": "uint256",
              "name": "price",
              "type": "uint256"
            },
            {
              "internalType": "uint256",
              "name": "listedAt",
              "type": "uint256"
            },
            {
              "internalType": "bool",
              "name": "isActive",
              "type": "bool"
            },
            {
              "internalType": "bool",
              "name": "allowCustomization",
              "type": "bool"
            }
          ],
          "internalType": "struct MooveTradingManager.SaleInfo",
          "name": "sale",
          "type": "tuple"
        }
      ],
      "stateMutability": "view",
      "type": "function"
    },
    {
      "inputs": [
        {
          "internalType": "address",
          "name": "user",
          "type": "address"
        }
      ],
      "name": "getTradingStats",
      "outputs": [
        {
          "components": [
            {
              "internalType": "uint256",
              "name": "totalSales",
              "type": "uint256"
            },
            {
              "internalType": "uint256",
              "name": "totalPurchases",
              "type": "uint256"
            },
            {
              "internalType": "uint256",
              "name": "volumeTraded",
              "type": "uint256"
            },
            {
              "internalType": "uint256",
              "name": "feesEarned",
              "type": "uint256"
            },
            {
              "internalType": "uint256",
              "name": "feesPaid",
              "type": "uint256"
            }
          ],
          "internalType": "struct MooveTradingManager.TradingStats",
          "name": "stats",
          "type": "tuple"
        }
      ],
      "stateMutability": "view",
      "type": "function"
    },
    {
      "inputs": [
        {
          "internalType": "address",
          "name": "nftContract",
          "type": "address"
        },
        {
          "internalType": "uint256",
          "name": "tokenId",
          "type": "uint256"
        }
      ],
      "name": "isCustomizationLocked",
      "outputs": [
        {
          "internalType": "bool",
          "name": "locked",
          "type": "bool"
        }
      ],
      "stateMutability": "view",
      "type": "function"
    },
    {
      "inputs": [
        {
          "internalType": "address",
          "name": "nftContract",
          "type": "address"
        },
        {
          "internalType": "uint256",
          "name": "tokenId",
          "type": "uint256"
        }
      ],
      "name": "lockCustomization",
      "outputs": [],
      "stateMutability": "nonpayable",
      "type": "function"
    },
    {
      "inputs": [],
      "name": "marketplaceFeePercentage",
      "outputs": [
        {
          "internalType": "uint256",
          "name": "",
          "type": "uint256"
        }
      ],
      "stateMutability": "view",
      "type": "function"
    },
    {
      "inputs": [],
      "name": "minimumTradingFee",
      "outputs": [
        {
          "internalType": "uint256",
          "name": "",
          "type": "uint256"
        }
      ],
      "stateMutability": "view",
      "type": "function"
    },
    {
      "inputs": [],
      "name": "pauseTrading",
      "outputs": [],
      "stateMutability": "nonpayable",
      "type": "function"
    },
    {
      "inputs": [],
      "name": "paused",
      "outputs": [
        {
          "internalType": "bool",
          "name": "",
          "type": "bool"
        }
      ],
      "stateMutability": "view",
      "type": "function"
    },
    {
      "inputs": [
        {
          "internalType": "address",
          "name": "nftContract",
          "type": "address"
        },
        {
          "internalType": "uint256",
          "name": "tokenId",
          "type": "uint256"
        },
        {
          "internalType": "uint256",
          "name": "salePrice",
          "type": "uint256"
        },
        {
          "internalType": "bool",
          "name": "allowCustomization",
          "type": "bool"
        }
      ],
      "name": "prepareNFTForTrade",
      "outputs": [],
      "stateMutability": "nonpayable",
      "type": "function"
    },
    {
      "inputs": [],
      "name": "tradingFeePercentage",
      "outputs": [
        {
          "internalType": "uint256",
          "name": "",
          "type": "uint256"
        }
      ],
      "stateMutability": "view",
      "type": "function"
    },
    {
      "inputs": [],
      "name": "treasury",
      "outputs": [
        {
          "internalType": "address",
          "name": "",
          "type": "address"
        }
      ],
      "stateMutability": "view",
      "type": "function"
    },
    {
      "inputs": [
        {
          "internalType": "address",
          "name": "nftContract",
          "type": "address"
        },
        {
          "internalType": "uint256",
          "name": "tokenId",
          "type": "uint256"
        }
      ],
      "name": "unlockCustomization",
      "outputs": [],
      "stateMutability": "nonpayable",
      "type": "function"
    },
    {
      "inputs": [],
      "name": "unpauseTrading",
      "outputs": [],
      "stateMutability": "nonpayable",
      "type": "function"
    },
    {
      "inputs": [
        {
          "internalType": "uint256",
          "name": "newTradingFee",
          "type": "uint256"
        },
        {
          "internalType": "uint256",
          "name": "newMarketplaceFee",
          "type": "uint256"
        }
      ],
      "name": "updateTradingFees",
      "outputs": [],
      "stateMutability": "nonpayable",
      "type": "function"
    },
    {
      "inputs": [
        {
          "internalType": "address",
          "name": "newTreasury",
          "type": "address"
        }
      ],
      "name": "updateTreasury",
      "outputs": [],
      "stateMutability": "nonpayable",
      "type": "function"
    },
    {
      "inputs": [
        {
          "internalType": "address",
          "name": "",
          "type": "address"
        }
      ],
      "name": "userTradingStats",
      "outputs": [
        {
          "internalType": "uint256",
          "name": "totalSales",
          "type": "uint256"
        },
        {
          "internalType": "uint256",
          "name": "totalPurchases",
          "type": "uint256"
        },
        {
          "internalType": "uint256",
          "name": "volumeTraded",
          "type": "uint256"
        },
        {
          "internalType": "uint256",
          "name": "feesEarned",
          "type": "uint256"
        },
        {
          "internalType": "uint256",
          "name": "feesPaid",
          "type": "uint256"
        }
      ],
      "stateMutability": "view",
      "type": "function"
    },
    {
      "inputs": [
        {
          "internalType": "address",
          "name": "to",
          "type": "address"
        },
        {
          "internalType": "uint256",
          "name": "amount",
          "type": "uint256"
        }
      ],
      "name": "withdrawFees",
      "outputs": [],
      "stateMutability": "nonpayable",
      "type": "function"
    },
    {
      "stateMutability": "payable",
      "type": "receive"
    }
  ],
  "transactionHash": "0xd2ca6f997b6749bb1bb01072f50e176214fe6fd6f2250192307424a31c4e8d83",
  "args": [
    "0x005672EcC14b09A958742B960Ebb76eBE52Be44A",
    "0x777382955f33Bb8540602E914D9b650C962EF6Cc"
  ],
  "numDeployments": 1,
  "solcInputHash": "cf9183c5756e95f1fc92655ea94dc824",
  "bytecode": "0x60a0346200010f57601f620021d338819003918201601f19168301916001600160401b03831184841017620001145780849260409485528339810103126200010f576200005a602062000052836200012a565b92016200012a565b600160005560fa60025560646003556001600160a01b039182169190620000838315156200013f565b1690620000928215156200013f565b608052600480546001600160a01b03191691909117905560405161205490816200017f82396080518181816101b4015281816103fe0152818161065c0152818161091a015281816110180152818161123701528181611375015281816114ce0152818161184501528181611a0f01528181611ba60152611bf50152f35b600080fd5b634e487b7160e01b600052604160045260246000fd5b51906001600160a01b03821682036200010f57565b156200014757565b60405162461bcd60e51b815260206004820152600f60248201526e496e76616c6964206164647265737360881b6044820152606490fdfe6080604052600436101561001b575b361561001957600080fd5b005b6000803560e01c8063087db5b814611d055780631031e36e14611bd557806313007d5514611b905780631de403e314611b2a5780631fdeab3614611b085780633a1cea5f146119da5780633c5e987e1461195f578063456068d2146118235780634adadddf146118055780634c389cda146108965780635a117316146117875780635c975abb1461176457806361d027b31461173b578063730889ab1461161257806379e49b36146114965780637f51bb1f1461134257806388a71435146111fc5780638aaa8f24146111bd57806393b1c69c14610ff75780639abddd9e14610a1f5780639fc80b72146108df578063a3629ff314610896578063ad3b1b4714610621578063b2356ad414610603578063cf48279414610569578063db2e21bc146103d0578063eeb7f65a146103b35763f285f9761461015b575061000e565b346103b05760803660031901126103b057610174611dbb565b602435604435906064359283159384158091036103ac5760018060a01b0380921691828752602090600682526101b060ff60408a205416611dd1565b87817f000000000000000000000000000000000000000000000000000000000000000016803b156103a857816004916040519283809263e97868a560e01b82525afa801561039d57610385575b505060019660ff88541661034f57610213611ea2565b8615610315576102d9575b87600360405161022d81611e1d565b338152848101898152604082019042825260608301958c8752604060808501968a88528b815260078a528181208d82528a52209351166bffffffffffffffffffffffff60a01b845416178355518b83015551600282015501915115159060ff61ff0084549251151560081b1692169061ffff1916171790556040519485528401527fa7d77964fd3cac14d7fb9e30959185aa38f966523e03569dcb935d16a33ced9660403394a4815580f35b83885260058252604088208589528252604088208760ff198254161790558484600080516020611fff833981519152846040518b8152a361021e565b60405162461bcd60e51b8152600481018490526012602482015271496e76616c69642073616c6520707269636560701b6044820152606490fd5b60405162461bcd60e51b815260048101849052600e60248201526d151c98591a5b99c81c185d5cd95960921b6044820152606490fd5b61038e90611e4f565b6103995787386101fd565b8780fd5b6040513d84823e3d90fd5b5080fd5b8580fd5b80fd5b50346103b057806003193601126103b05760206040516103e88152f35b50346103b057806003193601126103b0576040516367ef9e2760e11b81526001600160a01b039060209083907f000000000000000000000000000000000000000000000000000000000000000084168382600481845afa91821561055e578392610527575b50803b156105235760405163101a2a3160e31b815260048101929092523360248301528290829060449082905afa801561039d5761050f575b5050610478611ea2565b479182156104d35790816104c085808080887fc0819c13be868895eb93e40eaceb96de976442fa1d404e5c55f14bb65a8c489a98600454165af16104ba611ee8565b50611f66565b6004541692604051908152a26001815580f35b60405162461bcd60e51b81526004810183905260146024820152734e6f2066756e647320746f20776974686472617760601b6044820152606490fd5b61051890611e4f565b61052357823861046e565b8280fd5b925090508282813d8111610557575b6105408183611e80565b81010312610552578491519038610435565b600080fd5b503d610536565b6040513d85823e3d90fd5b50346103b05760203660031901126103b057604060a091610588611dbb565b610590611fa4565b50600180851b031681526008602052206040516105ac81611e1d565b81549182825260018101546020830190815260028201549060408401918252608060046003850154946060870195865201549401938452604051948552516020850152516040840152516060830152516080820152f35b50346103b057806003193601126103b0576020600254604051908152f35b50346103b05760403660031901126103b05761063b611dbb565b6040516385f438c160e01b8152602090602435906001600160a01b039085907f000000000000000000000000000000000000000000000000000000000000000083168582600481845afa91821561055e578392610864575b50803b156105235760405163101a2a3160e31b815260048101929092523360248301528290829060449082905afa801561039d5761084c575b50508316926106dc841515611f28565b6106e4611ea2565b308414610807573b6107c257801561077d57478111610741579081610733858080807fc0819c13be868895eb93e40eaceb96de976442fa1d404e5c55f14bb65a8c489a97895af16104ba611ee8565b604051908152a26001815580f35b60405162461bcd60e51b8152600481018390526014602482015273496e73756666696369656e742062616c616e636560601b6044820152606490fd5b60405162461bcd60e51b815260048101839052601d60248201527f416d6f756e74206d7573742062652067726561746572207468616e20300000006044820152606490fd5b60405162461bcd60e51b815260048101839052601b60248201527f43616e6e6f7420776974686472617720746f20636f6e747261637400000000006044820152606490fd5b60405162461bcd60e51b815260048101849052601760248201527f43616e6e6f7420776974686472617720746f2073656c660000000000000000006044820152606490fd5b61085590611e4f565b6108605784386106cc565b8480fd5b925090508482813d811161088f575b61087d8183611e80565b81010312610552578691519038610693565b503d610873565b50346103b05760403660031901126103b05760209060ff906040906001600160a01b036108c1611dbb565b16815260058452818120602435825284522054166040519015158152f35b50346103b05760403660031901126103b0576108f9611dbb565b60405163a29d671760e01b8152602435916020916001600160a01b039085907f000000000000000000000000000000000000000000000000000000000000000083168582600481845afa91821561055e5783926109ed575b50803b156105235760405163101a2a3160e31b815260048101929092523360248301528290829060449082905afa801561039d576109d9575b5050600080516020611fff833981519152911691828552600681526109b560ff604087205416611dd1565b8285526005815260408086208587528252808620805460ff1916905551858152a380f35b6109e290611e4f565b61086057843861098a565b925090508482813d8111610a18575b610a068183611e80565b81010312610552578691519038610951565b503d6109fc565b5060403660031901126103b057610a34611dbb565b610a3c611ea2565b6001600160a01b0381168252600760209081526040808420602435855290915282206003810180549060ff821615610fc05760018301543403610f7b5782546001600160a01b03163314610f365760ff19809216905560018060a01b038316845260056020526040842060243585526020526040842090815416905560018060a01b038154166001820154908460e0604051610ad781611e63565b8281528260208201528260408201528260608201528260808201528260a08201528260c08201520152604051632d08b98b60e11b8152826004820152606081602481305afa908115610f2b578687918893610ee9575b5060405194610b3b86611e63565b6001600160a01b0388168652602435602087015260408601859052336060870152608086015260a085015260c084015260e083015215610eab5760408101516001600160a01b03163b610e665760e081015115610e21578380808060018060a01b0360408601511660e0860151905af1610bb3611ee8565b5015610ddc57815484906001600160a01b039081169085163b156103a857604051632142170760e11b81526004810191909152336024808301919091523560448201528181606481836001600160a01b038a165af1801561039d57610dc4575b506001830154803411610d6a575b50506040818101516001600160a01b03168552600860205284208054610c4690611fe2565b81556080820151610c5c60028301918254611ff1565b9055610c72600360e08401519201918254611ff1565b905560608101516001600160a01b03168452600860205260408420600181018054610c9c90611fe2565b90556080820151610cb260028301918254611ff1565b9055610cd66004610ccc60a085015160c086015190611ff1565b9201918254611ff1565b90556001808060a01b038354169201549060c060a0820151910151916040519384526020840152604083015260608201523390602435907f042814a68a3c8ac606aaf695f49ac1f1c14720b8d86ab01fba86ebbd8888111e608060018060a01b03861692a4604051828152602435916001600160a01b031690600080516020611fff83398151915290602090a36001815580f35b8180610d77819334611ec5565b335af1610d82611ee8565b5015610d8f578338610c21565b60405162461bcd60e51b815260206004820152600d60248201526c1499599d5b990819985a5b1959609a1b6044820152606490fd5b610dcd90611e4f565b610dd8578338610c13565b8380fd5b60405162461bcd60e51b815260206004820152601960248201527f5472616e7366657220746f2073656c6c6572206661696c6564000000000000006044820152606490fd5b60405162461bcd60e51b815260206004820152601760248201527f496e76616c69642073656c6c65722070726f63656564730000000000000000006044820152606490fd5b60405162461bcd60e51b815260206004820152601b60248201527f53656c6c65722063616e6e6f74206265206120636f6e747261637400000000006044820152606490fd5b60405162461bcd60e51b8152602060048201526016602482015275496e76616c69642073656c6c6572206164647265737360501b6044820152606490fd5b925050506060813d606011610f23575b81610f0660609383611e80565b810103126103ac5780516020820151604090920151919038610b2d565b3d9150610ef9565b6040513d88823e3d90fd5b60405162461bcd60e51b815260206004820152601760248201527f43616e6e6f742062757920796f7572206f776e204e46540000000000000000006044820152606490fd5b60405162461bcd60e51b815260206004820152601860248201527f496e636f7272656374207061796d656e7420616d6f756e7400000000000000006044820152606490fd5b60405162461bcd60e51b815260206004820152600f60248201526e53616c65206e6f742061637469766560881b6044820152606490fd5b50346103b05760403660031901126103b05760043560243560018060a01b037f000000000000000000000000000000000000000000000000000000000000000016836040516331aab75960e01b81526020928382600481845afa91821561055e57839261118b575b50803b156105235760405163101a2a3160e31b815260048101929092523360248301528290829060449082905afa801561039d57611177575b50506103e880841161113b5782116110f757916080917f74f05c870859436b4301e4284753dc4420eb6b0c26e29668cb063105ea29a3e6936002549260035491816002558360035560405194855284015260408301526060820152a180f35b6064906040519062461bcd60e51b82526004820152601860248201527f4d61726b6574706c6163652066656520746f6f206869676800000000000000006044820152fd5b60405162461bcd60e51b81526004810183905260146024820152730a8e4c2c8d2dcce40cccaca40e8dede40d0d2ced60631b6044820152606490fd5b61118090611e4f565b610dd8578338611098565b925090508282813d81116111b6575b6111a48183611e80565b8101031261055257859151903861105f565b503d61119a565b50346103b05760203660031901126103b05760209060ff906040906001600160a01b036111e8611dbb565b168152600684522054166040519015158152f35b50346103b05760403660031901126103b057611216611dbb565b60405163a29d671760e01b8152602435916020916001600160a01b039085907f000000000000000000000000000000000000000000000000000000000000000083168582600481845afa91821561055e578392611310575b50803b156105235760405163101a2a3160e31b815260048101929092523360248301528290829060449082905afa801561039d576112fc575b5050600080516020611fff833981519152911691828552600681526112d260ff604087205416611dd1565b8285526005815260408520848652815260408520600160ff1982541617905560405160018152a380f35b61130590611e4f565b6108605784386112a7565b925090508482813d811161133b575b6113298183611e80565b8101031261055257869151903861126e565b503d61131f565b50346103b05760203660031901126103b05761135c611dbb565b6040516367ef9e2760e11b81526001600160a01b0391837f00000000000000000000000000000000000000000000000000000000000000008416602084600481845afa93841561039d578294611460575b50803b156103a85760405163101a2a3160e31b815260048101949094523360248501528190849060449082905afa92831561145357849361143a575b505016906113f8821515611f28565b600454826bffffffffffffffffffffffff60a01b821617600455167f4ab5be82436d353e61ca18726e984e561f5c1cc7c6d38b29d2553c790434705a8380a380f35b61144691929350611e4f565b61052357819083386113e9565b50604051903d90823e3d90fd5b915092506020813d821161148e575b8161147c60209383611e80565b810103126105525784905192386113ad565b3d915061146f565b50346103b0576020806003193601126103a8576114b1611dbb565b6040516367ef9e2760e11b81529091906001600160a01b039084907f000000000000000000000000000000000000000000000000000000000000000083168482600481845afa91821561055e5783926115e0575b50803b156105235760405163101a2a3160e31b815260048101929092523360248301528290829060449082905afa801561039d576115cc575b505082169161154e831515611f28565b3b15611597577f516d8f02c985d8f15895674201bff0b76f3acd517f848a6d0bc7e77d7b87d42d908284526006815260408420600160ff1982541617905560405160018152a280f35b6064906040519062461bcd60e51b82526004820152600e60248201526d139bdd08184818dbdb9d1c9858dd60921b6044820152fd5b6115d590611e4f565b610dd857833861153e565b925090508382813d811161160b575b6115f98183611e80565b81010312610552578591519038611505565b503d6115ef565b50346103b05760403660031901126103b05761162c611dbb565b6001600160a01b0390811680835260066020908152604084205460243593906116579060ff16611dd1565b61165f611ea2565b828552600782526040852084865282526040852090600382019160ff8354161561170357541633036116cd5790600080516020611fff83398151915291838652600582526040862085875282526040862060ff19908181541690558154169055604051858152a36001815580f35b60405162461bcd60e51b815260048101839052600e60248201526d2737ba103a34329039b2b63632b960911b6044820152606490fd5b60405162461bcd60e51b815260048101859052601060248201526f4e4654206e6f7420666f722073616c6560801b6044820152606490fd5b50346103b057806003193601126103b0576004546040516001600160a01b039091168152602090f35b50346103b057806003193601126103b057602060ff600154166040519015158152f35b50346103b05760203660031901126103b057606090600435905061271090816117b260025483611fcf565b049166038d7ea4c680008084106117fb575b5082916117e36117e8926117da60035484611fcf565b04938492611ec5565b611ec5565b9060405192835260208301526040820152f35b92506117e86117c4565b50346103b057806003193601126103b0576020600354604051908152f35b50346103b057806003193601126103b0576040516367ef9e2760e11b815281907f00000000000000000000000000000000000000000000000000000000000000006001600160a01b0316602082600481845afa91821561055e578392611929575b50803b156119255760405163101a2a3160e31b815260048101929092523360248301528290829060449082905afa801561039d57611911575b505060015460ff8116156118ff5760ff19166001557f5db9ee0a495bf2e6ff9c91a7834c1ba4fdd244a5e8aa4e537bd38aeae4b073aa6020604051338152a180f35b604051638dfc202b60e01b8152600490fd5b61191a90611e4f565b6103b05780386118bd565b5050fd5b925090506020823d8211611957575b8161194560209383611e80565b81010312610552578291519038611884565b3d9150611938565b50346103b05760403660031901126103b05760a09060ff6040611980611dbb565b92600180861b038094168152600760205281812060243582526020522091825416916001810154906003600282015491015491604051948552602085015260408401528181161515606084015260081c1615156080820152f35b50346103b0576020806003193601126103a8576119f5611dbb565b6040516367ef9e2760e11b81526001600160a01b039084907f000000000000000000000000000000000000000000000000000000000000000083168582600481845afa91821561055e578392611ad6575b50803b156105235760405163101a2a3160e31b815260048101929092523360248301528290829060449082905afa801561039d57611ac2575b50507f516d8f02c985d8f15895674201bff0b76f3acd517f848a6d0bc7e77d7b87d42d911691828452600681526040842060ff198154169055604051848152a280f35b611acb90611e4f565b610dd8578338611a7f565b925090508482813d8111611b01575b611aef8183611e80565b81010312610552578591519038611a46565b503d611ae5565b50346103b057806003193601126103b057602060405166038d7ea4c680008152f35b50346103b05760203660031901126103b05760a0906040906001600160a01b03611b52611dbb565b168152600860205220805490600181015490600281015460046003830154920154926040519485526020850152604084015260608301526080820152f35b50346103b057806003193601126103b0576040517f00000000000000000000000000000000000000000000000000000000000000006001600160a01b03168152602090f35b50346103b057806003193601126103b05760405163e63ab1e960e01b81527f00000000000000000000000000000000000000000000000000000000000000006001600160a01b0316908290602081600481865afa90811561039d578291611cd4575b50823b156103a85760405163101a2a3160e31b8152600481019190915233602482015291829060449082905afa801561039d57611cc5575b5060015460ff8116611cb35760019060ff1916176001557f62e78cea01bee320cd4e420270b5ea74000d11b0c9f74754ebdbfc544b05a2586020604051338152a180f35b60405163d93c066560e01b8152600490fd5b611cce90611e4f565b38611c6f565b90506020813d8211611cfd575b81611cee60209383611e80565b810103126103a8575138611c37565b3d9150611ce1565b50346103b05760403660031901126103b05760a0906040611d24611dbb565b91611d2d611fa4565b50600180851b038093168152600760205281812060243582526020522060405191611d5783611e1d565b815416918281526001820154916020820192835260036002820154916040840192835201549260ff6080606085019482871615158652019460081c161515845260405194855251602085015251604084015251151560608301525115156080820152f35b600435906001600160a01b038216820361055257565b15611dd857565b60405162461bcd60e51b815260206004820152601b60248201527f4e465420636f6e7472616374206e6f7420617574686f72697a656400000000006044820152606490fd5b60a0810190811067ffffffffffffffff821117611e3957604052565b634e487b7160e01b600052604160045260246000fd5b67ffffffffffffffff8111611e3957604052565b610100810190811067ffffffffffffffff821117611e3957604052565b90601f8019910116810190811067ffffffffffffffff821117611e3957604052565b600260005414611eb3576002600055565b604051633ee5aeb560e01b8152600490fd5b91908203918211611ed257565b634e487b7160e01b600052601160045260246000fd5b3d15611f23573d9067ffffffffffffffff8211611e395760405191611f17601f8201601f191660200184611e80565b82523d6000602084013e565b606090565b15611f2f57565b60405162461bcd60e51b815260206004820152600f60248201526e496e76616c6964206164647265737360881b6044820152606490fd5b15611f6d57565b60405162461bcd60e51b815260206004820152600f60248201526e151c985b9cd9995c8819985a5b1959608a1b6044820152606490fd5b60405190611fb182611e1d565b60006080838281528260208201528260408201528260608201520152565b81810292918115918404141715611ed257565b6000198114611ed25760010190565b91908201809211611ed25756fecaf430257d95f6a3fa7db65e0b0b191906b28d6cf1c91aba4806db25a153ee9fa2646970667358221220b7fccb61725edc4039d39ea8d915f37c201022a2bfcf995c9d40c9cb7a03679564736f6c63430008150033",
  "devdoc": {
    "errors": {
      "EnforcedPause()": [
        {
          "details": "The operation failed because the contract is paused."
        }
      ],
      "ExpectedPause()": [
        {
          "details": "The operation failed because the contract is not paused."
        }
      ],
      "ReentrancyGuardReentrantCall()": [
        {
          "details": "Unauthorized reentrant call."
        }
      ]
    },
    "events": {
      "Paused(address)": {
        "details": "Emitted when the pause is triggered by `account`."
      },
      "Unpaused(address)": {
        "details": "Emitted when the pause is lifted by `account`."
      }
    },
    "kind": "dev",
    "methods": {
      "authorizeNFTContract(address)": {
        "details": "Authorize NFT contract for trading",
        "params": {
          "nftContract": "Address of the NFT contract"
        }
      },
      "calculateTradeFees(uint256)": {
        "details": "Calculate trade fees for a given price",
        "params": {
          "price": "Trade price"
        },
        "returns": {
          "marketplaceFee": "Marketplace fee amount",
          "sellerProceeds": "Amount seller receives",
          "tradingFee": "Trading fee amount"
        }
      },
      "cancelNFTSale(address,uint256)": {
        "details": "Cancel NFT sale and unlock customization",
        "params": {
          "nftContract": "Address of the NFT contract",
          "tokenId": "Token ID to cancel sale for"
        }
      },
      "deauthorizeNFTContract(address)": {
        "details": "Deauthorize NFT contract for trading",
        "params": {
          "nftContract": "Address of the NFT contract"
        }
      },
      "emergencyWithdraw()": {
        "details": "Emergency withdraw all funds to treasury"
      },
      "executeNFTTrade(address,uint256)": {
        "details": "Execute NFT trade",
        "params": {
          "nftContract": "Address of the NFT contract",
          "tokenId": "Token ID to trade"
        }
      },
      "getSaleInfo(address,uint256)": {
        "details": "Get sale information for an NFT",
        "params": {
          "nftContract": "Address of the NFT contract",
          "tokenId": "Token ID"
        },
        "returns": {
          "sale": "Sale information"
        }
      },
      "getTradingStats(address)": {
        "details": "Get trading statistics for a user",
        "params": {
          "user": "User address"
        },
        "returns": {
          "stats": "Trading statistics"
        }
      },
      "isCustomizationLocked(address,uint256)": {
        "details": "Check if NFT customization is locked",
        "params": {
          "nftContract": "Address of the NFT contract",
          "tokenId": "Token ID to check"
        },
        "returns": {
          "locked": "True if customization is locked"
        }
      },
      "lockCustomization(address,uint256)": {
        "details": "Lock NFT customization (called by customization contract)",
        "params": {
          "nftContract": "Address of the NFT contract",
          "tokenId": "Token ID to lock"
        }
      },
      "pauseTrading()": {
        "details": "Emergency pause trading"
      },
      "paused()": {
        "details": "Returns true if the contract is paused, and false otherwise."
      },
      "prepareNFTForTrade(address,uint256,uint256,bool)": {
        "details": "Prepare NFT for trading with customization lock options",
        "params": {
          "allowCustomization": "Whether to allow customization during sale period",
          "nftContract": "Address of the NFT contract",
          "salePrice": "Price at which to list the NFT",
          "tokenId": "Token ID to prepare for trading"
        }
      },
      "unlockCustomization(address,uint256)": {
        "details": "Unlock NFT customization",
        "params": {
          "nftContract": "Address of the NFT contract",
          "tokenId": "Token ID to unlock"
        }
      },
      "unpauseTrading()": {
        "details": "Unpause trading"
      },
      "updateTradingFees(uint256,uint256)": {
        "details": "Update trading fees",
        "params": {
          "newMarketplaceFee": "New marketplace fee percentage (basis points)",
          "newTradingFee": "New trading fee percentage (basis points)"
        }
      },
      "updateTreasury(address)": {
        "details": "Update treasury address",
        "params": {
          "newTreasury": "New treasury address"
        }
      },
      "withdrawFees(address,uint256)": {
        "details": "Withdraw accumulated fees",
        "params": {
          "amount": "Amount to withdraw",
          "to": "Address to send fees to"
        }
      }
    },
    "stateVariables": {
      "MAX_TRADING_FEE": {
        "details": "Maximum trading fee percentage (10%)"
      },
      "accessControl": {
        "details": "Reference to the access control contract"
      },
      "activeSales": {
        "details": "Mapping to track active sales"
      },
      "authorizedNFTContracts": {
        "details": "Mapping to track authorized NFT contracts"
      },
      "customizationLocked": {
        "details": "Mapping to track NFT customization locks during trades"
      },
      "marketplaceFeePercentage": {
        "details": "Marketplace commission percentage (basis points)"
      },
      "minimumTradingFee": {
        "details": "Minimum trading fee in wei"
      },
      "tradingFeePercentage": {
        "details": "Trading fee percentage (basis points: 100 = 1%)"
      },
      "treasury": {
        "details": "Treasury address for collecting fees"
      },
      "userTradingStats": {
        "details": "Mapping to track trading statistics"
      }
    },
    "version": 1
  },
  "userdoc": {
    "kind": "user",
    "methods": {},
    "version": 1
  },
  "storageLayout": {
    "storage": [
      {
        "astId": 2387,
        "contract": "contracts/MooveTradingManager.sol:MooveTradingManager",
        "label": "_status",
        "offset": 0,
        "slot": "0",
        "type": "t_uint256"
      },
      {
        "astId": 2277,
        "contract": "contracts/MooveTradingManager.sol:MooveTradingManager",
        "label": "_paused",
        "offset": 0,
        "slot": "1",
        "type": "t_bool"
      },
      {
        "astId": 15469,
        "contract": "contracts/MooveTradingManager.sol:MooveTradingManager",
        "label": "tradingFeePercentage",
        "offset": 0,
        "slot": "2",
        "type": "t_uint256"
      },
      {
        "astId": 15473,
        "contract": "contracts/MooveTradingManager.sol:MooveTradingManager",
        "label": "marketplaceFeePercentage",
        "offset": 0,
        "slot": "3",
        "type": "t_uint256"
      },
      {
        "astId": 15484,
        "contract": "contracts/MooveTradingManager.sol:MooveTradingManager",
        "label": "treasury",
        "offset": 0,
        "slot": "4",
        "type": "t_address"
      },
      {
        "astId": 15491,
        "contract": "contracts/MooveTradingManager.sol:MooveTradingManager",
        "label": "customizationLocked",
        "offset": 0,
        "slot": "5",
        "type": "t_mapping(t_address,t_mapping(t_uint256,t_bool))"
      },
      {
        "astId": 15496,
        "contract": "contracts/MooveTradingManager.sol:MooveTradingManager",
        "label": "authorizedNFTContracts",
        "offset": 0,
        "slot": "6",
        "type": "t_mapping(t_address,t_bool)"
      },
      {
        "astId": 15504,
        "contract": "contracts/MooveTradingManager.sol:MooveTradingManager",
        "label": "activeSales",
        "offset": 0,
        "slot": "7",
        "type": "t_mapping(t_address,t_mapping(t_uint256,t_struct(SaleInfo)15521_storage))"
      },
      {
        "astId": 15510,
        "contract": "contracts/MooveTradingManager.sol:MooveTradingManager",
        "label": "userTradingStats",
        "offset": 0,
        "slot": "8",
        "type": "t_mapping(t_address,t_struct(TradingStats)15532_storage)"
      }
    ],
    "types": {
      "t_address": {
        "encoding": "inplace",
        "label": "address",
        "numberOfBytes": "20"
      },
      "t_bool": {
        "encoding": "inplace",
        "label": "bool",
        "numberOfBytes": "1"
      },
      "t_mapping(t_address,t_bool)": {
        "encoding": "mapping",
        "key": "t_address",
        "label": "mapping(address => bool)",
        "numberOfBytes": "32",
        "value": "t_bool"
      },
      "t_mapping(t_address,t_mapping(t_uint256,t_bool))": {
        "encoding": "mapping",
        "key": "t_address",
        "label": "mapping(address => mapping(uint256 => bool))",
        "numberOfBytes": "32",
        "value": "t_mapping(t_uint256,t_bool)"
      },
      "t_mapping(t_address,t_mapping(t_uint256,t_struct(SaleInfo)15521_storage))": {
        "encoding": "mapping",
        "key": "t_address",
        "label": "mapping(address => mapping(uint256 => struct MooveTradingManager.SaleInfo))",
        "numberOfBytes": "32",
        "value": "t_mapping(t_uint256,t_struct(SaleInfo)15521_storage)"
      },
      "t_mapping(t_address,t_struct(TradingStats)15532_storage)": {
        "encoding": "mapping",
        "key": "t_address",
        "label": "mapping(address => struct MooveTradingManager.TradingStats)",
        "numberOfBytes": "32",
        "value": "t_struct(TradingStats)15532_storage"
      },
      "t_mapping(t_uint256,t_bool)": {
        "encoding": "mapping",
        "key": "t_uint256",
        "label": "mapping(uint256 => bool)",
        "numberOfBytes": "32",
        "value": "t_bool"
      },
      "t_mapping(t_uint256,t_struct(SaleInfo)15521_storage)": {
        "encoding": "mapping",
        "key": "t_uint256",
        "label": "mapping(uint256 => struct MooveTradingManager.SaleInfo)",
        "numberOfBytes": "32",
        "value": "t_struct(SaleInfo)15521_storage"
      },
      "t_struct(SaleInfo)15521_storage": {
        "encoding": "inplace",
        "label": "struct MooveTradingManager.SaleInfo",
        "members": [
          {
            "astId": 15512,
            "contract": "contracts/MooveTradingManager.sol:MooveTradingManager",
            "label": "seller",
            "offset": 0,
            "slot": "0",
            "type": "t_address"
          },
          {
            "astId": 15514,
            "contract": "contracts/MooveTradingManager.sol:MooveTradingManager",
            "label": "price",
            "offset": 0,
            "slot": "1",
            "type": "t_uint256"
          },
          {
            "astId": 15516,
            "contract": "contracts/MooveTradingManager.sol:MooveTradingManager",
            "label": "listedAt",
            "offset": 0,
            "slot": "2",
            "type": "t_uint256"
          },
          {
            "astId": 15518,
            "contract": "contracts/MooveTradingManager.sol:MooveTradingManager",
            "label": "isActive",
            "offset": 0,
            "slot": "3",
            "type": "t_bool"
          },
          {
            "astId": 15520,
            "contract": "contracts/MooveTradingManager.sol:MooveTradingManager",
            "label": "allowCustomization",
            "offset": 1,
            "slot": "3",
            "type": "t_bool"
          }
        ],
        "numberOfBytes": "128"
      },
      "t_struct(TradingStats)15532_storage": {
        "encoding": "inplace",
        "label": "struct MooveTradingManager.TradingStats",
        "members": [
          {
            "astId": 15523,
            "contract": "contracts/MooveTradingManager.sol:MooveTradingManager",
            "label": "totalSales",
            "offset": 0,
            "slot": "0",
            "type": "t_uint256"
          },
          {
            "astId": 15525,
            "contract": "contracts/MooveTradingManager.sol:MooveTradingManager",
            "label": "totalPurchases",
            "offset": 0,
            "slot": "1",
            "type": "t_uint256"
          },
          {
            "astId": 15527,
            "contract": "contracts/MooveTradingManager.sol:MooveTradingManager",
            "label": "volumeTraded",
            "offset": 0,
            "slot": "2",
            "type": "t_uint256"
          },
          {
            "astId": 15529,
            "contract": "contracts/MooveTradingManager.sol:MooveTradingManager",
            "label": "feesEarned",
            "offset": 0,
            "slot": "3",
            "type": "t_uint256"
          },
          {
            "astId": 15531,
            "contract": "contracts/MooveTradingManager.sol:MooveTradingManager",
            "label": "feesPaid",
            "offset": 0,
            "slot": "4",
            "type": "t_uint256"
          }
        ],
        "numberOfBytes": "160"
      },
      "t_uint256": {
        "encoding": "inplace",
        "label": "uint256",
        "numberOfBytes": "32"
      }
    }
  }
}